{
  "contractName": "Election",
  "abi": [
    {
      "constant": true,
      "inputs": [
        {
          "name": "",
          "type": "uint256"
        }
      ],
      "name": "Elections",
      "outputs": [
        {
          "name": "",
          "type": "string"
        }
      ],
      "payable": false,
      "stateMutability": "view",
      "type": "function",
      "signature": "0x1e9598e2"
    },
    {
      "constant": true,
      "inputs": [
        {
          "name": "",
          "type": "uint256"
        }
      ],
      "name": "ElectionRequests",
      "outputs": [
        {
          "name": "username",
          "type": "string"
        },
        {
          "name": "electionHash",
          "type": "string"
        },
        {
          "name": "time",
          "type": "string"
        },
        {
          "name": "place",
          "type": "string"
        },
        {
          "name": "status",
          "type": "string"
        }
      ],
      "payable": false,
      "stateMutability": "view",
      "type": "function",
      "signature": "0x4f764622"
    },
    {
      "constant": false,
      "inputs": [
        {
          "name": "_username",
          "type": "string"
        },
        {
          "name": "_hash",
          "type": "string"
        }
      ],
      "name": "setOrganizerCredentials",
      "outputs": [],
      "payable": false,
      "stateMutability": "nonpayable",
      "type": "function",
      "signature": "0xc6954bb9"
    },
    {
      "constant": false,
      "inputs": [
        {
          "name": "_username",
          "type": "string"
        },
        {
          "name": "_hash",
          "type": "string"
        }
      ],
      "name": "setOrganizerPersonal",
      "outputs": [],
      "payable": false,
      "stateMutability": "nonpayable",
      "type": "function",
      "signature": "0x59b2dc85"
    },
    {
      "constant": true,
      "inputs": [
        {
          "name": "_username",
          "type": "string"
        }
      ],
      "name": "getOrganizerCredentials",
      "outputs": [
        {
          "name": "",
          "type": "string"
        }
      ],
      "payable": false,
      "stateMutability": "view",
      "type": "function",
      "signature": "0xa62a4b04"
    },
    {
      "constant": true,
      "inputs": [
        {
          "name": "_username",
          "type": "string"
        }
      ],
      "name": "getOrganizerPersonal",
      "outputs": [
        {
          "name": "",
          "type": "string"
        }
      ],
      "payable": false,
      "stateMutability": "view",
      "type": "function",
      "signature": "0xa97dd664"
    },
    {
      "constant": true,
      "inputs": [],
      "name": "getOrganizersCount",
      "outputs": [
        {
          "name": "",
          "type": "uint256"
        }
      ],
      "payable": false,
      "stateMutability": "view",
      "type": "function",
      "signature": "0x039f6ac2"
    },
    {
      "constant": true,
      "inputs": [
        {
          "name": "_username",
          "type": "string"
        }
      ],
      "name": "findOrganizer",
      "outputs": [
        {
          "name": "",
          "type": "bool"
        }
      ],
      "payable": false,
      "stateMutability": "view",
      "type": "function",
      "signature": "0x288cb036"
    },
    {
      "constant": false,
      "inputs": [
        {
          "name": "_add",
          "type": "address"
        },
        {
          "name": "_hash",
          "type": "string"
        }
      ],
      "name": "addElection",
      "outputs": [
        {
          "name": "",
          "type": "bool"
        }
      ],
      "payable": false,
      "stateMutability": "nonpayable",
      "type": "function",
      "signature": "0x584399ee"
    },
    {
      "constant": true,
      "inputs": [
        {
          "name": "_add",
          "type": "address"
        },
        {
          "name": "_index",
          "type": "uint256"
        }
      ],
      "name": "getElection",
      "outputs": [
        {
          "name": "",
          "type": "string"
        }
      ],
      "payable": false,
      "stateMutability": "view",
      "type": "function",
      "signature": "0xf0a1880a"
    },
    {
      "constant": true,
      "inputs": [
        {
          "name": "_add",
          "type": "address"
        }
      ],
      "name": "organizerElectionCount",
      "outputs": [
        {
          "name": "",
          "type": "uint256"
        }
      ],
      "payable": false,
      "stateMutability": "view",
      "type": "function",
      "signature": "0x3b76293d"
    },
    {
      "constant": true,
      "inputs": [
        {
          "name": "_index",
          "type": "uint256"
        }
      ],
      "name": "getElections",
      "outputs": [
        {
          "name": "",
          "type": "string"
        }
      ],
      "payable": false,
      "stateMutability": "view",
      "type": "function",
      "signature": "0xb1c0fbf6"
    },
    {
      "constant": true,
      "inputs": [],
      "name": "electionsCount",
      "outputs": [
        {
          "name": "",
          "type": "uint256"
        }
      ],
      "payable": false,
      "stateMutability": "view",
      "type": "function",
      "signature": "0x9a74c695"
    },
    {
      "constant": false,
      "inputs": [
        {
          "name": "_username",
          "type": "string"
        },
        {
          "name": "_hash",
          "type": "string"
        }
      ],
      "name": "setCandidateCredentials",
      "outputs": [],
      "payable": false,
      "stateMutability": "nonpayable",
      "type": "function",
      "signature": "0x877cef19"
    },
    {
      "constant": false,
      "inputs": [
        {
          "name": "_username",
          "type": "string"
        },
        {
          "name": "_hash",
          "type": "string"
        }
      ],
      "name": "setCandidatePersonal",
      "outputs": [],
      "payable": false,
      "stateMutability": "nonpayable",
      "type": "function",
      "signature": "0xd25d65c4"
    },
    {
      "constant": true,
      "inputs": [
        {
          "name": "_username",
          "type": "string"
        }
      ],
      "name": "getCandidateCredentials",
      "outputs": [
        {
          "name": "",
          "type": "string"
        }
      ],
      "payable": false,
      "stateMutability": "view",
      "type": "function",
      "signature": "0x4ae62591"
    },
    {
      "constant": true,
      "inputs": [
        {
          "name": "_username",
          "type": "string"
        }
      ],
      "name": "getCandidatePersonal",
      "outputs": [
        {
          "name": "",
          "type": "string"
        }
      ],
      "payable": false,
      "stateMutability": "view",
      "type": "function",
      "signature": "0x1d81955d"
    },
    {
      "constant": true,
      "inputs": [],
      "name": "getCandidatesCount",
      "outputs": [
        {
          "name": "",
          "type": "uint256"
        }
      ],
      "payable": false,
      "stateMutability": "view",
      "type": "function",
      "signature": "0xbb9aa28f"
    },
    {
      "constant": true,
      "inputs": [
        {
          "name": "_username",
          "type": "string"
        }
      ],
      "name": "findCandidate",
      "outputs": [
        {
          "name": "",
          "type": "bool"
        }
      ],
      "payable": false,
      "stateMutability": "view",
      "type": "function",
      "signature": "0x76830a0d"
    },
    {
      "constant": false,
      "inputs": [
        {
          "name": "_username",
          "type": "string"
        },
        {
          "name": "_electionHash",
          "type": "string"
        },
        {
          "name": "_time",
          "type": "string"
        },
        {
          "name": "_place",
          "type": "string"
        },
        {
          "name": "_status",
          "type": "string"
        }
      ],
      "name": "setRequest",
      "outputs": [],
      "payable": false,
      "stateMutability": "nonpayable",
      "type": "function",
      "signature": "0x27f8583c"
    },
    {
      "constant": true,
      "inputs": [
        {
          "name": "_username",
          "type": "string"
        },
        {
          "name": "_index",
          "type": "uint256"
        }
      ],
      "name": "getRequest",
      "outputs": [
        {
          "name": "",
          "type": "string"
        },
        {
          "name": "",
          "type": "string"
        },
        {
          "name": "",
          "type": "string"
        },
        {
          "name": "",
          "type": "string"
        },
        {
          "name": "",
          "type": "string"
        }
      ],
      "payable": false,
      "stateMutability": "view",
      "type": "function",
      "signature": "0xcf05ed42"
    },
    {
      "constant": true,
      "inputs": [
        {
          "name": "_username",
          "type": "string"
        }
      ],
      "name": "candidateRequestsCount",
      "outputs": [
        {
          "name": "",
          "type": "uint256"
        }
      ],
      "payable": false,
      "stateMutability": "view",
      "type": "function",
      "signature": "0xc85a2662"
    },
    {
      "constant": true,
      "inputs": [
        {
          "name": "_index",
          "type": "uint256"
        }
      ],
      "name": "getAllRequest",
      "outputs": [
        {
          "name": "",
          "type": "string"
        },
        {
          "name": "",
          "type": "string"
        },
        {
          "name": "",
          "type": "string"
        },
        {
          "name": "",
          "type": "string"
        },
        {
          "name": "",
          "type": "string"
        }
      ],
      "payable": false,
      "stateMutability": "view",
      "type": "function",
      "signature": "0x71190688"
    },
    {
      "constant": true,
      "inputs": [],
      "name": "requestsCount",
      "outputs": [
        {
          "name": "",
          "type": "uint256"
        }
      ],
      "payable": false,
      "stateMutability": "view",
      "type": "function",
      "signature": "0xfbfa4b7f"
    },
    {
      "constant": false,
      "inputs": [
        {
          "name": "_allRequestIndex",
          "type": "uint256"
        },
        {
          "name": "_candidateRequestIndex",
          "type": "uint256"
        },
        {
          "name": "_username",
          "type": "string"
        },
        {
          "name": "_status",
          "type": "string"
        }
      ],
      "name": "updateRequestStatus",
      "outputs": [],
      "payable": false,
      "stateMutability": "nonpayable",
      "type": "function",
      "signature": "0xd2532993"
    },
    {
      "constant": false,
      "inputs": [
        {
          "name": "_electionHash",
          "type": "string"
        },
        {
          "name": "_username",
          "type": "string"
        }
      ],
      "name": "addCandidate",
      "outputs": [],
      "payable": false,
      "stateMutability": "nonpayable",
      "type": "function",
      "signature": "0x26541b56"
    },
    {
      "constant": true,
      "inputs": [
        {
          "name": "_electionHash",
          "type": "string"
        }
      ],
      "name": "countElectionCandidates",
      "outputs": [
        {
          "name": "",
          "type": "uint256"
        }
      ],
      "payable": false,
      "stateMutability": "view",
      "type": "function",
      "signature": "0xf856c027"
    },
    {
      "constant": true,
      "inputs": [
        {
          "name": "_electionHash",
          "type": "string"
        },
        {
          "name": "_index",
          "type": "uint256"
        }
      ],
      "name": "getSelectedCandidates",
      "outputs": [
        {
          "name": "",
          "type": "string"
        }
      ],
      "payable": false,
      "stateMutability": "view",
      "type": "function",
      "signature": "0x751d09eb"
    }
  ],
  "bytecode": "0x608060405234801561001057600080fd5b506145a3806100206000396000f3fe60806040526004361061016a576000357c0100000000000000000000000000000000000000000000000000000000900463ffffffff168063039f6ac21461016f5780631d81955d1461019a5780631e9598e2146102db57806326541b561461038f57806327f8583c146104ee578063288cb036146108125780633b76293d146108f25780634ae62591146109575780634f76462214610a98578063584399ee14610cfc57806359b2dc8514610dfc5780637119068814610f5b578063751d09eb146111bf57806376830a0d1461130a578063877cef19146113ea5780639a74c69514611549578063a62a4b0414611574578063a97dd664146116b5578063b1c0fbf6146117f6578063bb9aa28f146118aa578063c6954bb9146118d5578063c85a266214611a34578063cf05ed4214611b10578063d253299314611e0b578063d25d65c414611f7e578063f0a1880a146120dd578063f856c027146121b1578063fbfa4b7f1461228d575b600080fd5b34801561017b57600080fd5b506101846122b8565b6040518082815260200191505060405180910390f35b3480156101a657600080fd5b50610260600480360360208110156101bd57600080fd5b81019080803590602001906401000000008111156101da57600080fd5b8201836020820111156101ec57600080fd5b8035906020019184600183028401116401000000008311171561020e57600080fd5b91908080601f016020809104026020016040519081016040528093929190818152602001838380828437600081840152601f19601f8201169050808301925050505050505091929192905050506122c5565b6040518080602001828103825283818151815260200191508051906020019080838360005b838110156102a0578082015181840152602081019050610285565b50505050905090810190601f1680156102cd5780820380516001836020036101000a031916815260200191505b509250505060405180910390f35b3480156102e757600080fd5b50610314600480360360208110156102fe57600080fd5b81019080803590602001909291905050506123d2565b6040518080602001828103825283818151815260200191508051906020019080838360005b83811015610354578082015181840152602081019050610339565b50505050905090810190601f1680156103815780820380516001836020036101000a031916815260200191505b509250505060405180910390f35b34801561039b57600080fd5b506104ec600480360360408110156103b257600080fd5b81019080803590602001906401000000008111156103cf57600080fd5b8201836020820111156103e157600080fd5b8035906020019184600183028401116401000000008311171561040357600080fd5b91908080601f016020809104026020016040519081016040528093929190818152602001838380828437600081840152601f19601f8201169050808301925050505050505091929192908035906020019064010000000081111561046657600080fd5b82018360208201111561047857600080fd5b8035906020019184600183028401116401000000008311171561049a57600080fd5b91908080601f016020809104026020016040519081016040528093929190818152602001838380828437600081840152601f19601f82011690508083019250505050505050919291929050505061248d565b005b3480156104fa57600080fd5b50610810600480360360a081101561051157600080fd5b810190808035906020019064010000000081111561052e57600080fd5b82018360208201111561054057600080fd5b8035906020019184600183028401116401000000008311171561056257600080fd5b91908080601f016020809104026020016040519081016040528093929190818152602001838380828437600081840152601f19601f820116905080830192505050505050509192919290803590602001906401000000008111156105c557600080fd5b8201836020820111156105d757600080fd5b803590602001918460018302840111640100000000831117156105f957600080fd5b91908080601f016020809104026020016040519081016040528093929190818152602001838380828437600081840152601f19601f8201169050808301925050505050505091929192908035906020019064010000000081111561065c57600080fd5b82018360208201111561066e57600080fd5b8035906020019184600183028401116401000000008311171561069057600080fd5b91908080601f016020809104026020016040519081016040528093929190818152602001838380828437600081840152601f19601f820116905080830192505050505050509192919290803590602001906401000000008111156106f357600080fd5b82018360208201111561070557600080fd5b8035906020019184600183028401116401000000008311171561072757600080fd5b91908080601f016020809104026020016040519081016040528093929190818152602001838380828437600081840152601f19601f8201169050808301925050505050505091929192908035906020019064010000000081111561078a57600080fd5b82018360208201111561079c57600080fd5b803590602001918460018302840111640100000000831117156107be57600080fd5b91908080601f016020809104026020016040519081016040528093929190818152602001838380828437600081840152601f19601f820116905080830192505050505050509192919290505050612553565b005b34801561081e57600080fd5b506108d86004803603602081101561083557600080fd5b810190808035906020019064010000000081111561085257600080fd5b82018360208201111561086457600080fd5b8035906020019184600183028401116401000000008311171561088657600080fd5b91908080601f016020809104026020016040519081016040528093929190818152602001838380828437600081840152601f19601f820116905080830192505050505050509192919290505050612795565b604051808215151515815260200191505060405180910390f35b3480156108fe57600080fd5b506109416004803603602081101561091557600080fd5b81019080803573ffffffffffffffffffffffffffffffffffffffff1690602001909291905050506128d4565b6040518082815260200191505060405180910390f35b34801561096357600080fd5b50610a1d6004803603602081101561097a57600080fd5b810190808035906020019064010000000081111561099757600080fd5b8201836020820111156109a957600080fd5b803590602001918460018302840111640100000000831117156109cb57600080fd5b91908080601f016020809104026020016040519081016040528093929190818152602001838380828437600081840152601f19601f820116905080830192505050505050509192919290505050612920565b6040518080602001828103825283818151815260200191508051906020019080838360005b83811015610a5d578082015181840152602081019050610a42565b50505050905090810190601f168015610a8a5780820380516001836020036101000a031916815260200191505b509250505060405180910390f35b348015610aa457600080fd5b50610ad160048036036020811015610abb57600080fd5b8101908080359060200190929190505050612a2d565b60405180806020018060200180602001806020018060200186810386528b818151815260200191508051906020019080838360005b83811015610b21578082015181840152602081019050610b06565b50505050905090810190601f168015610b4e5780820380516001836020036101000a031916815260200191505b5086810385528a818151815260200191508051906020019080838360005b83811015610b87578082015181840152602081019050610b6c565b50505050905090810190601f168015610bb45780820380516001836020036101000a031916815260200191505b50868103845289818151815260200191508051906020019080838360005b83811015610bed578082015181840152602081019050610bd2565b50505050905090810190601f168015610c1a5780820380516001836020036101000a031916815260200191505b50868103835288818151815260200191508051906020019080838360005b83811015610c53578082015181840152602081019050610c38565b50505050905090810190601f168015610c805780820380516001836020036101000a031916815260200191505b50868103825287818151815260200191508051906020019080838360005b83811015610cb9578082015181840152602081019050610c9e565b50505050905090810190601f168015610ce65780820380516001836020036101000a031916815260200191505b509a505050505050505050505060405180910390f35b348015610d0857600080fd5b50610de260048036036040811015610d1f57600080fd5b81019080803573ffffffffffffffffffffffffffffffffffffffff16906020019092919080359060200190640100000000811115610d5c57600080fd5b820183602082011115610d6e57600080fd5b80359060200191846001830284011164010000000083111715610d9057600080fd5b91908080601f016020809104026020016040519081016040528093929190818152602001838380828437600081840152601f19601f820116905080830192505050505050509192919290505050612d6a565b604051808215151515815260200191505060405180910390f35b348015610e0857600080fd5b50610f5960048036036040811015610e1f57600080fd5b8101908080359060200190640100000000811115610e3c57600080fd5b820183602082011115610e4e57600080fd5b80359060200191846001830284011164010000000083111715610e7057600080fd5b91908080601f016020809104026020016040519081016040528093929190818152602001838380828437600081840152601f19601f82011690508083019250505050505050919291929080359060200190640100000000811115610ed357600080fd5b820183602082011115610ee557600080fd5b80359060200191846001830284011164010000000083111715610f0757600080fd5b91908080601f016020809104026020016040519081016040528093929190818152602001838380828437600081840152601f19601f820116905080830192505050505050509192919290505050613000565b005b348015610f6757600080fd5b50610f9460048036036020811015610f7e57600080fd5b8101908080359060200190929190505050613084565b60405180806020018060200180602001806020018060200186810386528b818151815260200191508051906020019080838360005b83811015610fe4578082015181840152602081019050610fc9565b50505050905090810190601f1680156110115780820380516001836020036101000a031916815260200191505b5086810385528a818151815260200191508051906020019080838360005b8381101561104a57808201518184015260208101905061102f565b50505050905090810190601f1680156110775780820380516001836020036101000a031916815260200191505b50868103845289818151815260200191508051906020019080838360005b838110156110b0578082015181840152602081019050611095565b50505050905090810190601f1680156110dd5780820380516001836020036101000a031916815260200191505b50868103835288818151815260200191508051906020019080838360005b838110156111165780820151818401526020810190506110fb565b50505050905090810190601f1680156111435780820380516001836020036101000a031916815260200191505b50868103825287818151815260200191508051906020019080838360005b8381101561117c578082015181840152602081019050611161565b50505050905090810190601f1680156111a95780820380516001836020036101000a031916815260200191505b509a505050505050505050505060405180910390f35b3480156111cb57600080fd5b5061128f600480360360408110156111e257600080fd5b81019080803590602001906401000000008111156111ff57600080fd5b82018360208201111561121157600080fd5b8035906020019184600183028401116401000000008311171561123357600080fd5b91908080601f016020809104026020016040519081016040528093929190818152602001838380828437600081840152601f19601f8201169050808301925050505050505091929192908035906020019092919050505061344b565b6040518080602001828103825283818151815260200191508051906020019080838360005b838110156112cf5780820151818401526020810190506112b4565b50505050905090810190601f1680156112fc5780820380516001836020036101000a031916815260200191505b509250505060405180910390f35b34801561131657600080fd5b506113d06004803603602081101561132d57600080fd5b810190808035906020019064010000000081111561134a57600080fd5b82018360208201111561135c57600080fd5b8035906020019184600183028401116401000000008311171561137e57600080fd5b91908080601f016020809104026020016040519081016040528093929190818152602001838380828437600081840152601f19601f820116905080830192505050505050509192919290505050613573565b604051808215151515815260200191505060405180910390f35b3480156113f657600080fd5b506115476004803603604081101561140d57600080fd5b810190808035906020019064010000000081111561142a57600080fd5b82018360208201111561143c57600080fd5b8035906020019184600183028401116401000000008311171561145e57600080fd5b91908080601f016020809104026020016040519081016040528093929190818152602001838380828437600081840152601f19601f820116905080830192505050505050509192919290803590602001906401000000008111156114c157600080fd5b8201836020820111156114d357600080fd5b803590602001918460018302840111640100000000831117156114f557600080fd5b91908080601f016020809104026020016040519081016040528093929190818152602001838380828437600081840152601f19601f8201169050808301925050505050505091929192905050506136b2565b005b34801561155557600080fd5b5061155e613775565b6040518082815260200191505060405180910390f35b34801561158057600080fd5b5061163a6004803603602081101561159757600080fd5b81019080803590602001906401000000008111156115b457600080fd5b8201836020820111156115c657600080fd5b803590602001918460018302840111640100000000831117156115e857600080fd5b91908080601f016020809104026020016040519081016040528093929190818152602001838380828437600081840152601f19601f820116905080830192505050505050509192919290505050613782565b6040518080602001828103825283818151815260200191508051906020019080838360005b8381101561167a57808201518184015260208101905061165f565b50505050905090810190601f1680156116a75780820380516001836020036101000a031916815260200191505b509250505060405180910390f35b3480156116c157600080fd5b5061177b600480360360208110156116d857600080fd5b81019080803590602001906401000000008111156116f557600080fd5b82018360208201111561170757600080fd5b8035906020019184600183028401116401000000008311171561172957600080fd5b91908080601f016020809104026020016040519081016040528093929190818152602001838380828437600081840152601f19601f82011690508083019250505050505050919291929050505061388f565b6040518080602001828103825283818151815260200191508051906020019080838360005b838110156117bb5780820151818401526020810190506117a0565b50505050905090810190601f1680156117e85780820380516001836020036101000a031916815260200191505b509250505060405180910390f35b34801561180257600080fd5b5061182f6004803603602081101561181957600080fd5b810190808035906020019092919050505061399c565b6040518080602001828103825283818151815260200191508051906020019080838360005b8381101561186f578082015181840152602081019050611854565b50505050905090810190601f16801561189c5780820380516001836020036101000a031916815260200191505b509250505060405180910390f35b3480156118b657600080fd5b506118bf613a57565b6040518082815260200191505060405180910390f35b3480156118e157600080fd5b50611a32600480360360408110156118f857600080fd5b810190808035906020019064010000000081111561191557600080fd5b82018360208201111561192757600080fd5b8035906020019184600183028401116401000000008311171561194957600080fd5b91908080601f016020809104026020016040519081016040528093929190818152602001838380828437600081840152601f19601f820116905080830192505050505050509192919290803590602001906401000000008111156119ac57600080fd5b8201836020820111156119be57600080fd5b803590602001918460018302840111640100000000831117156119e057600080fd5b91908080601f016020809104026020016040519081016040528093929190818152602001838380828437600081840152601f19601f820116905080830192505050505050509192919290505050613a64565b005b348015611a4057600080fd5b50611afa60048036036020811015611a5757600080fd5b8101908080359060200190640100000000811115611a7457600080fd5b820183602082011115611a8657600080fd5b80359060200191846001830284011164010000000083111715611aa857600080fd5b91908080601f016020809104026020016040519081016040528093929190818152602001838380828437600081840152601f19601f820116905080830192505050505050509192919290505050613b27565b6040518082815260200191505060405180910390f35b348015611b1c57600080fd5b50611be060048036036040811015611b3357600080fd5b8101908080359060200190640100000000811115611b5057600080fd5b820183602082011115611b6257600080fd5b80359060200191846001830284011164010000000083111715611b8457600080fd5b91908080601f016020809104026020016040519081016040528093929190818152602001838380828437600081840152601f19601f82011690508083019250505050505050919291929080359060200190929190505050613b9f565b60405180806020018060200180602001806020018060200186810386528b818151815260200191508051906020019080838360005b83811015611c30578082015181840152602081019050611c15565b50505050905090810190601f168015611c5d5780820380516001836020036101000a031916815260200191505b5086810385528a818151815260200191508051906020019080838360005b83811015611c96578082015181840152602081019050611c7b565b50505050905090810190601f168015611cc35780820380516001836020036101000a031916815260200191505b50868103845289818151815260200191508051906020019080838360005b83811015611cfc578082015181840152602081019050611ce1565b50505050905090810190601f168015611d295780820380516001836020036101000a031916815260200191505b50868103835288818151815260200191508051906020019080838360005b83811015611d62578082015181840152602081019050611d47565b50505050905090810190601f168015611d8f5780820380516001836020036101000a031916815260200191505b50868103825287818151815260200191508051906020019080838360005b83811015611dc8578082015181840152602081019050611dad565b50505050905090810190601f168015611df55780820380516001836020036101000a031916815260200191505b509a505050505050505050505060405180910390f35b348015611e1757600080fd5b50611f7c60048036036080811015611e2e57600080fd5b81019080803590602001909291908035906020019092919080359060200190640100000000811115611e5f57600080fd5b820183602082011115611e7157600080fd5b80359060200191846001830284011164010000000083111715611e9357600080fd5b91908080601f016020809104026020016040519081016040528093929190818152602001838380828437600081840152601f19601f82011690508083019250505050505050919291929080359060200190640100000000811115611ef657600080fd5b820183602082011115611f0857600080fd5b80359060200191846001830284011164010000000083111715611f2a57600080fd5b91908080601f016020809104026020016040519081016040528093929190818152602001838380828437600081840152601f19601f820116905080830192505050505050509192919290505050614174565b005b348015611f8a57600080fd5b506120db60048036036040811015611fa157600080fd5b8101908080359060200190640100000000811115611fbe57600080fd5b820183602082011115611fd057600080fd5b80359060200191846001830284011164010000000083111715611ff257600080fd5b91908080601f016020809104026020016040519081016040528093929190818152602001838380828437600081840152601f19601f8201169050808301925050505050505091929192908035906020019064010000000081111561205557600080fd5b82018360208201111561206757600080fd5b8035906020019184600183028401116401000000008311171561208957600080fd5b91908080601f016020809104026020016040519081016040528093929190818152602001838380828437600081840152601f19601f82011690508083019250505050505050919291929050505061424d565b005b3480156120e957600080fd5b506121366004803603604081101561210057600080fd5b81019080803573ffffffffffffffffffffffffffffffffffffffff169060200190929190803590602001909291905050506142d1565b6040518080602001828103825283818151815260200191508051906020019080838360005b8381101561217657808201518184015260208101905061215b565b50505050905090810190601f1680156121a35780820380516001836020036101000a031916815260200191505b509250505060405180910390f35b3480156121bd57600080fd5b50612277600480360360208110156121d457600080fd5b81019080803590602001906401000000008111156121f157600080fd5b82018360208201111561220357600080fd5b8035906020019184600183028401116401000000008311171561222557600080fd5b91908080601f016020809104026020016040519081016040528093929190818152602001838380828437600081840152601f19601f8201169050808301925050505050505091929192905050506143cd565b6040518082815260200191505060405180910390f35b34801561229957600080fd5b506122a2614445565b6040518082815260200191505060405180910390f35b6000600280549050905090565b60606004826040518082805190602001908083835b6020831015156122ff57805182526020820191506020810190506020830392506122da565b6001836020036101000a03801982511681845116808217855250505050505090500191505090815260200160405180910390208054600181600116156101000203166002900480601f0160208091040260200160405190810160405280929190818152602001828054600181600116156101000203166002900480156123c65780601f1061239b576101008083540402835291602001916123c6565b820191906000526020600020905b8154815290600101906020018083116123a957829003601f168201915b50505050509050919050565b6007818154811015156123e157fe5b906000526020600020016000915090508054600181600116156101000203166002900480601f0160208091040260200160405190810160405280929190818152602001828054600181600116156101000203166002900480156124855780601f1061245a57610100808354040283529160200191612485565b820191906000526020600020905b81548152906001019060200180831161246857829003601f168201915b505050505081565b600a826040518082805190602001908083835b6020831015156124c557805182526020820191506020810190506020830392506124a0565b6001836020036101000a038019825116818451168082178552505050505050905001915050908152602001604051809103902060206040519081016040528083815250908060018154018082558091505090600182039060005260206000200160009091929091909150600082015181600001908051906020019061254b929190614452565b505050505050565b6008856040518082805190602001908083835b60208310151561258b5780518252602082019150602081019050602083039250612566565b6001836020036101000a038019825116818451168082178552505050505050905001915050908152602001604051809103902060a0604051908101604052808781526020018681526020018581526020018481526020018381525090806001815401808255809150509060018203906000526020600020906005020160009091929091909150600082015181600001908051906020019061262d929190614452565b50602082015181600101908051906020019061264a929190614452565b506040820151816002019080519060200190612667929190614452565b506060820151816003019080519060200190612684929190614452565b5060808201518160040190805190602001906126a1929190614452565b50505050600960a06040519081016040528087815260200186815260200185815260200184815260200183815250908060018154018082558091505090600182039060005260206000209060050201600090919290919091506000820151816000019080519060200190612716929190614452565b506020820151816001019080519060200190612733929190614452565b506040820151816002019080519060200190612750929190614452565b50606082015181600301908051906020019061276d929190614452565b50608082015181600401908051906020019061278a929190614452565b505050505050505050565b60008060009050600160028054905003811115156128cd57826040516020018082805190602001908083835b6020831015156127e657805182526020820191506020810190506020830392506127c1565b6001836020036101000a0380198251168184511680821785525050505050509050019150506040516020818303038152906040528051906020012060028281548110151561283057fe5b9060005260206000200160405160200180828054600181600116156101000203166002900480156128985780601f10612876576101008083540402835291820191612898565b820191906000526020600020905b815481529060010190602001808311612884575b50509150506040516020818303038152906040528051906020012014156128c35760019150506128cf565b60009150506128cf565b505b919050565b6000600660008373ffffffffffffffffffffffffffffffffffffffff1673ffffffffffffffffffffffffffffffffffffffff168152602001908152602001600020805490509050919050565b60606003826040518082805190602001908083835b60208310151561295a5780518252602082019150602081019050602083039250612935565b6001836020036101000a03801982511681845116808217855250505050505090500191505090815260200160405180910390208054600181600116156101000203166002900480601f016020809104026020016040519081016040528092919081815260200182805460018160011615610100020316600290048015612a215780601f106129f657610100808354040283529160200191612a21565b820191906000526020600020905b815481529060010190602001808311612a0457829003601f168201915b50505050509050919050565b600981815481101515612a3c57fe5b9060005260206000209060050201600091509050806000018054600181600116156101000203166002900480601f016020809104026020016040519081016040528092919081815260200182805460018160011615610100020316600290048015612ae85780601f10612abd57610100808354040283529160200191612ae8565b820191906000526020600020905b815481529060010190602001808311612acb57829003601f168201915b505050505090806001018054600181600116156101000203166002900480601f016020809104026020016040519081016040528092919081815260200182805460018160011615610100020316600290048015612b865780601f10612b5b57610100808354040283529160200191612b86565b820191906000526020600020905b815481529060010190602001808311612b6957829003601f168201915b505050505090806002018054600181600116156101000203166002900480601f016020809104026020016040519081016040528092919081815260200182805460018160011615610100020316600290048015612c245780601f10612bf957610100808354040283529160200191612c24565b820191906000526020600020905b815481529060010190602001808311612c0757829003601f168201915b505050505090806003018054600181600116156101000203166002900480601f016020809104026020016040519081016040528092919081815260200182805460018160011615610100020316600290048015612cc25780601f10612c9757610100808354040283529160200191612cc2565b820191906000526020600020905b815481529060010190602001808311612ca557829003601f168201915b505050505090806004018054600181600116156101000203166002900480601f016020809104026020016040519081016040528092919081815260200182805460018160011615610100020316600290048015612d605780601f10612d3557610100808354040283529160200191612d60565b820191906000526020600020905b815481529060010190602001808311612d4357829003601f168201915b5050505050905085565b600080600090505b600660008573ffffffffffffffffffffffffffffffffffffffff1673ffffffffffffffffffffffffffffffffffffffff16815260200190815260200160002080549050811015612f1f57600660008573ffffffffffffffffffffffffffffffffffffffff1673ffffffffffffffffffffffffffffffffffffffff16815260200190815260200160002081815481101515612e0857fe5b906000526020600020016000016040516020018082805460018160011615610100020316600290048015612e735780601f10612e51576101008083540402835291820191612e73565b820191906000526020600020905b815481529060010190602001808311612e5f575b505091505060405160208183030381529060405280519060200120836040516020018082805190602001908083835b602083101515612ec75780518252602082019150602081019050602083039250612ea2565b6001836020036101000a038019825116818451168082178552505050505050905001915050604051602081830303815290604052805190602001201415612f12576000915050612ffa565b8080600101915050612d72565b50600660008473ffffffffffffffffffffffffffffffffffffffff1673ffffffffffffffffffffffffffffffffffffffff168152602001908152602001600020602060405190810160405280848152509080600181540180825580915050906001820390600052602060002001600090919290919091506000820151816000019080519060200190612fb2929190614452565b505050506007829080600181540180825580915050906001820390600052602060002001600090919290919091509080519060200190612ff39291906144d2565b5050600190505b92915050565b806001836040518082805190602001908083835b6020831015156130395780518252602082019150602081019050602083039250613014565b6001836020036101000a0380198251168184511680821785525050505050509050019150509081526020016040518091039020908051906020019061307f9291906144d2565b505050565b606080606080606060098681548110151561309b57fe5b90600052602060002090600502016000016009878154811015156130bb57fe5b90600052602060002090600502016001016009888154811015156130db57fe5b90600052602060002090600502016002016009898154811015156130fb57fe5b906000526020600020906005020160030160098a81548110151561311b57fe5b9060005260206000209060050201600401848054600181600116156101000203166002900480601f0160208091040260200160405190810160405280929190818152602001828054600181600116156101000203166002900480156131c15780601f10613196576101008083540402835291602001916131c1565b820191906000526020600020905b8154815290600101906020018083116131a457829003601f168201915b50505050509450838054600181600116156101000203166002900480601f01602080910402602001604051908101604052809291908181526020018280546001816001161561010002031660029004801561325d5780601f106132325761010080835404028352916020019161325d565b820191906000526020600020905b81548152906001019060200180831161324057829003601f168201915b50505050509350828054600181600116156101000203166002900480601f0160208091040260200160405190810160405280929190818152602001828054600181600116156101000203166002900480156132f95780601f106132ce576101008083540402835291602001916132f9565b820191906000526020600020905b8154815290600101906020018083116132dc57829003601f168201915b50505050509250818054600181600116156101000203166002900480601f0160208091040260200160405190810160405280929190818152602001828054600181600116156101000203166002900480156133955780601f1061336a57610100808354040283529160200191613395565b820191906000526020600020905b81548152906001019060200180831161337857829003601f168201915b50505050509150808054600181600116156101000203166002900480601f0160208091040260200160405190810160405280929190818152602001828054600181600116156101000203166002900480156134315780601f1061340657610100808354040283529160200191613431565b820191906000526020600020905b81548152906001019060200180831161341457829003601f168201915b505050505090509450945094509450945091939590929450565b6060600a836040518082805190602001908083835b6020831015156134855780518252602082019150602081019050602083039250613460565b6001836020036101000a0380198251168184511680821785525050505050509050019150509081526020016040518091039020828154811015156134c557fe5b906000526020600020016000018054600181600116156101000203166002900480601f0160208091040260200160405190810160405280929190818152602001828054600181600116156101000203166002900480156135665780601f1061353b57610100808354040283529160200191613566565b820191906000526020600020905b81548152906001019060200180831161354957829003601f168201915b5050505050905092915050565b60008060009050600160058054905003811115156136ab57826040516020018082805190602001908083835b6020831015156135c4578051825260208201915060208101905060208303925061359f565b6001836020036101000a0380198251168184511680821785525050505050509050019150506040516020818303038152906040528051906020012060058281548110151561360e57fe5b9060005260206000200160405160200180828054600181600116156101000203166002900480156136765780601f10613654576101008083540402835291820191613676565b820191906000526020600020905b815481529060010190602001808311613662575b50509150506040516020818303038152906040528051906020012014156136a15760019150506136ad565b60009150506136ad565b505b919050565b806003836040518082805190602001908083835b6020831015156136eb57805182526020820191506020810190506020830392506136c6565b6001836020036101000a038019825116818451168082178552505050505050905001915050908152602001604051809103902090805190602001906137319291906144d2565b50600582908060018154018082558091505090600182039060005260206000200160009091929091909150908051906020019061376f9291906144d2565b50505050565b6000600780549050905090565b60606000826040518082805190602001908083835b6020831015156137bc5780518252602082019150602081019050602083039250613797565b6001836020036101000a03801982511681845116808217855250505050505090500191505090815260200160405180910390208054600181600116156101000203166002900480601f0160208091040260200160405190810160405280929190818152602001828054600181600116156101000203166002900480156138835780601f1061385857610100808354040283529160200191613883565b820191906000526020600020905b81548152906001019060200180831161386657829003601f168201915b50505050509050919050565b60606001826040518082805190602001908083835b6020831015156138c957805182526020820191506020810190506020830392506138a4565b6001836020036101000a03801982511681845116808217855250505050505090500191505090815260200160405180910390208054600181600116156101000203166002900480601f0160208091040260200160405190810160405280929190818152602001828054600181600116156101000203166002900480156139905780601f1061396557610100808354040283529160200191613990565b820191906000526020600020905b81548152906001019060200180831161397357829003601f168201915b50505050509050919050565b60606007828154811015156139ad57fe5b906000526020600020018054600181600116156101000203166002900480601f016020809104026020016040519081016040528092919081815260200182805460018160011615610100020316600290048015613a4b5780601f10613a2057610100808354040283529160200191613a4b565b820191906000526020600020905b815481529060010190602001808311613a2e57829003601f168201915b50505050509050919050565b6000600580549050905090565b806000836040518082805190602001908083835b602083101515613a9d5780518252602082019150602081019050602083039250613a78565b6001836020036101000a03801982511681845116808217855250505050505090500191505090815260200160405180910390209080519060200190613ae39291906144d2565b506002829080600181540180825580915050906001820390600052602060002001600090919290919091509080519060200190613b219291906144d2565b50505050565b60006008826040518082805190602001908083835b602083101515613b615780518252602082019150602081019050602083039250613b3c565b6001836020036101000a0380198251168184511680821785525050505050509050019150509081526020016040518091039020805490509050919050565b60608060608060606008876040518082805190602001908083835b602083101515613bdf5780518252602082019150602081019050602083039250613bba565b6001836020036101000a038019825116818451168082178552505050505050905001915050908152602001604051809103902086815481101515613c1f57fe5b90600052602060002090600502016000016008886040518082805190602001908083835b602083101515613c685780518252602082019150602081019050602083039250613c43565b6001836020036101000a038019825116818451168082178552505050505050905001915050908152602001604051809103902087815481101515613ca857fe5b90600052602060002090600502016001016008896040518082805190602001908083835b602083101515613cf15780518252602082019150602081019050602083039250613ccc565b6001836020036101000a038019825116818451168082178552505050505050905001915050908152602001604051809103902088815481101515613d3157fe5b906000526020600020906005020160020160088a6040518082805190602001908083835b602083101515613d7a5780518252602082019150602081019050602083039250613d55565b6001836020036101000a038019825116818451168082178552505050505050905001915050908152602001604051809103902089815481101515613dba57fe5b906000526020600020906005020160030160088b6040518082805190602001908083835b602083101515613e035780518252602082019150602081019050602083039250613dde565b6001836020036101000a03801982511681845116808217855250505050505090500191505090815260200160405180910390208a815481101515613e4357fe5b9060005260206000209060050201600401848054600181600116156101000203166002900480601f016020809104026020016040519081016040528092919081815260200182805460018160011615610100020316600290048015613ee95780601f10613ebe57610100808354040283529160200191613ee9565b820191906000526020600020905b815481529060010190602001808311613ecc57829003601f168201915b50505050509450838054600181600116156101000203166002900480601f016020809104026020016040519081016040528092919081815260200182805460018160011615610100020316600290048015613f855780601f10613f5a57610100808354040283529160200191613f85565b820191906000526020600020905b815481529060010190602001808311613f6857829003601f168201915b50505050509350828054600181600116156101000203166002900480601f0160208091040260200160405190810160405280929190818152602001828054600181600116156101000203166002900480156140215780601f10613ff657610100808354040283529160200191614021565b820191906000526020600020905b81548152906001019060200180831161400457829003601f168201915b50505050509250818054600181600116156101000203166002900480601f0160208091040260200160405190810160405280929190818152602001828054600181600116156101000203166002900480156140bd5780601f10614092576101008083540402835291602001916140bd565b820191906000526020600020905b8154815290600101906020018083116140a057829003601f168201915b50505050509150808054600181600116156101000203166002900480601f0160208091040260200160405190810160405280929190818152602001828054600181600116156101000203166002900480156141595780601f1061412e57610100808354040283529160200191614159565b820191906000526020600020905b81548152906001019060200180831161413c57829003601f168201915b50505050509050945094509450945094509295509295909350565b8060098581548110151561418457fe5b906000526020600020906005020160040190805190602001906141a89291906144d2565b50806008836040518082805190602001908083835b6020831015156141e257805182526020820191506020810190506020830392506141bd565b6001836020036101000a03801982511681845116808217855250505050505090500191505090815260200160405180910390208481548110151561422257fe5b906000526020600020906005020160040190805190602001906142469291906144d2565b5050505050565b806004836040518082805190602001908083835b6020831015156142865780518252602082019150602081019050602083039250614261565b6001836020036101000a038019825116818451168082178552505050505050905001915050908152602001604051809103902090805190602001906142cc9291906144d2565b505050565b6060600660008473ffffffffffffffffffffffffffffffffffffffff1673ffffffffffffffffffffffffffffffffffffffff1681526020019081526020016000208281548110151561431f57fe5b906000526020600020016000018054600181600116156101000203166002900480601f0160208091040260200160405190810160405280929190818152602001828054600181600116156101000203166002900480156143c05780601f10614395576101008083540402835291602001916143c0565b820191906000526020600020905b8154815290600101906020018083116143a357829003601f168201915b5050505050905092915050565b6000600a826040518082805190602001908083835b60208310151561440757805182526020820191506020810190506020830392506143e2565b6001836020036101000a0380198251168184511680821785525050505050509050019150509081526020016040518091039020805490509050919050565b6000600980549050905090565b828054600181600116156101000203166002900490600052602060002090601f016020900481019282601f1061449357805160ff19168380011785556144c1565b828001600101855582156144c1579182015b828111156144c05782518255916020019190600101906144a5565b5b5090506144ce9190614552565b5090565b828054600181600116156101000203166002900490600052602060002090601f016020900481019282601f1061451357805160ff1916838001178555614541565b82800160010185558215614541579182015b82811115614540578251825591602001919060010190614525565b5b50905061454e9190614552565b5090565b61457491905b80821115614570576000816000905550600101614558565b5090565b9056fea165627a7a723058201821016478957a5865c5a6c19a5692ae0c846f48638cc4af1850f653bf74a35f0029",
  "source": "pragma solidity ^0.5.0;\r\n\r\ncontract Election{\r\n\r\n    //-------------------------Credentails Area--------------------------------------\r\n\r\n    //Organizer mapping of Credentials and Personal Information\r\n    mapping (string => string) OrganizerCredentials;\r\n    mapping (string => string) OrganizerPersonal;\r\n    string[] OrganizerUsername;\r\n\r\n    //Candidate mapping of Credentials and Personal Information\r\n    mapping (string => string) CandidateCredentials;\r\n    mapping (string => string) CandidatePersonal;\r\n    string[] CandidateUsername;\r\n\r\n    //------------------------Organizer's  Elections Area------------------------------\r\n\r\n    //struct for contain number of Elections in place\r\n    struct ElectionHash{\r\n        string hash;\r\n    } \r\n\r\n    //mapping for map the Oragnizer's mutliple Election to thier address\r\n    mapping (address => ElectionHash[]) OrganizerElections;\r\n    string[] public Elections;\r\n\r\n    //------------------------ Candidate's Nomination Requests -----------------------------\r\n\r\n    //mapping for candidate request for particular election\r\n    struct RequestHash{\r\n        string username;\r\n        string electionHash;\r\n        string time;\r\n        string place;\r\n        string status;\r\n    }\r\n\r\n    //mapping (Candidateusername => RequestHash)\r\n    mapping (string => RequestHash[]) CandidateRequests;\r\n    \r\n    //Array of Request struct\r\n    RequestHash[] public ElectionRequests;\r\n\r\n    //------------------------ Election's Candidate Area -------------------------------\r\n\r\n    struct CandidateOfElection{\r\n        string username;\r\n    }\r\n\r\n    mapping (string => CandidateOfElection[]) SelectedCandidates;\r\n\r\n    //-------------------- Functions Area ------------------------------------------\r\n\r\n    //********************************** function for Organizers *******************\r\n\r\n    function setOrganizerCredentials(string memory _username, string memory _hash) public {\r\n        OrganizerCredentials[_username] = _hash;\r\n        OrganizerUsername.push(_username);\r\n    }\r\n\r\n    function setOrganizerPersonal(string memory _username, string memory _hash) public {\r\n        OrganizerPersonal[_username] = _hash;\r\n    }\r\n\r\n    function getOrganizerCredentials(string memory _username) public view returns(string memory){\r\n        return OrganizerCredentials[_username];\r\n    }\r\n\r\n    function getOrganizerPersonal(string memory _username) public view returns(string memory){\r\n        return OrganizerPersonal[_username];\r\n    }\r\n\r\n    function getOrganizersCount() public view returns(uint){\r\n        return OrganizerUsername.length;\r\n    }\r\n\r\n    function findOrganizer(string memory _username) public view returns(bool){\r\n        for(uint i = 0; i <= OrganizerUsername.length - 1; i++){\r\n            if(keccak256(abi.encodePacked(OrganizerUsername[i])) == keccak256(abi.encodePacked(_username)))   return true;\r\n            else return false;\r\n        }\r\n    }\r\n\r\n    //*********************************** function for Elections ***************************************\r\n    \r\n    function addElection(address _add, string memory _hash) public returns(bool){\r\n        for(uint i = 0; i < OrganizerElections[_add].length ; i++){\r\n            if(keccak256(abi.encodePacked(_hash)) == keccak256(abi.encodePacked(OrganizerElections[_add][i].hash))) return false;\r\n        }\r\n        OrganizerElections[_add].push(ElectionHash(_hash));\r\n        Elections.push(_hash);\r\n        return true;\r\n    }\r\n    \r\n    function getElection(address _add, uint _index) public view returns(string memory){\r\n        return OrganizerElections[_add][_index].hash;\r\n    }\r\n\r\n    function organizerElectionCount(address _add) public view returns(uint){\r\n        return OrganizerElections[_add].length;\r\n    } \r\n\r\n    function getElections(uint _index) public view returns(string memory){\r\n        return Elections[_index];\r\n    }\r\n\r\n    function electionsCount() public view returns(uint){\r\n        return Elections.length;\r\n    } \r\n\r\n    //******************************* functions for Candidates **************************\r\n\r\n    function setCandidateCredentials(string memory _username, string memory _hash) public {\r\n        CandidateCredentials[_username] = _hash;\r\n        CandidateUsername.push(_username);\r\n    }\r\n\r\n    function setCandidatePersonal(string memory _username, string memory _hash) public {\r\n        CandidatePersonal[_username] = _hash;\r\n    }\r\n\r\n    function getCandidateCredentials(string memory _username) public view returns(string memory){\r\n        return CandidateCredentials[_username];\r\n    }\r\n\r\n    function getCandidatePersonal(string memory _username) public view returns(string memory){\r\n        return CandidatePersonal[_username];\r\n    }\r\n\r\n    function getCandidatesCount() public view returns(uint){\r\n        return CandidateUsername.length;\r\n    }\r\n\r\n    function findCandidate(string memory _username) public view returns(bool){\r\n        for(uint i = 0; i <= CandidateUsername.length - 1; i++){\r\n            if(keccak256(abi.encodePacked(CandidateUsername[i])) == keccak256(abi.encodePacked(_username)))   return true;\r\n            else return false;\r\n        }\r\n    }\r\n\r\n    //********************************************* function for Election Requests *************************\r\n\r\n    function setRequest(string memory _username, string memory _electionHash, string memory _time, string memory _place, string memory _status) public {\r\n        CandidateRequests[_username].push(RequestHash(_username, _electionHash, _time, _place, _status));\r\n        ElectionRequests.push(RequestHash(_username, _electionHash, _time, _place, _status));\r\n    }\r\n\r\n    function getRequest(string memory _username, uint _index) public view returns(string memory, string memory, string memory, string memory, string memory){\r\n        return (\r\n                    CandidateRequests[_username][_index].username, \r\n                    CandidateRequests[_username][_index].electionHash, \r\n                    CandidateRequests[_username][_index].time, \r\n                    CandidateRequests[_username][_index].place, \r\n                    CandidateRequests[_username][_index].status\r\n                );\r\n    }\r\n\r\n    function candidateRequestsCount(string memory _username) public view returns(uint){\r\n        return CandidateRequests[_username].length;\r\n    }\r\n\r\n    function getAllRequest(uint _index) public view returns(string memory, string memory, string memory, string memory, string memory){\r\n        return (\r\n                    ElectionRequests[_index].username, \r\n                    ElectionRequests[_index].electionHash, \r\n                    ElectionRequests[_index].time, \r\n                    ElectionRequests[_index].place, \r\n                    ElectionRequests[_index].status\r\n                );\r\n    }\r\n\r\n    function requestsCount() public view returns(uint){\r\n        return ElectionRequests.length;\r\n    } \r\n\r\n    function updateRequestStatus(uint _allRequestIndex, uint _candidateRequestIndex, string memory _username, string memory _status) public {\r\n        ElectionRequests[_allRequestIndex].status = _status;\r\n        CandidateRequests[_username][_candidateRequestIndex].status = _status;\r\n    }\r\n\r\n    //**************************** function for selected Candidate of Election ***********************\r\n\r\n    function addCandidate(string memory _electionHash, string memory _username) public {\r\n        SelectedCandidates[_electionHash].push(CandidateOfElection(_username));\r\n    }\r\n\r\n    function countElectionCandidates(string memory _electionHash) public view returns(uint){\r\n       return SelectedCandidates[_electionHash].length;\r\n    }\r\n\r\n    function getSelectedCandidates(string memory _electionHash, uint _index) public view returns(string memory){\r\n       return SelectedCandidates[_electionHash][_index].username;\r\n    }\r\n}",
  "sourcePath": "C:/Users/Prateek Patel/Desktop/Dogovote3/DigiVote/contracts/Election.sol",
  "compiler": {
    "name": "solc",
    "version": "0.5.0+commit.1d4f565a.Emscripten.clang"
  },
  "schemaVersion": "3.0.2",
  "updatedAt": "2019-03-24T07:54:29.261Z",
  "devdoc": {
    "methods": {}
  },
  "userdoc": {
    "methods": {}
  }
}