{
  "contractName": "Election",
  "abi": [
    {
      "constant": true,
      "inputs": [
        {
          "name": "",
          "type": "uint256"
        }
      ],
      "name": "Elections",
      "outputs": [
        {
          "name": "",
          "type": "string"
        }
      ],
      "payable": false,
      "stateMutability": "view",
      "type": "function",
      "signature": "0x1e9598e2"
    },
    {
      "constant": true,
      "inputs": [
        {
          "name": "",
          "type": "uint256"
        }
      ],
      "name": "ElectionRequests",
      "outputs": [
        {
          "name": "username",
          "type": "string"
        },
        {
          "name": "electionHash",
          "type": "string"
        },
        {
          "name": "time",
          "type": "string"
        },
        {
          "name": "place",
          "type": "string"
        },
        {
          "name": "status",
          "type": "string"
        }
      ],
      "payable": false,
      "stateMutability": "view",
      "type": "function",
      "signature": "0x4f764622"
    },
    {
      "constant": false,
      "inputs": [
        {
          "name": "_username",
          "type": "string"
        },
        {
          "name": "_hash",
          "type": "string"
        }
      ],
      "name": "setOrganizerCredentials",
      "outputs": [],
      "payable": false,
      "stateMutability": "nonpayable",
      "type": "function",
      "signature": "0xc6954bb9"
    },
    {
      "constant": false,
      "inputs": [
        {
          "name": "_username",
          "type": "string"
        },
        {
          "name": "_hash",
          "type": "string"
        }
      ],
      "name": "setOrganizerPersonal",
      "outputs": [],
      "payable": false,
      "stateMutability": "nonpayable",
      "type": "function",
      "signature": "0x59b2dc85"
    },
    {
      "constant": true,
      "inputs": [
        {
          "name": "_username",
          "type": "string"
        }
      ],
      "name": "getOrganizerCredentials",
      "outputs": [
        {
          "name": "",
          "type": "string"
        }
      ],
      "payable": false,
      "stateMutability": "view",
      "type": "function",
      "signature": "0xa62a4b04"
    },
    {
      "constant": true,
      "inputs": [
        {
          "name": "_username",
          "type": "string"
        }
      ],
      "name": "getOrganizerPersonal",
      "outputs": [
        {
          "name": "",
          "type": "string"
        }
      ],
      "payable": false,
      "stateMutability": "view",
      "type": "function",
      "signature": "0xa97dd664"
    },
    {
      "constant": true,
      "inputs": [],
      "name": "getOrganizersCount",
      "outputs": [
        {
          "name": "",
          "type": "uint256"
        }
      ],
      "payable": false,
      "stateMutability": "view",
      "type": "function",
      "signature": "0x039f6ac2"
    },
    {
      "constant": true,
      "inputs": [
        {
          "name": "_username",
          "type": "string"
        }
      ],
      "name": "findOrganizer",
      "outputs": [
        {
          "name": "",
          "type": "bool"
        }
      ],
      "payable": false,
      "stateMutability": "view",
      "type": "function",
      "signature": "0x288cb036"
    },
    {
      "constant": false,
      "inputs": [
        {
          "name": "_add",
          "type": "address"
        },
        {
          "name": "_hash",
          "type": "string"
        }
      ],
      "name": "addElection",
      "outputs": [
        {
          "name": "",
          "type": "bool"
        }
      ],
      "payable": false,
      "stateMutability": "nonpayable",
      "type": "function",
      "signature": "0x584399ee"
    },
    {
      "constant": true,
      "inputs": [
        {
          "name": "_add",
          "type": "address"
        },
        {
          "name": "_index",
          "type": "uint256"
        }
      ],
      "name": "getElection",
      "outputs": [
        {
          "name": "",
          "type": "string"
        }
      ],
      "payable": false,
      "stateMutability": "view",
      "type": "function",
      "signature": "0xf0a1880a"
    },
    {
      "constant": true,
      "inputs": [
        {
          "name": "_add",
          "type": "address"
        }
      ],
      "name": "organizerElectionCount",
      "outputs": [
        {
          "name": "",
          "type": "uint256"
        }
      ],
      "payable": false,
      "stateMutability": "view",
      "type": "function",
      "signature": "0x3b76293d"
    },
    {
      "constant": true,
      "inputs": [
        {
          "name": "_index",
          "type": "uint256"
        }
      ],
      "name": "getElections",
      "outputs": [
        {
          "name": "",
          "type": "string"
        }
      ],
      "payable": false,
      "stateMutability": "view",
      "type": "function",
      "signature": "0xb1c0fbf6"
    },
    {
      "constant": true,
      "inputs": [],
      "name": "electionsCount",
      "outputs": [
        {
          "name": "",
          "type": "uint256"
        }
      ],
      "payable": false,
      "stateMutability": "view",
      "type": "function",
      "signature": "0x9a74c695"
    },
    {
      "constant": false,
      "inputs": [
        {
          "name": "_username",
          "type": "string"
        },
        {
          "name": "_hash",
          "type": "string"
        }
      ],
      "name": "setCandidateCredentials",
      "outputs": [],
      "payable": false,
      "stateMutability": "nonpayable",
      "type": "function",
      "signature": "0x877cef19"
    },
    {
      "constant": false,
      "inputs": [
        {
          "name": "_username",
          "type": "string"
        },
        {
          "name": "_hash",
          "type": "string"
        }
      ],
      "name": "setCandidatePersonal",
      "outputs": [],
      "payable": false,
      "stateMutability": "nonpayable",
      "type": "function",
      "signature": "0xd25d65c4"
    },
    {
      "constant": true,
      "inputs": [
        {
          "name": "_username",
          "type": "string"
        }
      ],
      "name": "getCandidateCredentials",
      "outputs": [
        {
          "name": "",
          "type": "string"
        }
      ],
      "payable": false,
      "stateMutability": "view",
      "type": "function",
      "signature": "0x4ae62591"
    },
    {
      "constant": true,
      "inputs": [
        {
          "name": "_username",
          "type": "string"
        }
      ],
      "name": "getCandidatePersonal",
      "outputs": [
        {
          "name": "",
          "type": "string"
        }
      ],
      "payable": false,
      "stateMutability": "view",
      "type": "function",
      "signature": "0x1d81955d"
    },
    {
      "constant": true,
      "inputs": [],
      "name": "getCandidatesCount",
      "outputs": [
        {
          "name": "",
          "type": "uint256"
        }
      ],
      "payable": false,
      "stateMutability": "view",
      "type": "function",
      "signature": "0xbb9aa28f"
    },
    {
      "constant": true,
      "inputs": [
        {
          "name": "_username",
          "type": "string"
        }
      ],
      "name": "findCandidate",
      "outputs": [
        {
          "name": "",
          "type": "bool"
        }
      ],
      "payable": false,
      "stateMutability": "view",
      "type": "function",
      "signature": "0x76830a0d"
    },
    {
      "constant": false,
      "inputs": [
        {
          "name": "_username",
          "type": "string"
        },
        {
          "name": "_electionHash",
          "type": "string"
        },
        {
          "name": "_time",
          "type": "string"
        },
        {
          "name": "_place",
          "type": "string"
        },
        {
          "name": "_status",
          "type": "string"
        }
      ],
      "name": "setRequest",
      "outputs": [],
      "payable": false,
      "stateMutability": "nonpayable",
      "type": "function",
      "signature": "0x27f8583c"
    },
    {
      "constant": true,
      "inputs": [
        {
          "name": "_username",
          "type": "string"
        },
        {
          "name": "_index",
          "type": "uint256"
        }
      ],
      "name": "getRequest",
      "outputs": [
        {
          "name": "",
          "type": "string"
        },
        {
          "name": "",
          "type": "string"
        },
        {
          "name": "",
          "type": "string"
        },
        {
          "name": "",
          "type": "string"
        },
        {
          "name": "",
          "type": "string"
        }
      ],
      "payable": false,
      "stateMutability": "view",
      "type": "function",
      "signature": "0xcf05ed42"
    },
    {
      "constant": true,
      "inputs": [
        {
          "name": "_username",
          "type": "string"
        }
      ],
      "name": "candidateRequestsCount",
      "outputs": [
        {
          "name": "",
          "type": "uint256"
        }
      ],
      "payable": false,
      "stateMutability": "view",
      "type": "function",
      "signature": "0xc85a2662"
    },
    {
      "constant": true,
      "inputs": [
        {
          "name": "_index",
          "type": "uint256"
        }
      ],
      "name": "getAllRequest",
      "outputs": [
        {
          "name": "",
          "type": "string"
        },
        {
          "name": "",
          "type": "string"
        },
        {
          "name": "",
          "type": "string"
        },
        {
          "name": "",
          "type": "string"
        },
        {
          "name": "",
          "type": "string"
        }
      ],
      "payable": false,
      "stateMutability": "view",
      "type": "function",
      "signature": "0x71190688"
    },
    {
      "constant": true,
      "inputs": [],
      "name": "requestsCount",
      "outputs": [
        {
          "name": "",
          "type": "uint256"
        }
      ],
      "payable": false,
      "stateMutability": "view",
      "type": "function",
      "signature": "0xfbfa4b7f"
    },
    {
      "constant": false,
      "inputs": [
        {
          "name": "_allRequestIndex",
          "type": "uint256"
        },
        {
          "name": "_candidateRequestIndex",
          "type": "uint256"
        },
        {
          "name": "_username",
          "type": "string"
        },
        {
          "name": "_status",
          "type": "string"
        }
      ],
      "name": "updateRequestStatus",
      "outputs": [],
      "payable": false,
      "stateMutability": "nonpayable",
      "type": "function",
      "signature": "0xd2532993"
    },
    {
      "constant": false,
      "inputs": [
        {
          "name": "_electionHash",
          "type": "string"
        },
        {
          "name": "_username",
          "type": "string"
        }
      ],
      "name": "addCandidate",
      "outputs": [],
      "payable": false,
      "stateMutability": "nonpayable",
      "type": "function",
      "signature": "0x26541b56"
    },
    {
      "constant": true,
      "inputs": [
        {
          "name": "_electionHash",
          "type": "string"
        }
      ],
      "name": "countElectionCandidates",
      "outputs": [
        {
          "name": "",
          "type": "uint256"
        }
      ],
      "payable": false,
      "stateMutability": "view",
      "type": "function",
      "signature": "0xf856c027"
    },
    {
      "constant": true,
      "inputs": [
        {
          "name": "_electionHash",
          "type": "string"
        },
        {
          "name": "_index",
          "type": "uint256"
        }
      ],
      "name": "getSelectedCandidates",
      "outputs": [
        {
          "name": "",
          "type": "string"
        }
      ],
      "payable": false,
      "stateMutability": "view",
      "type": "function",
      "signature": "0x751d09eb"
    },
    {
      "constant": false,
      "inputs": [
        {
          "name": "_electionHash",
          "type": "string"
        },
        {
          "name": "_username",
          "type": "string"
        },
        {
          "name": "_index",
          "type": "uint256"
        }
      ],
      "name": "voteSelectedCandidates",
      "outputs": [],
      "payable": false,
      "stateMutability": "nonpayable",
      "type": "function",
      "signature": "0xae842953"
    },
    {
      "constant": true,
      "inputs": [
        {
          "name": "_electionHash",
          "type": "string"
        }
      ],
      "name": "aadhaarCount",
      "outputs": [
        {
          "name": "",
          "type": "uint256"
        }
      ],
      "payable": false,
      "stateMutability": "view",
      "type": "function",
      "signature": "0x5752b7a3"
    },
    {
      "constant": true,
      "inputs": [
        {
          "name": "_electionHash",
          "type": "string"
        },
        {
          "name": "_index",
          "type": "uint256"
        }
      ],
      "name": "checkAadhaar",
      "outputs": [
        {
          "name": "",
          "type": "uint256"
        }
      ],
      "payable": false,
      "stateMutability": "view",
      "type": "function",
      "signature": "0x71fef2c7"
    },
    {
      "constant": false,
      "inputs": [
        {
          "name": "_electionHash",
          "type": "string"
        },
        {
          "name": "_aadhaar",
          "type": "uint256"
        }
      ],
      "name": "addAadhaar",
      "outputs": [],
      "payable": false,
      "stateMutability": "nonpayable",
      "type": "function",
      "signature": "0x40916f17"
    },
    {
      "constant": false,
      "inputs": [
        {
          "name": "_voterHash",
          "type": "string"
        },
        {
          "name": "_add",
          "type": "address"
        },
        {
          "name": "_password",
          "type": "string"
        }
      ],
      "name": "addVoterAccount",
      "outputs": [],
      "payable": false,
      "stateMutability": "nonpayable",
      "type": "function",
      "signature": "0xca9d5e74"
    },
    {
      "constant": true,
      "inputs": [
        {
          "name": "_voterHash",
          "type": "string"
        }
      ],
      "name": "getVoterAccount",
      "outputs": [
        {
          "name": "",
          "type": "address"
        },
        {
          "name": "",
          "type": "string"
        }
      ],
      "payable": false,
      "stateMutability": "view",
      "type": "function",
      "signature": "0x4d539b7d"
    },
    {
      "constant": false,
      "inputs": [
        {
          "name": "_electionHash",
          "type": "string"
        },
        {
          "name": "_voterHash",
          "type": "string"
        }
      ],
      "name": "addVoterToElection",
      "outputs": [],
      "payable": false,
      "stateMutability": "nonpayable",
      "type": "function",
      "signature": "0x5e737393"
    },
    {
      "constant": true,
      "inputs": [
        {
          "name": "_electionHash",
          "type": "string"
        },
        {
          "name": "_index",
          "type": "uint256"
        }
      ],
      "name": "getVoterToElection",
      "outputs": [
        {
          "name": "",
          "type": "string"
        }
      ],
      "payable": false,
      "stateMutability": "view",
      "type": "function",
      "signature": "0xa732f1f1"
    }
  ],
  "bytecode": "0x608060405234801561001057600080fd5b5061583080620000216000396000f3fe6080604052600436106101c2576000357c0100000000000000000000000000000000000000000000000000000000900463ffffffff168063039f6ac2146101c75780631d81955d146101f25780631e9598e21461033357806326541b56146103e757806327f8583c14610546578063288cb0361461086a5780633b76293d1461094a57806340916f17146109af5780634ae6259114610a815780634d539b7d14610bc25780634f76462214610d365780635752b7a314610f9a578063584399ee1461107657806359b2dc85146111765780635e737393146112d5578063711906881461143457806371fef2c714611698578063751d09eb1461177e57806376830a0d146118c9578063877cef19146119a95780639a74c69514611b08578063a62a4b0414611b33578063a732f1f114611c74578063a97dd66414611dbf578063ae84295314611f00578063b1c0fbf614612069578063bb9aa28f1461211d578063c6954bb914612148578063c85a2662146122a7578063ca9d5e7414612383578063cf05ed4214612502578063d2532993146127fd578063d25d65c414612970578063f0a1880a14612acf578063f856c02714612ba3578063fbfa4b7f14612c7f575b600080fd5b3480156101d357600080fd5b506101dc612caa565b6040518082815260200191505060405180910390f35b3480156101fe57600080fd5b506102b86004803603602081101561021557600080fd5b810190808035906020019064010000000081111561023257600080fd5b82018360208201111561024457600080fd5b8035906020019184600183028401116401000000008311171561026657600080fd5b91908080601f016020809104026020016040519081016040528093929190818152602001838380828437600081840152601f19601f820116905080830192505050505050509192919290505050612cb7565b6040518080602001828103825283818151815260200191508051906020019080838360005b838110156102f85780820151818401526020810190506102dd565b50505050905090810190601f1680156103255780820380516001836020036101000a031916815260200191505b509250505060405180910390f35b34801561033f57600080fd5b5061036c6004803603602081101561035657600080fd5b8101908080359060200190929190505050612dc4565b6040518080602001828103825283818151815260200191508051906020019080838360005b838110156103ac578082015181840152602081019050610391565b50505050905090810190601f1680156103d95780820380516001836020036101000a031916815260200191505b509250505060405180910390f35b3480156103f357600080fd5b506105446004803603604081101561040a57600080fd5b810190808035906020019064010000000081111561042757600080fd5b82018360208201111561043957600080fd5b8035906020019184600183028401116401000000008311171561045b57600080fd5b91908080601f016020809104026020016040519081016040528093929190818152602001838380828437600081840152601f19601f820116905080830192505050505050509192919290803590602001906401000000008111156104be57600080fd5b8201836020820111156104d057600080fd5b803590602001918460018302840111640100000000831117156104f257600080fd5b91908080601f016020809104026020016040519081016040528093929190818152602001838380828437600081840152601f19601f820116905080830192505050505050509192919290505050612e7f565b005b34801561055257600080fd5b50610868600480360360a081101561056957600080fd5b810190808035906020019064010000000081111561058657600080fd5b82018360208201111561059857600080fd5b803590602001918460018302840111640100000000831117156105ba57600080fd5b91908080601f016020809104026020016040519081016040528093929190818152602001838380828437600081840152601f19601f8201169050808301925050505050505091929192908035906020019064010000000081111561061d57600080fd5b82018360208201111561062f57600080fd5b8035906020019184600183028401116401000000008311171561065157600080fd5b91908080601f016020809104026020016040519081016040528093929190818152602001838380828437600081840152601f19601f820116905080830192505050505050509192919290803590602001906401000000008111156106b457600080fd5b8201836020820111156106c657600080fd5b803590602001918460018302840111640100000000831117156106e857600080fd5b91908080601f016020809104026020016040519081016040528093929190818152602001838380828437600081840152601f19601f8201169050808301925050505050505091929192908035906020019064010000000081111561074b57600080fd5b82018360208201111561075d57600080fd5b8035906020019184600183028401116401000000008311171561077f57600080fd5b91908080601f016020809104026020016040519081016040528093929190818152602001838380828437600081840152601f19601f820116905080830192505050505050509192919290803590602001906401000000008111156107e257600080fd5b8201836020820111156107f457600080fd5b8035906020019184600183028401116401000000008311171561081657600080fd5b91908080601f016020809104026020016040519081016040528093929190818152602001838380828437600081840152601f19601f820116905080830192505050505050509192919290505050612f59565b005b34801561087657600080fd5b506109306004803603602081101561088d57600080fd5b81019080803590602001906401000000008111156108aa57600080fd5b8201836020820111156108bc57600080fd5b803590602001918460018302840111640100000000831117156108de57600080fd5b91908080601f016020809104026020016040519081016040528093929190818152602001838380828437600081840152601f19601f82011690508083019250505050505050919291929050505061319b565b604051808215151515815260200191505060405180910390f35b34801561095657600080fd5b506109996004803603602081101561096d57600080fd5b81019080803573ffffffffffffffffffffffffffffffffffffffff1690602001909291905050506132da565b6040518082815260200191505060405180910390f35b3480156109bb57600080fd5b50610a7f600480360360408110156109d257600080fd5b81019080803590602001906401000000008111156109ef57600080fd5b820183602082011115610a0157600080fd5b80359060200191846001830284011164010000000083111715610a2357600080fd5b91908080601f016020809104026020016040519081016040528093929190818152602001838380828437600081840152601f19601f82011690508083019250505050505050919291929080359060200190929190505050613326565b005b348015610a8d57600080fd5b50610b4760048036036020811015610aa457600080fd5b8101908080359060200190640100000000811115610ac157600080fd5b820183602082011115610ad357600080fd5b80359060200191846001830284011164010000000083111715610af557600080fd5b91908080601f016020809104026020016040519081016040528093929190818152602001838380828437600081840152601f19601f8201169050808301925050505050505091929192905050506133d9565b6040518080602001828103825283818151815260200191508051906020019080838360005b83811015610b87578082015181840152602081019050610b6c565b50505050905090810190601f168015610bb45780820380516001836020036101000a031916815260200191505b509250505060405180910390f35b348015610bce57600080fd5b50610c8860048036036020811015610be557600080fd5b8101908080359060200190640100000000811115610c0257600080fd5b820183602082011115610c1457600080fd5b80359060200191846001830284011164010000000083111715610c3657600080fd5b91908080601f016020809104026020016040519081016040528093929190818152602001838380828437600081840152601f19601f8201169050808301925050505050505091929192905050506134e6565b604051808373ffffffffffffffffffffffffffffffffffffffff1673ffffffffffffffffffffffffffffffffffffffff16815260200180602001828103825283818151815260200191508051906020019080838360005b83811015610cfa578082015181840152602081019050610cdf565b50505050905090810190601f168015610d275780820380516001836020036101000a031916815260200191505b50935050505060405180910390f35b348015610d4257600080fd5b50610d6f60048036036020811015610d5957600080fd5b810190808035906020019092919050505061368c565b60405180806020018060200180602001806020018060200186810386528b818151815260200191508051906020019080838360005b83811015610dbf578082015181840152602081019050610da4565b50505050905090810190601f168015610dec5780820380516001836020036101000a031916815260200191505b5086810385528a818151815260200191508051906020019080838360005b83811015610e25578082015181840152602081019050610e0a565b50505050905090810190601f168015610e525780820380516001836020036101000a031916815260200191505b50868103845289818151815260200191508051906020019080838360005b83811015610e8b578082015181840152602081019050610e70565b50505050905090810190601f168015610eb85780820380516001836020036101000a031916815260200191505b50868103835288818151815260200191508051906020019080838360005b83811015610ef1578082015181840152602081019050610ed6565b50505050905090810190601f168015610f1e5780820380516001836020036101000a031916815260200191505b50868103825287818151815260200191508051906020019080838360005b83811015610f57578082015181840152602081019050610f3c565b50505050905090810190601f168015610f845780820380516001836020036101000a031916815260200191505b509a505050505050505050505060405180910390f35b348015610fa657600080fd5b5061106060048036036020811015610fbd57600080fd5b8101908080359060200190640100000000811115610fda57600080fd5b820183602082011115610fec57600080fd5b8035906020019184600183028401116401000000008311171561100e57600080fd5b91908080601f016020809104026020016040519081016040528093929190818152602001838380828437600081840152601f19601f8201169050808301925050505050505091929192905050506139c9565b6040518082815260200191505060405180910390f35b34801561108257600080fd5b5061115c6004803603604081101561109957600080fd5b81019080803573ffffffffffffffffffffffffffffffffffffffff169060200190929190803590602001906401000000008111156110d657600080fd5b8201836020820111156110e857600080fd5b8035906020019184600183028401116401000000008311171561110a57600080fd5b91908080601f016020809104026020016040519081016040528093929190818152602001838380828437600081840152601f19601f820116905080830192505050505050509192919290505050613a41565b604051808215151515815260200191505060405180910390f35b34801561118257600080fd5b506112d36004803603604081101561119957600080fd5b81019080803590602001906401000000008111156111b657600080fd5b8201836020820111156111c857600080fd5b803590602001918460018302840111640100000000831117156111ea57600080fd5b91908080601f016020809104026020016040519081016040528093929190818152602001838380828437600081840152601f19601f8201169050808301925050505050505091929192908035906020019064010000000081111561124d57600080fd5b82018360208201111561125f57600080fd5b8035906020019184600183028401116401000000008311171561128157600080fd5b91908080601f016020809104026020016040519081016040528093929190818152602001838380828437600081840152601f19601f820116905080830192505050505050509192919290505050613cd7565b005b3480156112e157600080fd5b50611432600480360360408110156112f857600080fd5b810190808035906020019064010000000081111561131557600080fd5b82018360208201111561132757600080fd5b8035906020019184600183028401116401000000008311171561134957600080fd5b91908080601f016020809104026020016040519081016040528093929190818152602001838380828437600081840152601f19601f820116905080830192505050505050509192919290803590602001906401000000008111156113ac57600080fd5b8201836020820111156113be57600080fd5b803590602001918460018302840111640100000000831117156113e057600080fd5b91908080601f016020809104026020016040519081016040528093929190818152602001838380828437600081840152601f19601f820116905080830192505050505050509192919290505050613d5b565b005b34801561144057600080fd5b5061146d6004803603602081101561145757600080fd5b8101908080359060200190929190505050613e21565b60405180806020018060200180602001806020018060200186810386528b818151815260200191508051906020019080838360005b838110156114bd5780820151818401526020810190506114a2565b50505050905090810190601f1680156114ea5780820380516001836020036101000a031916815260200191505b5086810385528a818151815260200191508051906020019080838360005b83811015611523578082015181840152602081019050611508565b50505050905090810190601f1680156115505780820380516001836020036101000a031916815260200191505b50868103845289818151815260200191508051906020019080838360005b8381101561158957808201518184015260208101905061156e565b50505050905090810190601f1680156115b65780820380516001836020036101000a031916815260200191505b50868103835288818151815260200191508051906020019080838360005b838110156115ef5780820151818401526020810190506115d4565b50505050905090810190601f16801561161c5780820380516001836020036101000a031916815260200191505b50868103825287818151815260200191508051906020019080838360005b8381101561165557808201518184015260208101905061163a565b50505050905090810190601f1680156116825780820380516001836020036101000a031916815260200191505b509a505050505050505050505060405180910390f35b3480156116a457600080fd5b50611768600480360360408110156116bb57600080fd5b81019080803590602001906401000000008111156116d857600080fd5b8201836020820111156116ea57600080fd5b8035906020019184600183028401116401000000008311171561170c57600080fd5b91908080601f016020809104026020016040519081016040528093929190818152602001838380828437600081840152601f19601f820116905080830192505050505050509192919290803590602001909291905050506141e8565b6040518082815260200191505060405180910390f35b34801561178a57600080fd5b5061184e600480360360408110156117a157600080fd5b81019080803590602001906401000000008111156117be57600080fd5b8201836020820111156117d057600080fd5b803590602001918460018302840111640100000000831117156117f257600080fd5b91908080601f016020809104026020016040519081016040528093929190818152602001838380828437600081840152601f19601f82011690508083019250505050505050919291929080359060200190929190505050614278565b6040518080602001828103825283818151815260200191508051906020019080838360005b8381101561188e578082015181840152602081019050611873565b50505050905090810190601f1680156118bb5780820380516001836020036101000a031916815260200191505b509250505060405180910390f35b3480156118d557600080fd5b5061198f600480360360208110156118ec57600080fd5b810190808035906020019064010000000081111561190957600080fd5b82018360208201111561191b57600080fd5b8035906020019184600183028401116401000000008311171561193d57600080fd5b91908080601f016020809104026020016040519081016040528093929190818152602001838380828437600081840152601f19601f8201169050808301925050505050505091929192905050506143a4565b604051808215151515815260200191505060405180910390f35b3480156119b557600080fd5b50611b06600480360360408110156119cc57600080fd5b81019080803590602001906401000000008111156119e957600080fd5b8201836020820111156119fb57600080fd5b80359060200191846001830284011164010000000083111715611a1d57600080fd5b91908080601f016020809104026020016040519081016040528093929190818152602001838380828437600081840152601f19601f82011690508083019250505050505050919291929080359060200190640100000000811115611a8057600080fd5b820183602082011115611a9257600080fd5b80359060200191846001830284011164010000000083111715611ab457600080fd5b91908080601f016020809104026020016040519081016040528093929190818152602001838380828437600081840152601f19601f8201169050808301925050505050505091929192905050506144e8565b005b348015611b1457600080fd5b50611b1d6145ab565b6040518082815260200191505060405180910390f35b348015611b3f57600080fd5b50611bf960048036036020811015611b5657600080fd5b8101908080359060200190640100000000811115611b7357600080fd5b820183602082011115611b8557600080fd5b80359060200191846001830284011164010000000083111715611ba757600080fd5b91908080601f016020809104026020016040519081016040528093929190818152602001838380828437600081840152601f19601f8201169050808301925050505050505091929192905050506145b8565b6040518080602001828103825283818151815260200191508051906020019080838360005b83811015611c39578082015181840152602081019050611c1e565b50505050905090810190601f168015611c665780820380516001836020036101000a031916815260200191505b509250505060405180910390f35b348015611c8057600080fd5b50611d4460048036036040811015611c9757600080fd5b8101908080359060200190640100000000811115611cb457600080fd5b820183602082011115611cc657600080fd5b80359060200191846001830284011164010000000083111715611ce857600080fd5b91908080601f016020809104026020016040519081016040528093929190818152602001838380828437600081840152601f19601f820116905080830192505050505050509192919290803590602001909291905050506146c5565b6040518080602001828103825283818151815260200191508051906020019080838360005b83811015611d84578082015181840152602081019050611d69565b50505050905090810190601f168015611db15780820380516001836020036101000a031916815260200191505b509250505060405180910390f35b348015611dcb57600080fd5b50611e8560048036036020811015611de257600080fd5b8101908080359060200190640100000000811115611dff57600080fd5b820183602082011115611e1157600080fd5b80359060200191846001830284011164010000000083111715611e3357600080fd5b91908080601f016020809104026020016040519081016040528093929190818152602001838380828437600081840152601f19601f8201169050808301925050505050505091929192905050506147ed565b6040518080602001828103825283818151815260200191508051906020019080838360005b83811015611ec5578082015181840152602081019050611eaa565b50505050905090810190601f168015611ef25780820380516001836020036101000a031916815260200191505b509250505060405180910390f35b348015611f0c57600080fd5b5061206760048036036060811015611f2357600080fd5b8101908080359060200190640100000000811115611f4057600080fd5b820183602082011115611f5257600080fd5b80359060200191846001830284011164010000000083111715611f7457600080fd5b91908080601f016020809104026020016040519081016040528093929190818152602001838380828437600081840152601f19601f82011690508083019250505050505050919291929080359060200190640100000000811115611fd757600080fd5b820183602082011115611fe957600080fd5b8035906020019184600183028401116401000000008311171561200b57600080fd5b91908080601f016020809104026020016040519081016040528093929190818152602001838380828437600081840152601f19601f820116905080830192505050505050509192919290803590602001909291905050506148fa565b005b34801561207557600080fd5b506120a26004803603602081101561208c57600080fd5b8101908080359060200190929190505050614a8b565b6040518080602001828103825283818151815260200191508051906020019080838360005b838110156120e25780820151818401526020810190506120c7565b50505050905090810190601f16801561210f5780820380516001836020036101000a031916815260200191505b509250505060405180910390f35b34801561212957600080fd5b50612132614b46565b6040518082815260200191505060405180910390f35b34801561215457600080fd5b506122a56004803603604081101561216b57600080fd5b810190808035906020019064010000000081111561218857600080fd5b82018360208201111561219a57600080fd5b803590602001918460018302840111640100000000831117156121bc57600080fd5b91908080601f016020809104026020016040519081016040528093929190818152602001838380828437600081840152601f19601f8201169050808301925050505050505091929192908035906020019064010000000081111561221f57600080fd5b82018360208201111561223157600080fd5b8035906020019184600183028401116401000000008311171561225357600080fd5b91908080601f016020809104026020016040519081016040528093929190818152602001838380828437600081840152601f19601f820116905080830192505050505050509192919290505050614b53565b005b3480156122b357600080fd5b5061236d600480360360208110156122ca57600080fd5b81019080803590602001906401000000008111156122e757600080fd5b8201836020820111156122f957600080fd5b8035906020019184600183028401116401000000008311171561231b57600080fd5b91908080601f016020809104026020016040519081016040528093929190818152602001838380828437600081840152601f19601f820116905080830192505050505050509192919290505050614c16565b6040518082815260200191505060405180910390f35b34801561238f57600080fd5b50612500600480360360608110156123a657600080fd5b81019080803590602001906401000000008111156123c357600080fd5b8201836020820111156123d557600080fd5b803590602001918460018302840111640100000000831117156123f757600080fd5b91908080601f016020809104026020016040519081016040528093929190818152602001838380828437600081840152601f19601f820116905080830192505050505050509192919290803573ffffffffffffffffffffffffffffffffffffffff1690602001909291908035906020019064010000000081111561247a57600080fd5b82018360208201111561248c57600080fd5b803590602001918460018302840111640100000000831117156124ae57600080fd5b91908080601f016020809104026020016040519081016040528093929190818152602001838380828437600081840152601f19601f820116905080830192505050505050509192919290505050614c8e565b005b34801561250e57600080fd5b506125d26004803603604081101561252557600080fd5b810190808035906020019064010000000081111561254257600080fd5b82018360208201111561255457600080fd5b8035906020019184600183028401116401000000008311171561257657600080fd5b91908080601f016020809104026020016040519081016040528093929190818152602001838380828437600081840152601f19601f82011690508083019250505050505050919291929080359060200190929190505050614d90565b60405180806020018060200180602001806020018060200186810386528b818151815260200191508051906020019080838360005b83811015612622578082015181840152602081019050612607565b50505050905090810190601f16801561264f5780820380516001836020036101000a031916815260200191505b5086810385528a818151815260200191508051906020019080838360005b8381101561268857808201518184015260208101905061266d565b50505050905090810190601f1680156126b55780820380516001836020036101000a031916815260200191505b50868103845289818151815260200191508051906020019080838360005b838110156126ee5780820151818401526020810190506126d3565b50505050905090810190601f16801561271b5780820380516001836020036101000a031916815260200191505b50868103835288818151815260200191508051906020019080838360005b83811015612754578082015181840152602081019050612739565b50505050905090810190601f1680156127815780820380516001836020036101000a031916815260200191505b50868103825287818151815260200191508051906020019080838360005b838110156127ba57808201518184015260208101905061279f565b50505050905090810190601f1680156127e75780820380516001836020036101000a031916815260200191505b509a505050505050505050505060405180910390f35b34801561280957600080fd5b5061296e6004803603608081101561282057600080fd5b8101908080359060200190929190803590602001909291908035906020019064010000000081111561285157600080fd5b82018360208201111561286357600080fd5b8035906020019184600183028401116401000000008311171561288557600080fd5b91908080601f016020809104026020016040519081016040528093929190818152602001838380828437600081840152601f19601f820116905080830192505050505050509192919290803590602001906401000000008111156128e857600080fd5b8201836020820111156128fa57600080fd5b8035906020019184600183028401116401000000008311171561291c57600080fd5b91908080601f016020809104026020016040519081016040528093929190818152602001838380828437600081840152601f19601f820116905080830192505050505050509192919290505050615365565b005b34801561297c57600080fd5b50612acd6004803603604081101561299357600080fd5b81019080803590602001906401000000008111156129b057600080fd5b8201836020820111156129c257600080fd5b803590602001918460018302840111640100000000831117156129e457600080fd5b91908080601f016020809104026020016040519081016040528093929190818152602001838380828437600081840152601f19601f82011690508083019250505050505050919291929080359060200190640100000000811115612a4757600080fd5b820183602082011115612a5957600080fd5b80359060200191846001830284011164010000000083111715612a7b57600080fd5b91908080601f016020809104026020016040519081016040528093929190818152602001838380828437600081840152601f19601f82011690508083019250505050505050919291929050505061543e565b005b348015612adb57600080fd5b50612b2860048036036040811015612af257600080fd5b81019080803573ffffffffffffffffffffffffffffffffffffffff169060200190929190803590602001909291905050506154c2565b6040518080602001828103825283818151815260200191508051906020019080838360005b83811015612b68578082015181840152602081019050612b4d565b50505050905090810190601f168015612b955780820380516001836020036101000a031916815260200191505b509250505060405180910390f35b348015612baf57600080fd5b50612c6960048036036020811015612bc657600080fd5b8101908080359060200190640100000000811115612be357600080fd5b820183602082011115612bf557600080fd5b80359060200191846001830284011164010000000083111715612c1757600080fd5b91908080601f016020809104026020016040519081016040528093929190818152602001838380828437600081840152601f19601f8201169050808301925050505050505091929192905050506155be565b6040518082815260200191505060405180910390f35b348015612c8b57600080fd5b50612c94615636565b6040518082815260200191505060405180910390f35b6000600280549050905090565b60606004826040518082805190602001908083835b602083101515612cf15780518252602082019150602081019050602083039250612ccc565b6001836020036101000a03801982511681845116808217855250505050505090500191505090815260200160405180910390208054600181600116156101000203166002900480601f016020809104026020016040519081016040528092919081815260200182805460018160011615610100020316600290048015612db85780601f10612d8d57610100808354040283529160200191612db8565b820191906000526020600020905b815481529060010190602001808311612d9b57829003601f168201915b50505050509050919050565b600781815481101515612dd357fe5b906000526020600020016000915090508054600181600116156101000203166002900480601f016020809104026020016040519081016040528092919081815260200182805460018160011615610100020316600290048015612e775780601f10612e4c57610100808354040283529160200191612e77565b820191906000526020600020905b815481529060010190602001808311612e5a57829003601f168201915b505050505081565b600a826040518082805190602001908083835b602083101515612eb75780518252602082019150602081019050602083039250612e92565b6001836020036101000a038019825116818451168082178552505050505050905001915050908152602001604051809103902060408051908101604052808381526020016000815250908060018154018082558091505090600182039060005260206000209060020201600090919290919091506000820151816000019080519060200190612f479291906156df565b50602082015181600101555050505050565b6008856040518082805190602001908083835b602083101515612f915780518252602082019150602081019050602083039250612f6c565b6001836020036101000a038019825116818451168082178552505050505050905001915050908152602001604051809103902060a060405190810160405280878152602001868152602001858152602001848152602001838152509080600181540180825580915050906001820390600052602060002090600502016000909192909190915060008201518160000190805190602001906130339291906156df565b5060208201518160010190805190602001906130509291906156df565b50604082015181600201908051906020019061306d9291906156df565b50606082015181600301908051906020019061308a9291906156df565b5060808201518160040190805190602001906130a79291906156df565b50505050600960a0604051908101604052808781526020018681526020018581526020018481526020018381525090806001815401808255809150509060018203906000526020600020906005020160009091929091909150600082015181600001908051906020019061311c9291906156df565b5060208201518160010190805190602001906131399291906156df565b5060408201518160020190805190602001906131569291906156df565b5060608201518160030190805190602001906131739291906156df565b5060808201518160040190805190602001906131909291906156df565b505050505050505050565b60008060009050600160028054905003811115156132d357826040516020018082805190602001908083835b6020831015156131ec57805182526020820191506020810190506020830392506131c7565b6001836020036101000a0380198251168184511680821785525050505050509050019150506040516020818303038152906040528051906020012060028281548110151561323657fe5b90600052602060002001604051602001808280546001816001161561010002031660029004801561329e5780601f1061327c57610100808354040283529182019161329e565b820191906000526020600020905b81548152906001019060200180831161328a575b50509150506040516020818303038152906040528051906020012014156132c95760019150506132d5565b60009150506132d5565b505b919050565b6000600660008373ffffffffffffffffffffffffffffffffffffffff1673ffffffffffffffffffffffffffffffffffffffff168152602001908152602001600020805490509050919050565b600d826040518082805190602001908083835b60208310151561335e5780518252602082019150602081019050602083039250613339565b6001836020036101000a038019825116818451168082178552505050505050905001915050908152602001604051809103902060206040519081016040528083815250908060018154018082558091505090600182039060005260206000200160009091929091909150600082015181600001555050505050565b60606003826040518082805190602001908083835b60208310151561341357805182526020820191506020810190506020830392506133ee565b6001836020036101000a03801982511681845116808217855250505050505090500191505090815260200160405180910390208054600181600116156101000203166002900480601f0160208091040260200160405190810160405280929190818152602001828054600181600116156101000203166002900480156134da5780601f106134af576101008083540402835291602001916134da565b820191906000526020600020905b8154815290600101906020018083116134bd57829003601f168201915b50505050509050919050565b60006060600c836040518082805190602001908083835b60208310151561352257805182526020820191506020810190506020830392506134fd565b6001836020036101000a038019825116818451168082178552505050505050905001915050908152602001604051809103902060000160009054906101000a900473ffffffffffffffffffffffffffffffffffffffff16600c846040518082805190602001908083835b6020831015156135b1578051825260208201915060208101905060208303925061358c565b6001836020036101000a0380198251168184511680821785525050505050509050019150509081526020016040518091039020600101808054600181600116156101000203166002900480601f01602080910402602001604051908101604052809291908181526020018280546001816001161561010002031660029004801561367c5780601f106136515761010080835404028352916020019161367c565b820191906000526020600020905b81548152906001019060200180831161365f57829003601f168201915b5050505050905091509150915091565b60098181548110151561369b57fe5b9060005260206000209060050201600091509050806000018054600181600116156101000203166002900480601f0160208091040260200160405190810160405280929190818152602001828054600181600116156101000203166002900480156137475780601f1061371c57610100808354040283529160200191613747565b820191906000526020600020905b81548152906001019060200180831161372a57829003601f168201915b505050505090806001018054600181600116156101000203166002900480601f0160208091040260200160405190810160405280929190818152602001828054600181600116156101000203166002900480156137e55780601f106137ba576101008083540402835291602001916137e5565b820191906000526020600020905b8154815290600101906020018083116137c857829003601f168201915b505050505090806002018054600181600116156101000203166002900480601f0160208091040260200160405190810160405280929190818152602001828054600181600116156101000203166002900480156138835780601f1061385857610100808354040283529160200191613883565b820191906000526020600020905b81548152906001019060200180831161386657829003601f168201915b505050505090806003018054600181600116156101000203166002900480601f0160208091040260200160405190810160405280929190818152602001828054600181600116156101000203166002900480156139215780601f106138f657610100808354040283529160200191613921565b820191906000526020600020905b81548152906001019060200180831161390457829003601f168201915b505050505090806004018054600181600116156101000203166002900480601f0160208091040260200160405190810160405280929190818152602001828054600181600116156101000203166002900480156139bf5780601f10613994576101008083540402835291602001916139bf565b820191906000526020600020905b8154815290600101906020018083116139a257829003601f168201915b5050505050905085565b6000600d826040518082805190602001908083835b602083101515613a0357805182526020820191506020810190506020830392506139de565b6001836020036101000a0380198251168184511680821785525050505050509050019150509081526020016040518091039020805490509050919050565b600080600090505b600660008573ffffffffffffffffffffffffffffffffffffffff1673ffffffffffffffffffffffffffffffffffffffff16815260200190815260200160002080549050811015613bf657600660008573ffffffffffffffffffffffffffffffffffffffff1673ffffffffffffffffffffffffffffffffffffffff16815260200190815260200160002081815481101515613adf57fe5b906000526020600020016000016040516020018082805460018160011615610100020316600290048015613b4a5780601f10613b28576101008083540402835291820191613b4a565b820191906000526020600020905b815481529060010190602001808311613b36575b505091505060405160208183030381529060405280519060200120836040516020018082805190602001908083835b602083101515613b9e5780518252602082019150602081019050602083039250613b79565b6001836020036101000a038019825116818451168082178552505050505050905001915050604051602081830303815290604052805190602001201415613be9576000915050613cd1565b8080600101915050613a49565b50600660008473ffffffffffffffffffffffffffffffffffffffff1673ffffffffffffffffffffffffffffffffffffffff168152602001908152602001600020602060405190810160405280848152509080600181540180825580915050906001820390600052602060002001600090919290919091506000820151816000019080519060200190613c899291906156df565b505050506007829080600181540180825580915050906001820390600052602060002001600090919290919091509080519060200190613cca92919061575f565b5050600190505b92915050565b806001836040518082805190602001908083835b602083101515613d105780518252602082019150602081019050602083039250613ceb565b6001836020036101000a03801982511681845116808217855250505050505090500191505090815260200160405180910390209080519060200190613d5692919061575f565b505050565b600b826040518082805190602001908083835b602083101515613d935780518252602082019150602081019050602083039250613d6e565b6001836020036101000a0380198251168184511680821785525050505050509050019150509081526020016040518091039020602060405190810160405280838152509080600181540180825580915050906001820390600052602060002001600090919290919091506000820151816000019080519060200190613e199291906156df565b505050505050565b6060806060806060600986815481101515613e3857fe5b9060005260206000209060050201600001600987815481101515613e5857fe5b9060005260206000209060050201600101600988815481101515613e7857fe5b9060005260206000209060050201600201600989815481101515613e9857fe5b906000526020600020906005020160030160098a815481101515613eb857fe5b9060005260206000209060050201600401848054600181600116156101000203166002900480601f016020809104026020016040519081016040528092919081815260200182805460018160011615610100020316600290048015613f5e5780601f10613f3357610100808354040283529160200191613f5e565b820191906000526020600020905b815481529060010190602001808311613f4157829003601f168201915b50505050509450838054600181600116156101000203166002900480601f016020809104026020016040519081016040528092919081815260200182805460018160011615610100020316600290048015613ffa5780601f10613fcf57610100808354040283529160200191613ffa565b820191906000526020600020905b815481529060010190602001808311613fdd57829003601f168201915b50505050509350828054600181600116156101000203166002900480601f0160208091040260200160405190810160405280929190818152602001828054600181600116156101000203166002900480156140965780601f1061406b57610100808354040283529160200191614096565b820191906000526020600020905b81548152906001019060200180831161407957829003601f168201915b50505050509250818054600181600116156101000203166002900480601f0160208091040260200160405190810160405280929190818152602001828054600181600116156101000203166002900480156141325780601f1061410757610100808354040283529160200191614132565b820191906000526020600020905b81548152906001019060200180831161411557829003601f168201915b50505050509150808054600181600116156101000203166002900480601f0160208091040260200160405190810160405280929190818152602001828054600181600116156101000203166002900480156141ce5780601f106141a3576101008083540402835291602001916141ce565b820191906000526020600020905b8154815290600101906020018083116141b157829003601f168201915b505050505090509450945094509450945091939590929450565b6000600d836040518082805190602001908083835b60208310151561422257805182526020820191506020810190506020830392506141fd565b6001836020036101000a03801982511681845116808217855250505050505090500191505090815260200160405180910390208281548110151561426257fe5b9060005260206000200160000154905092915050565b6060600a836040518082805190602001908083835b6020831015156142b2578051825260208201915060208101905060208303925061428d565b6001836020036101000a0380198251168184511680821785525050505050509050019150509081526020016040518091039020828154811015156142f257fe5b90600052602060002090600202016000018054600181600116156101000203166002900480601f0160208091040260200160405190810160405280929190818152602001828054600181600116156101000203166002900480156143975780601f1061436c57610100808354040283529160200191614397565b820191906000526020600020905b81548152906001019060200180831161437a57829003601f168201915b5050505050905092915050565b600080600090505b600580549050811115156144dd57826040516020018082805190602001908083835b6020831015156143f357805182526020820191506020810190506020830392506143ce565b6001836020036101000a0380198251168184511680821785525050505050509050019150506040516020818303038152906040528051906020012060058281548110151561443d57fe5b9060005260206000200160405160200180828054600181600116156101000203166002900480156144a55780601f106144835761010080835404028352918201916144a5565b820191906000526020600020905b815481529060010190602001808311614491575b50509150506040516020818303038152906040528051906020012014156144d05760019150506144e3565b80806001019150506143ac565b50600090505b919050565b806003836040518082805190602001908083835b60208310151561452157805182526020820191506020810190506020830392506144fc565b6001836020036101000a0380198251168184511680821785525050505050509050019150509081526020016040518091039020908051906020019061456792919061575f565b5060058290806001815401808255809150509060018203906000526020600020016000909192909190915090805190602001906145a592919061575f565b50505050565b6000600780549050905090565b60606000826040518082805190602001908083835b6020831015156145f257805182526020820191506020810190506020830392506145cd565b6001836020036101000a03801982511681845116808217855250505050505090500191505090815260200160405180910390208054600181600116156101000203166002900480601f0160208091040260200160405190810160405280929190818152602001828054600181600116156101000203166002900480156146b95780601f1061468e576101008083540402835291602001916146b9565b820191906000526020600020905b81548152906001019060200180831161469c57829003601f168201915b50505050509050919050565b6060600b836040518082805190602001908083835b6020831015156146ff57805182526020820191506020810190506020830392506146da565b6001836020036101000a03801982511681845116808217855250505050505090500191505090815260200160405180910390208281548110151561473f57fe5b906000526020600020016000018054600181600116156101000203166002900480601f0160208091040260200160405190810160405280929190818152602001828054600181600116156101000203166002900480156147e05780601f106147b5576101008083540402835291602001916147e0565b820191906000526020600020905b8154815290600101906020018083116147c357829003601f168201915b5050505050905092915050565b60606001826040518082805190602001908083835b6020831015156148275780518252602082019150602081019050602083039250614802565b6001836020036101000a03801982511681845116808217855250505050505090500191505090815260200160405180910390208054600181600116156101000203166002900480601f0160208091040260200160405190810160405280929190818152602001828054600181600116156101000203166002900480156148ee5780601f106148c3576101008083540402835291602001916148ee565b820191906000526020600020905b8154815290600101906020018083116148d157829003601f168201915b50505050509050919050565b816040516020018082805190602001908083835b602083101515614933578051825260208201915060208101905060208303925061490e565b6001836020036101000a03801982511681845116808217855250505050505090500191505060405160208183030381529060405280519060200120600a846040518082805190602001908083835b6020831015156149a65780518252602082019150602081019050602083039250614981565b6001836020036101000a0380198251168184511680821785525050505050509050019150509081526020016040518091039020828154811015156149e657fe5b90600052602060002090600202016000016040516020018082805460018160011615610100020316600290048015614a555780601f10614a33576101008083540402835291820191614a55565b820191906000526020600020905b815481529060010190602001808311614a41575b505091505060405160208183030381529060405280519060200120141515614a7c57600080fd5b614a868382615643565b505050565b6060600782815481101515614a9c57fe5b906000526020600020018054600181600116156101000203166002900480601f016020809104026020016040519081016040528092919081815260200182805460018160011615610100020316600290048015614b3a5780601f10614b0f57610100808354040283529160200191614b3a565b820191906000526020600020905b815481529060010190602001808311614b1d57829003601f168201915b50505050509050919050565b6000600580549050905090565b806000836040518082805190602001908083835b602083101515614b8c5780518252602082019150602081019050602083039250614b67565b6001836020036101000a03801982511681845116808217855250505050505090500191505090815260200160405180910390209080519060200190614bd292919061575f565b506002829080600181540180825580915050906001820390600052602060002001600090919290919091509080519060200190614c1092919061575f565b50505050565b60006008826040518082805190602001908083835b602083101515614c505780518252602082019150602081019050602083039250614c2b565b6001836020036101000a0380198251168184511680821785525050505050509050019150509081526020016040518091039020805490509050919050565b60408051908101604052808373ffffffffffffffffffffffffffffffffffffffff16815260200182815250600c846040518082805190602001908083835b602083101515614cf15780518252602082019150602081019050602083039250614ccc565b6001836020036101000a038019825116818451168082178552505050505050905001915050908152602001604051809103902060008201518160000160006101000a81548173ffffffffffffffffffffffffffffffffffffffff021916908373ffffffffffffffffffffffffffffffffffffffff1602179055506020820151816001019080519060200190614d879291906156df565b50905050505050565b60608060608060606008876040518082805190602001908083835b602083101515614dd05780518252602082019150602081019050602083039250614dab565b6001836020036101000a038019825116818451168082178552505050505050905001915050908152602001604051809103902086815481101515614e1057fe5b90600052602060002090600502016000016008886040518082805190602001908083835b602083101515614e595780518252602082019150602081019050602083039250614e34565b6001836020036101000a038019825116818451168082178552505050505050905001915050908152602001604051809103902087815481101515614e9957fe5b90600052602060002090600502016001016008896040518082805190602001908083835b602083101515614ee25780518252602082019150602081019050602083039250614ebd565b6001836020036101000a038019825116818451168082178552505050505050905001915050908152602001604051809103902088815481101515614f2257fe5b906000526020600020906005020160020160088a6040518082805190602001908083835b602083101515614f6b5780518252602082019150602081019050602083039250614f46565b6001836020036101000a038019825116818451168082178552505050505050905001915050908152602001604051809103902089815481101515614fab57fe5b906000526020600020906005020160030160088b6040518082805190602001908083835b602083101515614ff45780518252602082019150602081019050602083039250614fcf565b6001836020036101000a03801982511681845116808217855250505050505090500191505090815260200160405180910390208a81548110151561503457fe5b9060005260206000209060050201600401848054600181600116156101000203166002900480601f0160208091040260200160405190810160405280929190818152602001828054600181600116156101000203166002900480156150da5780601f106150af576101008083540402835291602001916150da565b820191906000526020600020905b8154815290600101906020018083116150bd57829003601f168201915b50505050509450838054600181600116156101000203166002900480601f0160208091040260200160405190810160405280929190818152602001828054600181600116156101000203166002900480156151765780601f1061514b57610100808354040283529160200191615176565b820191906000526020600020905b81548152906001019060200180831161515957829003601f168201915b50505050509350828054600181600116156101000203166002900480601f0160208091040260200160405190810160405280929190818152602001828054600181600116156101000203166002900480156152125780601f106151e757610100808354040283529160200191615212565b820191906000526020600020905b8154815290600101906020018083116151f557829003601f168201915b50505050509250818054600181600116156101000203166002900480601f0160208091040260200160405190810160405280929190818152602001828054600181600116156101000203166002900480156152ae5780601f10615283576101008083540402835291602001916152ae565b820191906000526020600020905b81548152906001019060200180831161529157829003601f168201915b50505050509150808054600181600116156101000203166002900480601f01602080910402602001604051908101604052809291908181526020018280546001816001161561010002031660029004801561534a5780601f1061531f5761010080835404028352916020019161534a565b820191906000526020600020905b81548152906001019060200180831161532d57829003601f168201915b50505050509050945094509450945094509295509295909350565b8060098581548110151561537557fe5b9060005260206000209060050201600401908051906020019061539992919061575f565b50806008836040518082805190602001908083835b6020831015156153d357805182526020820191506020810190506020830392506153ae565b6001836020036101000a03801982511681845116808217855250505050505090500191505090815260200160405180910390208481548110151561541357fe5b9060005260206000209060050201600401908051906020019061543792919061575f565b5050505050565b806004836040518082805190602001908083835b6020831015156154775780518252602082019150602081019050602083039250615452565b6001836020036101000a038019825116818451168082178552505050505050905001915050908152602001604051809103902090805190602001906154bd92919061575f565b505050565b6060600660008473ffffffffffffffffffffffffffffffffffffffff1673ffffffffffffffffffffffffffffffffffffffff1681526020019081526020016000208281548110151561551057fe5b906000526020600020016000018054600181600116156101000203166002900480601f0160208091040260200160405190810160405280929190818152602001828054600181600116156101000203166002900480156155b15780601f10615586576101008083540402835291602001916155b1565b820191906000526020600020905b81548152906001019060200180831161559457829003601f168201915b5050505050905092915050565b6000600a826040518082805190602001908083835b6020831015156155f857805182526020820191506020810190506020830392506155d3565b6001836020036101000a0380198251168184511680821785525050505050509050019150509081526020016040518091039020805490509050919050565b6000600980549050905090565b6001600a836040518082805190602001908083835b60208310151561567d5780518252602082019150602081019050602083039250615658565b6001836020036101000a0380198251168184511680821785525050505050509050019150509081526020016040518091039020828154811015156156bd57fe5b9060005260206000209060020201600101600082825401925050819055505050565b828054600181600116156101000203166002900490600052602060002090601f016020900481019282601f1061572057805160ff191683800117855561574e565b8280016001018555821561574e579182015b8281111561574d578251825591602001919060010190615732565b5b50905061575b91906157df565b5090565b828054600181600116156101000203166002900490600052602060002090601f016020900481019282601f106157a057805160ff19168380011785556157ce565b828001600101855582156157ce579182015b828111156157cd5782518255916020019190600101906157b2565b5b5090506157db91906157df565b5090565b61580191905b808211156157fd5760008160009055506001016157e5565b5090565b9056fea165627a7a723058203e5b082c141c5c30023109cc6e4dc9d0890b0fa2d009a349e7d2047a197155220029",
  "source": "pragma solidity ^0.5.0;\r\n\r\ncontract Election{\r\n\r\n    //-------------------------Credentails Area--------------------------------------\r\n\r\n    //Organizer mapping of Credentials and Personal Information\r\n    mapping (string => string) OrganizerCredentials;\r\n    mapping (string => string) OrganizerPersonal;\r\n    string[] OrganizerUsername;\r\n\r\n    //Candidate mapping of Credentials and Personal Information\r\n    mapping (string => string) CandidateCredentials;\r\n    mapping (string => string) CandidatePersonal;\r\n    string[] CandidateUsername;\r\n\r\n    //------------------------Organizer's  Elections Area------------------------------\r\n\r\n    //struct for contain number of Elections in place\r\n    struct ElectionHash{\r\n        string hash;\r\n    } \r\n\r\n    //mapping (OrganizerAddress => allElectionsOfOrganizer)\r\n    mapping (address => ElectionHash[]) OrganizerElections;\r\n    string[] public Elections;\r\n\r\n    //------------------------ Candidate's Nomination Requests -----------------------------\r\n\r\n    //mapping for candidate request for particular election\r\n    struct RequestHash{\r\n        string username;\r\n        string electionHash;\r\n        string time;\r\n        string place;\r\n        string status;\r\n    }\r\n\r\n    //mapping (Candidateusername => RequestHash)\r\n    mapping (string => RequestHash[]) CandidateRequests;\r\n    \r\n    //Array of Request struct\r\n    RequestHash[] public ElectionRequests;\r\n\r\n    //------------------------ Election's Candidate Area -------------------------------\r\n\r\n    struct CandidateOfElection{\r\n        string username;\r\n        uint votes;\r\n    }\r\n\r\n    //mapping of (electionHash => allCandidatesOfElection)\r\n    mapping (string => CandidateOfElection[]) SelectedCandidates;\r\n\r\n    //--------------------------- Voter's Area --------------------------------------\r\n\r\n    struct Voter{\r\n        string voter;\r\n    }\r\n\r\n    struct VoterCredentails{\r\n        address accAddress;\r\n        string password;\r\n    }\r\n\r\n    //mapping of (electionHash => VoterHash)\r\n    mapping (string => Voter[]) ElectionVoterPool;\r\n\r\n    //mapping for (VoterHash => VoterCredentials)\r\n    mapping (string => VoterCredentails) VotersAccount;\r\n\r\n    //--------------------------- Aadhaar Area -------------------------------------\r\n\r\n    struct AadhaarCard{\r\n        uint aadhaar;\r\n    }\r\n\r\n    //mapping for (electionHash => aadhaarCard[]) for verifying the adhaar is voted only once for \r\n    mapping (string => AadhaarCard[]) AadhaarCheck;\r\n\r\n    //-------------------- Functions Area ------------------------------------------\r\n\r\n\r\n\r\n\r\n\r\n    //********************************** function for Organizers *******************\r\n\r\n    function setOrganizerCredentials(string memory _username, string memory _hash) public {\r\n        OrganizerCredentials[_username] = _hash;\r\n        OrganizerUsername.push(_username);\r\n    }\r\n\r\n    function setOrganizerPersonal(string memory _username, string memory _hash) public {\r\n        OrganizerPersonal[_username] = _hash;\r\n    }\r\n\r\n    function getOrganizerCredentials(string memory _username) public view returns(string memory){\r\n        return OrganizerCredentials[_username];\r\n    }\r\n\r\n    function getOrganizerPersonal(string memory _username) public view returns(string memory){\r\n        return OrganizerPersonal[_username];\r\n    }\r\n\r\n    function getOrganizersCount() public view returns(uint){\r\n        return OrganizerUsername.length;\r\n    }\r\n\r\n    function findOrganizer(string memory _username) public view returns(bool){\r\n        for(uint i = 0; i <= OrganizerUsername.length - 1; i++){\r\n            if(keccak256(abi.encodePacked(OrganizerUsername[i])) == keccak256(abi.encodePacked(_username)))   return true;\r\n            else return false;\r\n        }\r\n    }\r\n\r\n    //*********************************** function for Elections ***************************************\r\n    \r\n    function addElection(address _add, string memory _hash) public returns(bool){\r\n        for(uint i = 0; i < OrganizerElections[_add].length ; i++){\r\n            if(keccak256(abi.encodePacked(_hash)) == keccak256(abi.encodePacked(OrganizerElections[_add][i].hash))) return false;\r\n        }\r\n        OrganizerElections[_add].push(ElectionHash(_hash));\r\n        Elections.push(_hash);\r\n        return true;\r\n    }\r\n    \r\n    function getElection(address _add, uint _index) public view returns(string memory){\r\n        return OrganizerElections[_add][_index].hash;\r\n    }\r\n\r\n    function organizerElectionCount(address _add) public view returns(uint){\r\n        return OrganizerElections[_add].length;\r\n    } \r\n\r\n    function getElections(uint _index) public view returns(string memory){\r\n        return Elections[_index];\r\n    }\r\n\r\n    function electionsCount() public view returns(uint){\r\n        return Elections.length;\r\n    } \r\n\r\n    //******************************* functions for Candidates **************************\r\n\r\n    function setCandidateCredentials(string memory _username, string memory _hash) public {\r\n        CandidateCredentials[_username] = _hash;\r\n        CandidateUsername.push(_username);\r\n    }\r\n\r\n    function setCandidatePersonal(string memory _username, string memory _hash) public {\r\n        CandidatePersonal[_username] = _hash;\r\n    }\r\n\r\n    function getCandidateCredentials(string memory _username) public view returns(string memory){\r\n        return CandidateCredentials[_username];\r\n    }\r\n\r\n    function getCandidatePersonal(string memory _username) public view returns(string memory){\r\n        return CandidatePersonal[_username];\r\n    }\r\n\r\n    function getCandidatesCount() public view returns(uint){\r\n        return CandidateUsername.length;\r\n    }\r\n\r\n    function findCandidate(string memory _username) public view returns(bool){\r\n        for(uint i = 0; i <= CandidateUsername.length; i++){\r\n            if(keccak256(abi.encodePacked(CandidateUsername[i])) == keccak256(abi.encodePacked(_username))) return true;\r\n        }\r\n        return false;\r\n    }\r\n\r\n    //********************************************* function for Election Requests *************************\r\n\r\n    function setRequest(string memory _username, string memory _electionHash, string memory _time, string memory _place, string memory _status) public {\r\n        CandidateRequests[_username].push(RequestHash(_username, _electionHash, _time, _place, _status));\r\n        ElectionRequests.push(RequestHash(_username, _electionHash, _time, _place, _status));\r\n    }\r\n\r\n    function getRequest(string memory _username, uint _index) public view returns(string memory, string memory, string memory, string memory, string memory){\r\n        return (\r\n                    CandidateRequests[_username][_index].username, \r\n                    CandidateRequests[_username][_index].electionHash, \r\n                    CandidateRequests[_username][_index].time, \r\n                    CandidateRequests[_username][_index].place, \r\n                    CandidateRequests[_username][_index].status\r\n                );\r\n    }\r\n\r\n    function candidateRequestsCount(string memory _username) public view returns(uint){\r\n        return CandidateRequests[_username].length;\r\n    }\r\n\r\n    function getAllRequest(uint _index) public view returns(string memory, string memory, string memory, string memory, string memory){\r\n        return (\r\n                    ElectionRequests[_index].username, \r\n                    ElectionRequests[_index].electionHash, \r\n                    ElectionRequests[_index].time, \r\n                    ElectionRequests[_index].place, \r\n                    ElectionRequests[_index].status\r\n                );\r\n    }\r\n\r\n    function requestsCount() public view returns(uint){\r\n        return ElectionRequests.length;\r\n    } \r\n\r\n    function updateRequestStatus(uint _allRequestIndex, uint _candidateRequestIndex, string memory _username, string memory _status) public {\r\n        ElectionRequests[_allRequestIndex].status = _status;\r\n        CandidateRequests[_username][_candidateRequestIndex].status = _status;\r\n    }\r\n\r\n    //**************************** function for selected Candidate of Election ***********************\r\n\r\n    function addCandidate(string memory _electionHash, string memory _username) public {\r\n        SelectedCandidates[_electionHash].push(CandidateOfElection(_username, 0));\r\n    }\r\n\r\n    function countElectionCandidates(string memory _electionHash) public view returns(uint){\r\n       return SelectedCandidates[_electionHash].length;\r\n    }\r\n\r\n    function getSelectedCandidates(string memory _electionHash, uint _index) public view returns(string memory){\r\n       return SelectedCandidates[_electionHash][_index].username;\r\n    }\r\n\r\n    //*************************** function for voting for the candidate of election ************************\r\n    \r\n\r\n    function vote(string memory _electionHash, uint _index) internal {\r\n        SelectedCandidates[_electionHash][_index].votes += 1;\r\n    }\r\n\r\n    function voteSelectedCandidates(string memory _electionHash, string memory _username, uint _index) public {\r\n        \r\n        require(keccak256(abi.encodePacked(SelectedCandidates[_electionHash][_index].username)) == keccak256(abi.encodePacked(_username)));\r\n        vote(_electionHash, _index);\r\n    } \r\n\r\n    //*************************** functions for checking the Aadhaar Card voted or not **********************\r\n\r\n    //fucntion for finding the total number of voted aadhaar card\r\n    function aadhaarCount(string memory _electionHash) public view returns(uint){\r\n        return AadhaarCheck[_electionHash].length;\r\n    }\r\n\r\n    //function for find the aadhaar card for chechking that wheather it is voted or not\r\n    function checkAadhaar(string memory _electionHash, uint _index) public view returns(uint){\r\n        return AadhaarCheck[_electionHash][_index].aadhaar;\r\n    }\r\n\r\n    //function for adding the Aadhaar card to the Election Poll\r\n    function addAadhaar(string memory _electionHash, uint _aadhaar)public {\r\n        AadhaarCheck[_electionHash].push(AadhaarCard(_aadhaar));\r\n    }\r\n\r\n    //***************************** Functions for Voter ***********************************************\r\n\r\n    //function for adding the voter credentails with its Object Hash\r\n    function addVoterAccount(string memory _voterHash, address _add, string memory _password)public {\r\n        VotersAccount[_voterHash] = VoterCredentails(_add, _password);\r\n    }\r\n\r\n    //function for get the Account details of the voter\r\n    function getVoterAccount(string memory _voterHash)public view returns(address, string memory){\r\n        return (VotersAccount[_voterHash].accAddress, VotersAccount[_voterHash].password);\r\n    }\r\n\r\n    //function for inserting the Voter credentials into thier respective elections\r\n    function addVoterToElection(string memory _electionHash, string memory _voterHash)public {\r\n        ElectionVoterPool[_electionHash].push(Voter(_voterHash));\r\n    }\r\n\r\n    //function for get the voters associated with election\r\n    function getVoterToElection(string memory _electionHash, uint _index)public view returns(string memory){\r\n        return ElectionVoterPool[_electionHash][_index].voter;\r\n    }\r\n}",
  "sourcePath": "C:/Users/Prateek Patel/Desktop/Dogovote3/Digivote/contracts/Election.sol",
  "compiler": {
    "name": "solc",
    "version": "0.5.0+commit.1d4f565a.Emscripten.clang"
  },
  "schemaVersion": "3.0.2",
  "updatedAt": "2019-04-06T18:28:02.154Z",
  "devdoc": {
    "methods": {}
  },
  "userdoc": {
    "methods": {}
  }
}