{
  "contractName": "Election",
  "abi": [
    {
      "constant": true,
      "inputs": [
        {
          "name": "",
          "type": "uint256"
        }
      ],
      "name": "Elections",
      "outputs": [
        {
          "name": "",
          "type": "string"
        }
      ],
      "payable": false,
      "stateMutability": "view",
      "type": "function",
      "signature": "0x1e9598e2"
    },
    {
      "constant": true,
      "inputs": [
        {
          "name": "",
          "type": "uint256"
        }
      ],
      "name": "ElectionRequests",
      "outputs": [
        {
          "name": "username",
          "type": "string"
        },
        {
          "name": "electionHash",
          "type": "string"
        },
        {
          "name": "time",
          "type": "string"
        },
        {
          "name": "place",
          "type": "string"
        },
        {
          "name": "status",
          "type": "string"
        }
      ],
      "payable": false,
      "stateMutability": "view",
      "type": "function",
      "signature": "0x4f764622"
    },
    {
      "constant": false,
      "inputs": [
        {
          "name": "_username",
          "type": "string"
        },
        {
          "name": "_hash",
          "type": "string"
        }
      ],
      "name": "setOrganizerCredentials",
      "outputs": [],
      "payable": false,
      "stateMutability": "nonpayable",
      "type": "function",
      "signature": "0xc6954bb9"
    },
    {
      "constant": false,
      "inputs": [
        {
          "name": "_username",
          "type": "string"
        },
        {
          "name": "_hash",
          "type": "string"
        }
      ],
      "name": "setOrganizerPersonal",
      "outputs": [],
      "payable": false,
      "stateMutability": "nonpayable",
      "type": "function",
      "signature": "0x59b2dc85"
    },
    {
      "constant": true,
      "inputs": [
        {
          "name": "_username",
          "type": "string"
        }
      ],
      "name": "getOrganizerCredentials",
      "outputs": [
        {
          "name": "",
          "type": "string"
        }
      ],
      "payable": false,
      "stateMutability": "view",
      "type": "function",
      "signature": "0xa62a4b04"
    },
    {
      "constant": true,
      "inputs": [
        {
          "name": "_username",
          "type": "string"
        }
      ],
      "name": "getOrganizerPersonal",
      "outputs": [
        {
          "name": "",
          "type": "string"
        }
      ],
      "payable": false,
      "stateMutability": "view",
      "type": "function",
      "signature": "0xa97dd664"
    },
    {
      "constant": true,
      "inputs": [],
      "name": "getOrganizersCount",
      "outputs": [
        {
          "name": "",
          "type": "uint256"
        }
      ],
      "payable": false,
      "stateMutability": "view",
      "type": "function",
      "signature": "0x039f6ac2"
    },
    {
      "constant": true,
      "inputs": [
        {
          "name": "_username",
          "type": "string"
        }
      ],
      "name": "findOrganizer",
      "outputs": [
        {
          "name": "",
          "type": "bool"
        }
      ],
      "payable": false,
      "stateMutability": "view",
      "type": "function",
      "signature": "0x288cb036"
    },
    {
      "constant": false,
      "inputs": [
        {
          "name": "_add",
          "type": "address"
        },
        {
          "name": "_hash",
          "type": "string"
        }
      ],
      "name": "addElection",
      "outputs": [
        {
          "name": "",
          "type": "bool"
        }
      ],
      "payable": false,
      "stateMutability": "nonpayable",
      "type": "function",
      "signature": "0x584399ee"
    },
    {
      "constant": true,
      "inputs": [
        {
          "name": "_add",
          "type": "address"
        },
        {
          "name": "_index",
          "type": "uint256"
        }
      ],
      "name": "getElection",
      "outputs": [
        {
          "name": "",
          "type": "string"
        }
      ],
      "payable": false,
      "stateMutability": "view",
      "type": "function",
      "signature": "0xf0a1880a"
    },
    {
      "constant": true,
      "inputs": [
        {
          "name": "_add",
          "type": "address"
        }
      ],
      "name": "organizerElectionCount",
      "outputs": [
        {
          "name": "",
          "type": "uint256"
        }
      ],
      "payable": false,
      "stateMutability": "view",
      "type": "function",
      "signature": "0x3b76293d"
    },
    {
      "constant": true,
      "inputs": [
        {
          "name": "_index",
          "type": "uint256"
        }
      ],
      "name": "getElections",
      "outputs": [
        {
          "name": "",
          "type": "string"
        }
      ],
      "payable": false,
      "stateMutability": "view",
      "type": "function",
      "signature": "0xb1c0fbf6"
    },
    {
      "constant": true,
      "inputs": [],
      "name": "electionsCount",
      "outputs": [
        {
          "name": "",
          "type": "uint256"
        }
      ],
      "payable": false,
      "stateMutability": "view",
      "type": "function",
      "signature": "0x9a74c695"
    },
    {
      "constant": false,
      "inputs": [
        {
          "name": "_username",
          "type": "string"
        },
        {
          "name": "_hash",
          "type": "string"
        }
      ],
      "name": "setCandidateCredentials",
      "outputs": [],
      "payable": false,
      "stateMutability": "nonpayable",
      "type": "function",
      "signature": "0x877cef19"
    },
    {
      "constant": false,
      "inputs": [
        {
          "name": "_username",
          "type": "string"
        },
        {
          "name": "_hash",
          "type": "string"
        }
      ],
      "name": "setCandidatePersonal",
      "outputs": [],
      "payable": false,
      "stateMutability": "nonpayable",
      "type": "function",
      "signature": "0xd25d65c4"
    },
    {
      "constant": true,
      "inputs": [
        {
          "name": "_username",
          "type": "string"
        }
      ],
      "name": "getCandidateCredentials",
      "outputs": [
        {
          "name": "",
          "type": "string"
        }
      ],
      "payable": false,
      "stateMutability": "view",
      "type": "function",
      "signature": "0x4ae62591"
    },
    {
      "constant": true,
      "inputs": [
        {
          "name": "_username",
          "type": "string"
        }
      ],
      "name": "getCandidatePersonal",
      "outputs": [
        {
          "name": "",
          "type": "string"
        }
      ],
      "payable": false,
      "stateMutability": "view",
      "type": "function",
      "signature": "0x1d81955d"
    },
    {
      "constant": true,
      "inputs": [],
      "name": "getCandidatesCount",
      "outputs": [
        {
          "name": "",
          "type": "uint256"
        }
      ],
      "payable": false,
      "stateMutability": "view",
      "type": "function",
      "signature": "0xbb9aa28f"
    },
    {
      "constant": true,
      "inputs": [
        {
          "name": "_username",
          "type": "string"
        }
      ],
      "name": "findCandidate",
      "outputs": [
        {
          "name": "",
          "type": "bool"
        }
      ],
      "payable": false,
      "stateMutability": "view",
      "type": "function",
      "signature": "0x76830a0d"
    },
    {
      "constant": false,
      "inputs": [
        {
          "name": "_username",
          "type": "string"
        },
        {
          "name": "_electionHash",
          "type": "string"
        },
        {
          "name": "_time",
          "type": "string"
        },
        {
          "name": "_place",
          "type": "string"
        },
        {
          "name": "_status",
          "type": "string"
        }
      ],
      "name": "setRequest",
      "outputs": [],
      "payable": false,
      "stateMutability": "nonpayable",
      "type": "function",
      "signature": "0x27f8583c"
    },
    {
      "constant": true,
      "inputs": [
        {
          "name": "_username",
          "type": "string"
        },
        {
          "name": "_index",
          "type": "uint256"
        }
      ],
      "name": "getRequest",
      "outputs": [
        {
          "name": "",
          "type": "string"
        },
        {
          "name": "",
          "type": "string"
        },
        {
          "name": "",
          "type": "string"
        },
        {
          "name": "",
          "type": "string"
        },
        {
          "name": "",
          "type": "string"
        }
      ],
      "payable": false,
      "stateMutability": "view",
      "type": "function",
      "signature": "0xcf05ed42"
    },
    {
      "constant": true,
      "inputs": [
        {
          "name": "_username",
          "type": "string"
        }
      ],
      "name": "candidateRequestsCount",
      "outputs": [
        {
          "name": "",
          "type": "uint256"
        }
      ],
      "payable": false,
      "stateMutability": "view",
      "type": "function",
      "signature": "0xc85a2662"
    },
    {
      "constant": true,
      "inputs": [
        {
          "name": "_index",
          "type": "uint256"
        }
      ],
      "name": "getAllRequest",
      "outputs": [
        {
          "name": "",
          "type": "string"
        },
        {
          "name": "",
          "type": "string"
        },
        {
          "name": "",
          "type": "string"
        },
        {
          "name": "",
          "type": "string"
        },
        {
          "name": "",
          "type": "string"
        }
      ],
      "payable": false,
      "stateMutability": "view",
      "type": "function",
      "signature": "0x71190688"
    },
    {
      "constant": true,
      "inputs": [],
      "name": "requestsCount",
      "outputs": [
        {
          "name": "",
          "type": "uint256"
        }
      ],
      "payable": false,
      "stateMutability": "view",
      "type": "function",
      "signature": "0xfbfa4b7f"
    },
    {
      "constant": false,
      "inputs": [
        {
          "name": "_allRequestIndex",
          "type": "uint256"
        },
        {
          "name": "_candidateRequestIndex",
          "type": "uint256"
        },
        {
          "name": "_username",
          "type": "string"
        },
        {
          "name": "_status",
          "type": "string"
        }
      ],
      "name": "updateRequestStatus",
      "outputs": [],
      "payable": false,
      "stateMutability": "nonpayable",
      "type": "function",
      "signature": "0xd2532993"
    },
    {
      "constant": false,
      "inputs": [
        {
          "name": "_electionHash",
          "type": "string"
        },
        {
          "name": "_username",
          "type": "string"
        },
        {
          "name": "_place",
          "type": "string"
        }
      ],
      "name": "addCandidate",
      "outputs": [],
      "payable": false,
      "stateMutability": "nonpayable",
      "type": "function",
      "signature": "0xad71f8dc"
    },
    {
      "constant": true,
      "inputs": [
        {
          "name": "_electionHash",
          "type": "string"
        }
      ],
      "name": "countElectionCandidates",
      "outputs": [
        {
          "name": "",
          "type": "uint256"
        }
      ],
      "payable": false,
      "stateMutability": "view",
      "type": "function",
      "signature": "0xf856c027"
    },
    {
      "constant": true,
      "inputs": [
        {
          "name": "_electionHash",
          "type": "string"
        },
        {
          "name": "_index",
          "type": "uint256"
        }
      ],
      "name": "getSelectedCandidates",
      "outputs": [
        {
          "name": "",
          "type": "string"
        },
        {
          "name": "",
          "type": "uint256"
        },
        {
          "name": "",
          "type": "string"
        }
      ],
      "payable": false,
      "stateMutability": "view",
      "type": "function",
      "signature": "0x751d09eb"
    },
    {
      "constant": false,
      "inputs": [
        {
          "name": "_electionHash",
          "type": "string"
        },
        {
          "name": "_username",
          "type": "string"
        },
        {
          "name": "_index",
          "type": "uint256"
        }
      ],
      "name": "voteSelectedCandidates",
      "outputs": [],
      "payable": false,
      "stateMutability": "nonpayable",
      "type": "function",
      "signature": "0xae842953"
    },
    {
      "constant": true,
      "inputs": [
        {
          "name": "_electionHash",
          "type": "string"
        }
      ],
      "name": "aadhaarCount",
      "outputs": [
        {
          "name": "",
          "type": "uint256"
        }
      ],
      "payable": false,
      "stateMutability": "view",
      "type": "function",
      "signature": "0x5752b7a3"
    },
    {
      "constant": true,
      "inputs": [
        {
          "name": "_electionHash",
          "type": "string"
        },
        {
          "name": "_index",
          "type": "uint256"
        }
      ],
      "name": "checkAadhaar",
      "outputs": [
        {
          "name": "",
          "type": "uint256"
        }
      ],
      "payable": false,
      "stateMutability": "view",
      "type": "function",
      "signature": "0x71fef2c7"
    },
    {
      "constant": false,
      "inputs": [
        {
          "name": "_electionHash",
          "type": "string"
        },
        {
          "name": "_aadhaar",
          "type": "uint256"
        }
      ],
      "name": "addAadhaar",
      "outputs": [],
      "payable": false,
      "stateMutability": "nonpayable",
      "type": "function",
      "signature": "0x40916f17"
    },
    {
      "constant": false,
      "inputs": [
        {
          "name": "_voterHash",
          "type": "string"
        },
        {
          "name": "_add",
          "type": "address"
        },
        {
          "name": "_password",
          "type": "string"
        }
      ],
      "name": "addVoterAccount",
      "outputs": [],
      "payable": false,
      "stateMutability": "nonpayable",
      "type": "function",
      "signature": "0xca9d5e74"
    },
    {
      "constant": true,
      "inputs": [
        {
          "name": "_voterHash",
          "type": "string"
        }
      ],
      "name": "getVoterAccount",
      "outputs": [
        {
          "name": "",
          "type": "address"
        },
        {
          "name": "",
          "type": "string"
        }
      ],
      "payable": false,
      "stateMutability": "view",
      "type": "function",
      "signature": "0x4d539b7d"
    },
    {
      "constant": false,
      "inputs": [
        {
          "name": "_electionHash",
          "type": "string"
        },
        {
          "name": "_voterHash",
          "type": "string"
        }
      ],
      "name": "addVoterToElection",
      "outputs": [],
      "payable": false,
      "stateMutability": "nonpayable",
      "type": "function",
      "signature": "0x5e737393"
    },
    {
      "constant": true,
      "inputs": [
        {
          "name": "_electionHash",
          "type": "string"
        },
        {
          "name": "_index",
          "type": "uint256"
        }
      ],
      "name": "getVoterToElection",
      "outputs": [
        {
          "name": "",
          "type": "string"
        }
      ],
      "payable": false,
      "stateMutability": "view",
      "type": "function",
      "signature": "0xa732f1f1"
    }
  ],
  "bytecode": "0x608060405234801561001057600080fd5b50615b1a80620000216000396000f3fe6080604052600436106101c2576000357c0100000000000000000000000000000000000000000000000000000000900463ffffffff168063039f6ac2146101c75780631d81955d146101f25780631e9598e21461033357806327f8583c146103e7578063288cb0361461070b5780633b76293d146107eb57806340916f17146108505780634ae62591146109225780634d539b7d14610a635780634f76462214610bd75780635752b7a314610e3b578063584399ee14610f1757806359b2dc85146110175780635e7373931461117657806371190688146112d557806371fef2c714611539578063751d09eb1461161f57806376830a0d146117dd578063877cef19146118bd5780639a74c69514611a1c578063a62a4b0414611a47578063a732f1f114611b88578063a97dd66414611cd3578063ad71f8dc14611e14578063ae8429531461200a578063b1c0fbf614612173578063bb9aa28f14612227578063c6954bb914612252578063c85a2662146123b1578063ca9d5e741461248d578063cf05ed421461260c578063d253299314612907578063d25d65c414612a7a578063f0a1880a14612bd9578063f856c02714612cad578063fbfa4b7f14612d89575b600080fd5b3480156101d357600080fd5b506101dc612db4565b6040518082815260200191505060405180910390f35b3480156101fe57600080fd5b506102b86004803603602081101561021557600080fd5b810190808035906020019064010000000081111561023257600080fd5b82018360208201111561024457600080fd5b8035906020019184600183028401116401000000008311171561026657600080fd5b91908080601f016020809104026020016040519081016040528093929190818152602001838380828437600081840152601f19601f820116905080830192505050505050509192919290505050612dc1565b6040518080602001828103825283818151815260200191508051906020019080838360005b838110156102f85780820151818401526020810190506102dd565b50505050905090810190601f1680156103255780820380516001836020036101000a031916815260200191505b509250505060405180910390f35b34801561033f57600080fd5b5061036c6004803603602081101561035657600080fd5b8101908080359060200190929190505050612ece565b6040518080602001828103825283818151815260200191508051906020019080838360005b838110156103ac578082015181840152602081019050610391565b50505050905090810190601f1680156103d95780820380516001836020036101000a031916815260200191505b509250505060405180910390f35b3480156103f357600080fd5b50610709600480360360a081101561040a57600080fd5b810190808035906020019064010000000081111561042757600080fd5b82018360208201111561043957600080fd5b8035906020019184600183028401116401000000008311171561045b57600080fd5b91908080601f016020809104026020016040519081016040528093929190818152602001838380828437600081840152601f19601f820116905080830192505050505050509192919290803590602001906401000000008111156104be57600080fd5b8201836020820111156104d057600080fd5b803590602001918460018302840111640100000000831117156104f257600080fd5b91908080601f016020809104026020016040519081016040528093929190818152602001838380828437600081840152601f19601f8201169050808301925050505050505091929192908035906020019064010000000081111561055557600080fd5b82018360208201111561056757600080fd5b8035906020019184600183028401116401000000008311171561058957600080fd5b91908080601f016020809104026020016040519081016040528093929190818152602001838380828437600081840152601f19601f820116905080830192505050505050509192919290803590602001906401000000008111156105ec57600080fd5b8201836020820111156105fe57600080fd5b8035906020019184600183028401116401000000008311171561062057600080fd5b91908080601f016020809104026020016040519081016040528093929190818152602001838380828437600081840152601f19601f8201169050808301925050505050505091929192908035906020019064010000000081111561068357600080fd5b82018360208201111561069557600080fd5b803590602001918460018302840111640100000000831117156106b757600080fd5b91908080601f016020809104026020016040519081016040528093929190818152602001838380828437600081840152601f19601f820116905080830192505050505050509192919290505050612f89565b005b34801561071757600080fd5b506107d16004803603602081101561072e57600080fd5b810190808035906020019064010000000081111561074b57600080fd5b82018360208201111561075d57600080fd5b8035906020019184600183028401116401000000008311171561077f57600080fd5b91908080601f016020809104026020016040519081016040528093929190818152602001838380828437600081840152601f19601f8201169050808301925050505050505091929192905050506131cb565b604051808215151515815260200191505060405180910390f35b3480156107f757600080fd5b5061083a6004803603602081101561080e57600080fd5b81019080803573ffffffffffffffffffffffffffffffffffffffff16906020019092919050505061330a565b6040518082815260200191505060405180910390f35b34801561085c57600080fd5b506109206004803603604081101561087357600080fd5b810190808035906020019064010000000081111561089057600080fd5b8201836020820111156108a257600080fd5b803590602001918460018302840111640100000000831117156108c457600080fd5b91908080601f016020809104026020016040519081016040528093929190818152602001838380828437600081840152601f19601f82011690508083019250505050505050919291929080359060200190929190505050613356565b005b34801561092e57600080fd5b506109e86004803603602081101561094557600080fd5b810190808035906020019064010000000081111561096257600080fd5b82018360208201111561097457600080fd5b8035906020019184600183028401116401000000008311171561099657600080fd5b91908080601f016020809104026020016040519081016040528093929190818152602001838380828437600081840152601f19601f820116905080830192505050505050509192919290505050613409565b6040518080602001828103825283818151815260200191508051906020019080838360005b83811015610a28578082015181840152602081019050610a0d565b50505050905090810190601f168015610a555780820380516001836020036101000a031916815260200191505b509250505060405180910390f35b348015610a6f57600080fd5b50610b2960048036036020811015610a8657600080fd5b8101908080359060200190640100000000811115610aa357600080fd5b820183602082011115610ab557600080fd5b80359060200191846001830284011164010000000083111715610ad757600080fd5b91908080601f016020809104026020016040519081016040528093929190818152602001838380828437600081840152601f19601f820116905080830192505050505050509192919290505050613516565b604051808373ffffffffffffffffffffffffffffffffffffffff1673ffffffffffffffffffffffffffffffffffffffff16815260200180602001828103825283818151815260200191508051906020019080838360005b83811015610b9b578082015181840152602081019050610b80565b50505050905090810190601f168015610bc85780820380516001836020036101000a031916815260200191505b50935050505060405180910390f35b348015610be357600080fd5b50610c1060048036036020811015610bfa57600080fd5b81019080803590602001909291905050506136bc565b60405180806020018060200180602001806020018060200186810386528b818151815260200191508051906020019080838360005b83811015610c60578082015181840152602081019050610c45565b50505050905090810190601f168015610c8d5780820380516001836020036101000a031916815260200191505b5086810385528a818151815260200191508051906020019080838360005b83811015610cc6578082015181840152602081019050610cab565b50505050905090810190601f168015610cf35780820380516001836020036101000a031916815260200191505b50868103845289818151815260200191508051906020019080838360005b83811015610d2c578082015181840152602081019050610d11565b50505050905090810190601f168015610d595780820380516001836020036101000a031916815260200191505b50868103835288818151815260200191508051906020019080838360005b83811015610d92578082015181840152602081019050610d77565b50505050905090810190601f168015610dbf5780820380516001836020036101000a031916815260200191505b50868103825287818151815260200191508051906020019080838360005b83811015610df8578082015181840152602081019050610ddd565b50505050905090810190601f168015610e255780820380516001836020036101000a031916815260200191505b509a505050505050505050505060405180910390f35b348015610e4757600080fd5b50610f0160048036036020811015610e5e57600080fd5b8101908080359060200190640100000000811115610e7b57600080fd5b820183602082011115610e8d57600080fd5b80359060200191846001830284011164010000000083111715610eaf57600080fd5b91908080601f016020809104026020016040519081016040528093929190818152602001838380828437600081840152601f19601f8201169050808301925050505050505091929192905050506139f9565b6040518082815260200191505060405180910390f35b348015610f2357600080fd5b50610ffd60048036036040811015610f3a57600080fd5b81019080803573ffffffffffffffffffffffffffffffffffffffff16906020019092919080359060200190640100000000811115610f7757600080fd5b820183602082011115610f8957600080fd5b80359060200191846001830284011164010000000083111715610fab57600080fd5b91908080601f016020809104026020016040519081016040528093929190818152602001838380828437600081840152601f19601f820116905080830192505050505050509192919290505050613a71565b604051808215151515815260200191505060405180910390f35b34801561102357600080fd5b506111746004803603604081101561103a57600080fd5b810190808035906020019064010000000081111561105757600080fd5b82018360208201111561106957600080fd5b8035906020019184600183028401116401000000008311171561108b57600080fd5b91908080601f016020809104026020016040519081016040528093929190818152602001838380828437600081840152601f19601f820116905080830192505050505050509192919290803590602001906401000000008111156110ee57600080fd5b82018360208201111561110057600080fd5b8035906020019184600183028401116401000000008311171561112257600080fd5b91908080601f016020809104026020016040519081016040528093929190818152602001838380828437600081840152601f19601f820116905080830192505050505050509192919290505050613d07565b005b34801561118257600080fd5b506112d36004803603604081101561119957600080fd5b81019080803590602001906401000000008111156111b657600080fd5b8201836020820111156111c857600080fd5b803590602001918460018302840111640100000000831117156111ea57600080fd5b91908080601f016020809104026020016040519081016040528093929190818152602001838380828437600081840152601f19601f8201169050808301925050505050505091929192908035906020019064010000000081111561124d57600080fd5b82018360208201111561125f57600080fd5b8035906020019184600183028401116401000000008311171561128157600080fd5b91908080601f016020809104026020016040519081016040528093929190818152602001838380828437600081840152601f19601f820116905080830192505050505050509192919290505050613d8b565b005b3480156112e157600080fd5b5061130e600480360360208110156112f857600080fd5b8101908080359060200190929190505050613e51565b60405180806020018060200180602001806020018060200186810386528b818151815260200191508051906020019080838360005b8381101561135e578082015181840152602081019050611343565b50505050905090810190601f16801561138b5780820380516001836020036101000a031916815260200191505b5086810385528a818151815260200191508051906020019080838360005b838110156113c45780820151818401526020810190506113a9565b50505050905090810190601f1680156113f15780820380516001836020036101000a031916815260200191505b50868103845289818151815260200191508051906020019080838360005b8381101561142a57808201518184015260208101905061140f565b50505050905090810190601f1680156114575780820380516001836020036101000a031916815260200191505b50868103835288818151815260200191508051906020019080838360005b83811015611490578082015181840152602081019050611475565b50505050905090810190601f1680156114bd5780820380516001836020036101000a031916815260200191505b50868103825287818151815260200191508051906020019080838360005b838110156114f65780820151818401526020810190506114db565b50505050905090810190601f1680156115235780820380516001836020036101000a031916815260200191505b509a505050505050505050505060405180910390f35b34801561154557600080fd5b506116096004803603604081101561155c57600080fd5b810190808035906020019064010000000081111561157957600080fd5b82018360208201111561158b57600080fd5b803590602001918460018302840111640100000000831117156115ad57600080fd5b91908080601f016020809104026020016040519081016040528093929190818152602001838380828437600081840152601f19601f82011690508083019250505050505050919291929080359060200190929190505050614218565b6040518082815260200191505060405180910390f35b34801561162b57600080fd5b506116ef6004803603604081101561164257600080fd5b810190808035906020019064010000000081111561165f57600080fd5b82018360208201111561167157600080fd5b8035906020019184600183028401116401000000008311171561169357600080fd5b91908080601f016020809104026020016040519081016040528093929190818152602001838380828437600081840152601f19601f820116905080830192505050505050509192919290803590602001909291905050506142a8565b604051808060200184815260200180602001838103835286818151815260200191508051906020019080838360005b8381101561173957808201518184015260208101905061171e565b50505050905090810190601f1680156117665780820380516001836020036101000a031916815260200191505b50838103825284818151815260200191508051906020019080838360005b8381101561179f578082015181840152602081019050611784565b50505050905090810190601f1680156117cc5780820380516001836020036101000a031916815260200191505b509550505050505060405180910390f35b3480156117e957600080fd5b506118a36004803603602081101561180057600080fd5b810190808035906020019064010000000081111561181d57600080fd5b82018360208201111561182f57600080fd5b8035906020019184600183028401116401000000008311171561185157600080fd5b91908080601f016020809104026020016040519081016040528093929190818152602001838380828437600081840152601f19601f82011690508083019250505050505050919291929050505061458f565b604051808215151515815260200191505060405180910390f35b3480156118c957600080fd5b50611a1a600480360360408110156118e057600080fd5b81019080803590602001906401000000008111156118fd57600080fd5b82018360208201111561190f57600080fd5b8035906020019184600183028401116401000000008311171561193157600080fd5b91908080601f016020809104026020016040519081016040528093929190818152602001838380828437600081840152601f19601f8201169050808301925050505050505091929192908035906020019064010000000081111561199457600080fd5b8201836020820111156119a657600080fd5b803590602001918460018302840111640100000000831117156119c857600080fd5b91908080601f016020809104026020016040519081016040528093929190818152602001838380828437600081840152601f19601f8201169050808301925050505050505091929192905050506146d3565b005b348015611a2857600080fd5b50611a31614796565b6040518082815260200191505060405180910390f35b348015611a5357600080fd5b50611b0d60048036036020811015611a6a57600080fd5b8101908080359060200190640100000000811115611a8757600080fd5b820183602082011115611a9957600080fd5b80359060200191846001830284011164010000000083111715611abb57600080fd5b91908080601f016020809104026020016040519081016040528093929190818152602001838380828437600081840152601f19601f8201169050808301925050505050505091929192905050506147a3565b6040518080602001828103825283818151815260200191508051906020019080838360005b83811015611b4d578082015181840152602081019050611b32565b50505050905090810190601f168015611b7a5780820380516001836020036101000a031916815260200191505b509250505060405180910390f35b348015611b9457600080fd5b50611c5860048036036040811015611bab57600080fd5b8101908080359060200190640100000000811115611bc857600080fd5b820183602082011115611bda57600080fd5b80359060200191846001830284011164010000000083111715611bfc57600080fd5b91908080601f016020809104026020016040519081016040528093929190818152602001838380828437600081840152601f19601f820116905080830192505050505050509192919290803590602001909291905050506148b0565b6040518080602001828103825283818151815260200191508051906020019080838360005b83811015611c98578082015181840152602081019050611c7d565b50505050905090810190601f168015611cc55780820380516001836020036101000a031916815260200191505b509250505060405180910390f35b348015611cdf57600080fd5b50611d9960048036036020811015611cf657600080fd5b8101908080359060200190640100000000811115611d1357600080fd5b820183602082011115611d2557600080fd5b80359060200191846001830284011164010000000083111715611d4757600080fd5b91908080601f016020809104026020016040519081016040528093929190818152602001838380828437600081840152601f19601f8201169050808301925050505050505091929192905050506149d8565b6040518080602001828103825283818151815260200191508051906020019080838360005b83811015611dd9578082015181840152602081019050611dbe565b50505050905090810190601f168015611e065780820380516001836020036101000a031916815260200191505b509250505060405180910390f35b348015611e2057600080fd5b5061200860048036036060811015611e3757600080fd5b8101908080359060200190640100000000811115611e5457600080fd5b820183602082011115611e6657600080fd5b80359060200191846001830284011164010000000083111715611e8857600080fd5b91908080601f016020809104026020016040519081016040528093929190818152602001838380828437600081840152601f19601f82011690508083019250505050505050919291929080359060200190640100000000811115611eeb57600080fd5b820183602082011115611efd57600080fd5b80359060200191846001830284011164010000000083111715611f1f57600080fd5b91908080601f016020809104026020016040519081016040528093929190818152602001838380828437600081840152601f19601f82011690508083019250505050505050919291929080359060200190640100000000811115611f8257600080fd5b820183602082011115611f9457600080fd5b80359060200191846001830284011164010000000083111715611fb657600080fd5b91908080601f016020809104026020016040519081016040528093929190818152602001838380828437600081840152601f19601f820116905080830192505050505050509192919290505050614ae5565b005b34801561201657600080fd5b506121716004803603606081101561202d57600080fd5b810190808035906020019064010000000081111561204a57600080fd5b82018360208201111561205c57600080fd5b8035906020019184600183028401116401000000008311171561207e57600080fd5b91908080601f016020809104026020016040519081016040528093929190818152602001838380828437600081840152601f19601f820116905080830192505050505050509192919290803590602001906401000000008111156120e157600080fd5b8201836020820111156120f357600080fd5b8035906020019184600183028401116401000000008311171561211557600080fd5b91908080601f016020809104026020016040519081016040528093929190818152602001838380828437600081840152601f19601f82011690508083019250505050505050919291929080359060200190929190505050614be4565b005b34801561217f57600080fd5b506121ac6004803603602081101561219657600080fd5b8101908080359060200190929190505050614d75565b6040518080602001828103825283818151815260200191508051906020019080838360005b838110156121ec5780820151818401526020810190506121d1565b50505050905090810190601f1680156122195780820380516001836020036101000a031916815260200191505b509250505060405180910390f35b34801561223357600080fd5b5061223c614e30565b6040518082815260200191505060405180910390f35b34801561225e57600080fd5b506123af6004803603604081101561227557600080fd5b810190808035906020019064010000000081111561229257600080fd5b8201836020820111156122a457600080fd5b803590602001918460018302840111640100000000831117156122c657600080fd5b91908080601f016020809104026020016040519081016040528093929190818152602001838380828437600081840152601f19601f8201169050808301925050505050505091929192908035906020019064010000000081111561232957600080fd5b82018360208201111561233b57600080fd5b8035906020019184600183028401116401000000008311171561235d57600080fd5b91908080601f016020809104026020016040519081016040528093929190818152602001838380828437600081840152601f19601f820116905080830192505050505050509192919290505050614e3d565b005b3480156123bd57600080fd5b50612477600480360360208110156123d457600080fd5b81019080803590602001906401000000008111156123f157600080fd5b82018360208201111561240357600080fd5b8035906020019184600183028401116401000000008311171561242557600080fd5b91908080601f016020809104026020016040519081016040528093929190818152602001838380828437600081840152601f19601f820116905080830192505050505050509192919290505050614f00565b6040518082815260200191505060405180910390f35b34801561249957600080fd5b5061260a600480360360608110156124b057600080fd5b81019080803590602001906401000000008111156124cd57600080fd5b8201836020820111156124df57600080fd5b8035906020019184600183028401116401000000008311171561250157600080fd5b91908080601f016020809104026020016040519081016040528093929190818152602001838380828437600081840152601f19601f820116905080830192505050505050509192919290803573ffffffffffffffffffffffffffffffffffffffff1690602001909291908035906020019064010000000081111561258457600080fd5b82018360208201111561259657600080fd5b803590602001918460018302840111640100000000831117156125b857600080fd5b91908080601f016020809104026020016040519081016040528093929190818152602001838380828437600081840152601f19601f820116905080830192505050505050509192919290505050614f78565b005b34801561261857600080fd5b506126dc6004803603604081101561262f57600080fd5b810190808035906020019064010000000081111561264c57600080fd5b82018360208201111561265e57600080fd5b8035906020019184600183028401116401000000008311171561268057600080fd5b91908080601f016020809104026020016040519081016040528093929190818152602001838380828437600081840152601f19601f8201169050808301925050505050505091929192908035906020019092919050505061507a565b60405180806020018060200180602001806020018060200186810386528b818151815260200191508051906020019080838360005b8381101561272c578082015181840152602081019050612711565b50505050905090810190601f1680156127595780820380516001836020036101000a031916815260200191505b5086810385528a818151815260200191508051906020019080838360005b83811015612792578082015181840152602081019050612777565b50505050905090810190601f1680156127bf5780820380516001836020036101000a031916815260200191505b50868103845289818151815260200191508051906020019080838360005b838110156127f85780820151818401526020810190506127dd565b50505050905090810190601f1680156128255780820380516001836020036101000a031916815260200191505b50868103835288818151815260200191508051906020019080838360005b8381101561285e578082015181840152602081019050612843565b50505050905090810190601f16801561288b5780820380516001836020036101000a031916815260200191505b50868103825287818151815260200191508051906020019080838360005b838110156128c45780820151818401526020810190506128a9565b50505050905090810190601f1680156128f15780820380516001836020036101000a031916815260200191505b509a505050505050505050505060405180910390f35b34801561291357600080fd5b50612a786004803603608081101561292a57600080fd5b8101908080359060200190929190803590602001909291908035906020019064010000000081111561295b57600080fd5b82018360208201111561296d57600080fd5b8035906020019184600183028401116401000000008311171561298f57600080fd5b91908080601f016020809104026020016040519081016040528093929190818152602001838380828437600081840152601f19601f820116905080830192505050505050509192919290803590602001906401000000008111156129f257600080fd5b820183602082011115612a0457600080fd5b80359060200191846001830284011164010000000083111715612a2657600080fd5b91908080601f016020809104026020016040519081016040528093929190818152602001838380828437600081840152601f19601f82011690508083019250505050505050919291929050505061564f565b005b348015612a8657600080fd5b50612bd760048036036040811015612a9d57600080fd5b8101908080359060200190640100000000811115612aba57600080fd5b820183602082011115612acc57600080fd5b80359060200191846001830284011164010000000083111715612aee57600080fd5b91908080601f016020809104026020016040519081016040528093929190818152602001838380828437600081840152601f19601f82011690508083019250505050505050919291929080359060200190640100000000811115612b5157600080fd5b820183602082011115612b6357600080fd5b80359060200191846001830284011164010000000083111715612b8557600080fd5b91908080601f016020809104026020016040519081016040528093929190818152602001838380828437600081840152601f19601f820116905080830192505050505050509192919290505050615728565b005b348015612be557600080fd5b50612c3260048036036040811015612bfc57600080fd5b81019080803573ffffffffffffffffffffffffffffffffffffffff169060200190929190803590602001909291905050506157ac565b6040518080602001828103825283818151815260200191508051906020019080838360005b83811015612c72578082015181840152602081019050612c57565b50505050905090810190601f168015612c9f5780820380516001836020036101000a031916815260200191505b509250505060405180910390f35b348015612cb957600080fd5b50612d7360048036036020811015612cd057600080fd5b8101908080359060200190640100000000811115612ced57600080fd5b820183602082011115612cff57600080fd5b80359060200191846001830284011164010000000083111715612d2157600080fd5b91908080601f016020809104026020016040519081016040528093929190818152602001838380828437600081840152601f19601f8201169050808301925050505050505091929192905050506158a8565b6040518082815260200191505060405180910390f35b348015612d9557600080fd5b50612d9e615920565b6040518082815260200191505060405180910390f35b6000600280549050905090565b60606004826040518082805190602001908083835b602083101515612dfb5780518252602082019150602081019050602083039250612dd6565b6001836020036101000a03801982511681845116808217855250505050505090500191505090815260200160405180910390208054600181600116156101000203166002900480601f016020809104026020016040519081016040528092919081815260200182805460018160011615610100020316600290048015612ec25780601f10612e9757610100808354040283529160200191612ec2565b820191906000526020600020905b815481529060010190602001808311612ea557829003601f168201915b50505050509050919050565b600781815481101515612edd57fe5b906000526020600020016000915090508054600181600116156101000203166002900480601f016020809104026020016040519081016040528092919081815260200182805460018160011615610100020316600290048015612f815780601f10612f5657610100808354040283529160200191612f81565b820191906000526020600020905b815481529060010190602001808311612f6457829003601f168201915b505050505081565b6008856040518082805190602001908083835b602083101515612fc15780518252602082019150602081019050602083039250612f9c565b6001836020036101000a038019825116818451168082178552505050505050905001915050908152602001604051809103902060a060405190810160405280878152602001868152602001858152602001848152602001838152509080600181540180825580915050906001820390600052602060002090600502016000909192909190915060008201518160000190805190602001906130639291906159c9565b5060208201518160010190805190602001906130809291906159c9565b50604082015181600201908051906020019061309d9291906159c9565b5060608201518160030190805190602001906130ba9291906159c9565b5060808201518160040190805190602001906130d79291906159c9565b50505050600960a0604051908101604052808781526020018681526020018581526020018481526020018381525090806001815401808255809150509060018203906000526020600020906005020160009091929091909150600082015181600001908051906020019061314c9291906159c9565b5060208201518160010190805190602001906131699291906159c9565b5060408201518160020190805190602001906131869291906159c9565b5060608201518160030190805190602001906131a39291906159c9565b5060808201518160040190805190602001906131c09291906159c9565b505050505050505050565b600080600090506001600280549050038111151561330357826040516020018082805190602001908083835b60208310151561321c57805182526020820191506020810190506020830392506131f7565b6001836020036101000a0380198251168184511680821785525050505050509050019150506040516020818303038152906040528051906020012060028281548110151561326657fe5b9060005260206000200160405160200180828054600181600116156101000203166002900480156132ce5780601f106132ac5761010080835404028352918201916132ce565b820191906000526020600020905b8154815290600101906020018083116132ba575b50509150506040516020818303038152906040528051906020012014156132f9576001915050613305565b6000915050613305565b505b919050565b6000600660008373ffffffffffffffffffffffffffffffffffffffff1673ffffffffffffffffffffffffffffffffffffffff168152602001908152602001600020805490509050919050565b600d826040518082805190602001908083835b60208310151561338e5780518252602082019150602081019050602083039250613369565b6001836020036101000a038019825116818451168082178552505050505050905001915050908152602001604051809103902060206040519081016040528083815250908060018154018082558091505090600182039060005260206000200160009091929091909150600082015181600001555050505050565b60606003826040518082805190602001908083835b602083101515613443578051825260208201915060208101905060208303925061341e565b6001836020036101000a03801982511681845116808217855250505050505090500191505090815260200160405180910390208054600181600116156101000203166002900480601f01602080910402602001604051908101604052809291908181526020018280546001816001161561010002031660029004801561350a5780601f106134df5761010080835404028352916020019161350a565b820191906000526020600020905b8154815290600101906020018083116134ed57829003601f168201915b50505050509050919050565b60006060600c836040518082805190602001908083835b602083101515613552578051825260208201915060208101905060208303925061352d565b6001836020036101000a038019825116818451168082178552505050505050905001915050908152602001604051809103902060000160009054906101000a900473ffffffffffffffffffffffffffffffffffffffff16600c846040518082805190602001908083835b6020831015156135e157805182526020820191506020810190506020830392506135bc565b6001836020036101000a0380198251168184511680821785525050505050509050019150509081526020016040518091039020600101808054600181600116156101000203166002900480601f0160208091040260200160405190810160405280929190818152602001828054600181600116156101000203166002900480156136ac5780601f10613681576101008083540402835291602001916136ac565b820191906000526020600020905b81548152906001019060200180831161368f57829003601f168201915b5050505050905091509150915091565b6009818154811015156136cb57fe5b9060005260206000209060050201600091509050806000018054600181600116156101000203166002900480601f0160208091040260200160405190810160405280929190818152602001828054600181600116156101000203166002900480156137775780601f1061374c57610100808354040283529160200191613777565b820191906000526020600020905b81548152906001019060200180831161375a57829003601f168201915b505050505090806001018054600181600116156101000203166002900480601f0160208091040260200160405190810160405280929190818152602001828054600181600116156101000203166002900480156138155780601f106137ea57610100808354040283529160200191613815565b820191906000526020600020905b8154815290600101906020018083116137f857829003601f168201915b505050505090806002018054600181600116156101000203166002900480601f0160208091040260200160405190810160405280929190818152602001828054600181600116156101000203166002900480156138b35780601f10613888576101008083540402835291602001916138b3565b820191906000526020600020905b81548152906001019060200180831161389657829003601f168201915b505050505090806003018054600181600116156101000203166002900480601f0160208091040260200160405190810160405280929190818152602001828054600181600116156101000203166002900480156139515780601f1061392657610100808354040283529160200191613951565b820191906000526020600020905b81548152906001019060200180831161393457829003601f168201915b505050505090806004018054600181600116156101000203166002900480601f0160208091040260200160405190810160405280929190818152602001828054600181600116156101000203166002900480156139ef5780601f106139c4576101008083540402835291602001916139ef565b820191906000526020600020905b8154815290600101906020018083116139d257829003601f168201915b5050505050905085565b6000600d826040518082805190602001908083835b602083101515613a335780518252602082019150602081019050602083039250613a0e565b6001836020036101000a0380198251168184511680821785525050505050509050019150509081526020016040518091039020805490509050919050565b600080600090505b600660008573ffffffffffffffffffffffffffffffffffffffff1673ffffffffffffffffffffffffffffffffffffffff16815260200190815260200160002080549050811015613c2657600660008573ffffffffffffffffffffffffffffffffffffffff1673ffffffffffffffffffffffffffffffffffffffff16815260200190815260200160002081815481101515613b0f57fe5b906000526020600020016000016040516020018082805460018160011615610100020316600290048015613b7a5780601f10613b58576101008083540402835291820191613b7a565b820191906000526020600020905b815481529060010190602001808311613b66575b505091505060405160208183030381529060405280519060200120836040516020018082805190602001908083835b602083101515613bce5780518252602082019150602081019050602083039250613ba9565b6001836020036101000a038019825116818451168082178552505050505050905001915050604051602081830303815290604052805190602001201415613c19576000915050613d01565b8080600101915050613a79565b50600660008473ffffffffffffffffffffffffffffffffffffffff1673ffffffffffffffffffffffffffffffffffffffff168152602001908152602001600020602060405190810160405280848152509080600181540180825580915050906001820390600052602060002001600090919290919091506000820151816000019080519060200190613cb99291906159c9565b505050506007829080600181540180825580915050906001820390600052602060002001600090919290919091509080519060200190613cfa929190615a49565b5050600190505b92915050565b806001836040518082805190602001908083835b602083101515613d405780518252602082019150602081019050602083039250613d1b565b6001836020036101000a03801982511681845116808217855250505050505090500191505090815260200160405180910390209080519060200190613d86929190615a49565b505050565b600b826040518082805190602001908083835b602083101515613dc35780518252602082019150602081019050602083039250613d9e565b6001836020036101000a0380198251168184511680821785525050505050509050019150509081526020016040518091039020602060405190810160405280838152509080600181540180825580915050906001820390600052602060002001600090919290919091506000820151816000019080519060200190613e499291906159c9565b505050505050565b6060806060806060600986815481101515613e6857fe5b9060005260206000209060050201600001600987815481101515613e8857fe5b9060005260206000209060050201600101600988815481101515613ea857fe5b9060005260206000209060050201600201600989815481101515613ec857fe5b906000526020600020906005020160030160098a815481101515613ee857fe5b9060005260206000209060050201600401848054600181600116156101000203166002900480601f016020809104026020016040519081016040528092919081815260200182805460018160011615610100020316600290048015613f8e5780601f10613f6357610100808354040283529160200191613f8e565b820191906000526020600020905b815481529060010190602001808311613f7157829003601f168201915b50505050509450838054600181600116156101000203166002900480601f01602080910402602001604051908101604052809291908181526020018280546001816001161561010002031660029004801561402a5780601f10613fff5761010080835404028352916020019161402a565b820191906000526020600020905b81548152906001019060200180831161400d57829003601f168201915b50505050509350828054600181600116156101000203166002900480601f0160208091040260200160405190810160405280929190818152602001828054600181600116156101000203166002900480156140c65780601f1061409b576101008083540402835291602001916140c6565b820191906000526020600020905b8154815290600101906020018083116140a957829003601f168201915b50505050509250818054600181600116156101000203166002900480601f0160208091040260200160405190810160405280929190818152602001828054600181600116156101000203166002900480156141625780601f1061413757610100808354040283529160200191614162565b820191906000526020600020905b81548152906001019060200180831161414557829003601f168201915b50505050509150808054600181600116156101000203166002900480601f0160208091040260200160405190810160405280929190818152602001828054600181600116156101000203166002900480156141fe5780601f106141d3576101008083540402835291602001916141fe565b820191906000526020600020905b8154815290600101906020018083116141e157829003601f168201915b505050505090509450945094509450945091939590929450565b6000600d836040518082805190602001908083835b602083101515614252578051825260208201915060208101905060208303925061422d565b6001836020036101000a03801982511681845116808217855250505050505090500191505090815260200160405180910390208281548110151561429257fe5b9060005260206000200160000154905092915050565b606060006060600a856040518082805190602001908083835b6020831015156142e657805182526020820191506020810190506020830392506142c1565b6001836020036101000a03801982511681845116808217855250505050505090500191505090815260200160405180910390208481548110151561432657fe5b9060005260206000209060030201600001600a866040518082805190602001908083835b60208310151561436f578051825260208201915060208101905060208303925061434a565b6001836020036101000a0380198251168184511680821785525050505050509050019150509081526020016040518091039020858154811015156143af57fe5b906000526020600020906003020160010154600a876040518082805190602001908083835b6020831015156143f957805182526020820191506020810190506020830392506143d4565b6001836020036101000a03801982511681845116808217855250505050505090500191505090815260200160405180910390208681548110151561443957fe5b9060005260206000209060030201600201828054600181600116156101000203166002900480601f0160208091040260200160405190810160405280929190818152602001828054600181600116156101000203166002900480156144df5780601f106144b4576101008083540402835291602001916144df565b820191906000526020600020905b8154815290600101906020018083116144c257829003601f168201915b50505050509250808054600181600116156101000203166002900480601f01602080910402602001604051908101604052809291908181526020018280546001816001161561010002031660029004801561457b5780601f106145505761010080835404028352916020019161457b565b820191906000526020600020905b81548152906001019060200180831161455e57829003601f168201915b505050505090509250925092509250925092565b600080600090505b600580549050811115156146c857826040516020018082805190602001908083835b6020831015156145de57805182526020820191506020810190506020830392506145b9565b6001836020036101000a0380198251168184511680821785525050505050509050019150506040516020818303038152906040528051906020012060058281548110151561462857fe5b9060005260206000200160405160200180828054600181600116156101000203166002900480156146905780601f1061466e576101008083540402835291820191614690565b820191906000526020600020905b81548152906001019060200180831161467c575b50509150506040516020818303038152906040528051906020012014156146bb5760019150506146ce565b8080600101915050614597565b50600090505b919050565b806003836040518082805190602001908083835b60208310151561470c57805182526020820191506020810190506020830392506146e7565b6001836020036101000a03801982511681845116808217855250505050505090500191505090815260200160405180910390209080519060200190614752929190615a49565b506005829080600181540180825580915050906001820390600052602060002001600090919290919091509080519060200190614790929190615a49565b50505050565b6000600780549050905090565b60606000826040518082805190602001908083835b6020831015156147dd57805182526020820191506020810190506020830392506147b8565b6001836020036101000a03801982511681845116808217855250505050505090500191505090815260200160405180910390208054600181600116156101000203166002900480601f0160208091040260200160405190810160405280929190818152602001828054600181600116156101000203166002900480156148a45780601f10614879576101008083540402835291602001916148a4565b820191906000526020600020905b81548152906001019060200180831161488757829003601f168201915b50505050509050919050565b6060600b836040518082805190602001908083835b6020831015156148ea57805182526020820191506020810190506020830392506148c5565b6001836020036101000a03801982511681845116808217855250505050505090500191505090815260200160405180910390208281548110151561492a57fe5b906000526020600020016000018054600181600116156101000203166002900480601f0160208091040260200160405190810160405280929190818152602001828054600181600116156101000203166002900480156149cb5780601f106149a0576101008083540402835291602001916149cb565b820191906000526020600020905b8154815290600101906020018083116149ae57829003601f168201915b5050505050905092915050565b60606001826040518082805190602001908083835b602083101515614a1257805182526020820191506020810190506020830392506149ed565b6001836020036101000a03801982511681845116808217855250505050505090500191505090815260200160405180910390208054600181600116156101000203166002900480601f016020809104026020016040519081016040528092919081815260200182805460018160011615610100020316600290048015614ad95780601f10614aae57610100808354040283529160200191614ad9565b820191906000526020600020905b815481529060010190602001808311614abc57829003601f168201915b50505050509050919050565b600a836040518082805190602001908083835b602083101515614b1d5780518252602082019150602081019050602083039250614af8565b6001836020036101000a03801982511681845116808217855250505050505090500191505090815260200160405180910390206060604051908101604052808481526020016000815260200183815250908060018154018082558091505090600182039060005260206000209060030201600090919290919091506000820151816000019080519060200190614bb49291906159c9565b50602082015181600101556040820151816002019080519060200190614bdb9291906159c9565b50505050505050565b816040516020018082805190602001908083835b602083101515614c1d5780518252602082019150602081019050602083039250614bf8565b6001836020036101000a03801982511681845116808217855250505050505090500191505060405160208183030381529060405280519060200120600a846040518082805190602001908083835b602083101515614c905780518252602082019150602081019050602083039250614c6b565b6001836020036101000a038019825116818451168082178552505050505050905001915050908152602001604051809103902082815481101515614cd057fe5b90600052602060002090600302016000016040516020018082805460018160011615610100020316600290048015614d3f5780601f10614d1d576101008083540402835291820191614d3f565b820191906000526020600020905b815481529060010190602001808311614d2b575b505091505060405160208183030381529060405280519060200120141515614d6657600080fd5b614d70838261592d565b505050565b6060600782815481101515614d8657fe5b906000526020600020018054600181600116156101000203166002900480601f016020809104026020016040519081016040528092919081815260200182805460018160011615610100020316600290048015614e245780601f10614df957610100808354040283529160200191614e24565b820191906000526020600020905b815481529060010190602001808311614e0757829003601f168201915b50505050509050919050565b6000600580549050905090565b806000836040518082805190602001908083835b602083101515614e765780518252602082019150602081019050602083039250614e51565b6001836020036101000a03801982511681845116808217855250505050505090500191505090815260200160405180910390209080519060200190614ebc929190615a49565b506002829080600181540180825580915050906001820390600052602060002001600090919290919091509080519060200190614efa929190615a49565b50505050565b60006008826040518082805190602001908083835b602083101515614f3a5780518252602082019150602081019050602083039250614f15565b6001836020036101000a0380198251168184511680821785525050505050509050019150509081526020016040518091039020805490509050919050565b60408051908101604052808373ffffffffffffffffffffffffffffffffffffffff16815260200182815250600c846040518082805190602001908083835b602083101515614fdb5780518252602082019150602081019050602083039250614fb6565b6001836020036101000a038019825116818451168082178552505050505050905001915050908152602001604051809103902060008201518160000160006101000a81548173ffffffffffffffffffffffffffffffffffffffff021916908373ffffffffffffffffffffffffffffffffffffffff16021790555060208201518160010190805190602001906150719291906159c9565b50905050505050565b60608060608060606008876040518082805190602001908083835b6020831015156150ba5780518252602082019150602081019050602083039250615095565b6001836020036101000a0380198251168184511680821785525050505050509050019150509081526020016040518091039020868154811015156150fa57fe5b90600052602060002090600502016000016008886040518082805190602001908083835b602083101515615143578051825260208201915060208101905060208303925061511e565b6001836020036101000a03801982511681845116808217855250505050505090500191505090815260200160405180910390208781548110151561518357fe5b90600052602060002090600502016001016008896040518082805190602001908083835b6020831015156151cc57805182526020820191506020810190506020830392506151a7565b6001836020036101000a03801982511681845116808217855250505050505090500191505090815260200160405180910390208881548110151561520c57fe5b906000526020600020906005020160020160088a6040518082805190602001908083835b6020831015156152555780518252602082019150602081019050602083039250615230565b6001836020036101000a03801982511681845116808217855250505050505090500191505090815260200160405180910390208981548110151561529557fe5b906000526020600020906005020160030160088b6040518082805190602001908083835b6020831015156152de57805182526020820191506020810190506020830392506152b9565b6001836020036101000a03801982511681845116808217855250505050505090500191505090815260200160405180910390208a81548110151561531e57fe5b9060005260206000209060050201600401848054600181600116156101000203166002900480601f0160208091040260200160405190810160405280929190818152602001828054600181600116156101000203166002900480156153c45780601f10615399576101008083540402835291602001916153c4565b820191906000526020600020905b8154815290600101906020018083116153a757829003601f168201915b50505050509450838054600181600116156101000203166002900480601f0160208091040260200160405190810160405280929190818152602001828054600181600116156101000203166002900480156154605780601f1061543557610100808354040283529160200191615460565b820191906000526020600020905b81548152906001019060200180831161544357829003601f168201915b50505050509350828054600181600116156101000203166002900480601f0160208091040260200160405190810160405280929190818152602001828054600181600116156101000203166002900480156154fc5780601f106154d1576101008083540402835291602001916154fc565b820191906000526020600020905b8154815290600101906020018083116154df57829003601f168201915b50505050509250818054600181600116156101000203166002900480601f0160208091040260200160405190810160405280929190818152602001828054600181600116156101000203166002900480156155985780601f1061556d57610100808354040283529160200191615598565b820191906000526020600020905b81548152906001019060200180831161557b57829003601f168201915b50505050509150808054600181600116156101000203166002900480601f0160208091040260200160405190810160405280929190818152602001828054600181600116156101000203166002900480156156345780601f1061560957610100808354040283529160200191615634565b820191906000526020600020905b81548152906001019060200180831161561757829003601f168201915b50505050509050945094509450945094509295509295909350565b8060098581548110151561565f57fe5b90600052602060002090600502016004019080519060200190615683929190615a49565b50806008836040518082805190602001908083835b6020831015156156bd5780518252602082019150602081019050602083039250615698565b6001836020036101000a0380198251168184511680821785525050505050509050019150509081526020016040518091039020848154811015156156fd57fe5b90600052602060002090600502016004019080519060200190615721929190615a49565b5050505050565b806004836040518082805190602001908083835b602083101515615761578051825260208201915060208101905060208303925061573c565b6001836020036101000a038019825116818451168082178552505050505050905001915050908152602001604051809103902090805190602001906157a7929190615a49565b505050565b6060600660008473ffffffffffffffffffffffffffffffffffffffff1673ffffffffffffffffffffffffffffffffffffffff168152602001908152602001600020828154811015156157fa57fe5b906000526020600020016000018054600181600116156101000203166002900480601f01602080910402602001604051908101604052809291908181526020018280546001816001161561010002031660029004801561589b5780601f106158705761010080835404028352916020019161589b565b820191906000526020600020905b81548152906001019060200180831161587e57829003601f168201915b5050505050905092915050565b6000600a826040518082805190602001908083835b6020831015156158e257805182526020820191506020810190506020830392506158bd565b6001836020036101000a0380198251168184511680821785525050505050509050019150509081526020016040518091039020805490509050919050565b6000600980549050905090565b6001600a836040518082805190602001908083835b6020831015156159675780518252602082019150602081019050602083039250615942565b6001836020036101000a0380198251168184511680821785525050505050509050019150509081526020016040518091039020828154811015156159a757fe5b9060005260206000209060030201600101600082825401925050819055505050565b828054600181600116156101000203166002900490600052602060002090601f016020900481019282601f10615a0a57805160ff1916838001178555615a38565b82800160010185558215615a38579182015b82811115615a37578251825591602001919060010190615a1c565b5b509050615a459190615ac9565b5090565b828054600181600116156101000203166002900490600052602060002090601f016020900481019282601f10615a8a57805160ff1916838001178555615ab8565b82800160010185558215615ab8579182015b82811115615ab7578251825591602001919060010190615a9c565b5b509050615ac59190615ac9565b5090565b615aeb91905b80821115615ae7576000816000905550600101615acf565b5090565b9056fea165627a7a723058209dc9d13ed4f67f8c26f075946233ce084c1aac236ce312c38cde9502d541a7950029",
  "source": "pragma solidity ^0.5.0;\r\n\r\ncontract Election{\r\n\r\n    //-------------------------Credentails Area--------------------------------------\r\n\r\n    //Organizer mapping of Credentials and Personal Information, mapping of (Username => hash)\r\n    mapping (string => string) OrganizerCredentials;\r\n    mapping (string => string) OrganizerPersonal;\r\n    string[] OrganizerUsername;\r\n\r\n    //Candidate mapping of Credentials and Personal Information, mapping of (Username => hash)\r\n    mapping (string => string) CandidateCredentials;\r\n    mapping (string => string) CandidatePersonal;\r\n    string[] CandidateUsername;\r\n\r\n    //------------------------Organizer's  Elections Area------------------------------\r\n\r\n    //struct for contain number of Elections in place\r\n    struct ElectionHash{\r\n        string hash;\r\n    } \r\n\r\n    //mapping (OrganizerAddress => allElectionsOfOrganizer)\r\n    mapping (address => ElectionHash[]) OrganizerElections;\r\n    string[] public Elections;\r\n\r\n    //------------------------ Candidate's Nomination Requests -----------------------------\r\n\r\n    //mapping for candidate request for particular election\r\n    struct RequestHash{\r\n        string username;\r\n        string electionHash;\r\n        string time;\r\n        string place;\r\n        string status;\r\n    }\r\n\r\n    //mapping (Candidateusername => RequestHash)\r\n    mapping (string => RequestHash[]) CandidateRequests;\r\n    \r\n    //Array of Request struct\r\n    RequestHash[] public ElectionRequests;\r\n\r\n    //------------------------ Election's Candidate Area -------------------------------\r\n\r\n    struct CandidateOfElection{\r\n        string username;\r\n        uint votes;\r\n        string place;\r\n    }\r\n\r\n    //mapping of (electionHash => allCandidatesOfElection)\r\n    mapping (string => CandidateOfElection[]) SelectedCandidates;\r\n\r\n    //--------------------------- Voter's Area --------------------------------------\r\n\r\n    struct Voter{\r\n        string voter;\r\n    }\r\n\r\n    struct VoterCredentails{\r\n        address accAddress;\r\n        string password;\r\n    }\r\n\r\n    //mapping of (electionHash => VoterHash)\r\n    mapping (string => Voter[]) ElectionVoterPool;\r\n\r\n    //mapping for (VoterHash => VoterCredentials)\r\n    mapping (string => VoterCredentails) VotersAccount;\r\n\r\n    //--------------------------- Aadhaar Area -------------------------------------\r\n\r\n    struct AadhaarCard{\r\n        uint aadhaar;\r\n    }\r\n\r\n    //mapping for (electionHash => aadhaarCard[]) for verifying the adhaar is voted only once for \r\n    mapping (string => AadhaarCard[]) AadhaarCheck;\r\n\r\n    //-------------------- Functions Area ------------------------------------------\r\n\r\n\r\n\r\n\r\n\r\n    //********************************** function for Organizers *******************\r\n\r\n    function setOrganizerCredentials(string memory _username, string memory _hash) public {\r\n        OrganizerCredentials[_username] = _hash;\r\n        OrganizerUsername.push(_username);\r\n    }\r\n\r\n    function setOrganizerPersonal(string memory _username, string memory _hash) public {\r\n        OrganizerPersonal[_username] = _hash;\r\n    }\r\n\r\n    function getOrganizerCredentials(string memory _username) public view returns(string memory){\r\n        return OrganizerCredentials[_username];\r\n    }\r\n\r\n    function getOrganizerPersonal(string memory _username) public view returns(string memory){\r\n        return OrganizerPersonal[_username];\r\n    }\r\n\r\n    function getOrganizersCount() public view returns(uint){\r\n        return OrganizerUsername.length;\r\n    }\r\n\r\n    function findOrganizer(string memory _username) public view returns(bool){\r\n        for(uint i = 0; i <= OrganizerUsername.length - 1; i++){\r\n            if(keccak256(abi.encodePacked(OrganizerUsername[i])) == keccak256(abi.encodePacked(_username)))   return true;\r\n            else return false;\r\n        }\r\n    }\r\n\r\n    //*********************************** function for Elections ***************************************\r\n    \r\n    function addElection(address _add, string memory _hash) public returns(bool){\r\n        for(uint i = 0; i < OrganizerElections[_add].length ; i++){\r\n            if(keccak256(abi.encodePacked(_hash)) == keccak256(abi.encodePacked(OrganizerElections[_add][i].hash))) return false;\r\n        }\r\n        OrganizerElections[_add].push(ElectionHash(_hash));\r\n        Elections.push(_hash);\r\n        return true;\r\n    }\r\n    \r\n    function getElection(address _add, uint _index) public view returns(string memory){\r\n        return OrganizerElections[_add][_index].hash;\r\n    }\r\n\r\n    function organizerElectionCount(address _add) public view returns(uint){\r\n        return OrganizerElections[_add].length;\r\n    } \r\n\r\n    function getElections(uint _index) public view returns(string memory){\r\n        return Elections[_index];\r\n    }\r\n\r\n    function electionsCount() public view returns(uint){\r\n        return Elections.length;\r\n    } \r\n\r\n    //******************************* functions for Candidates **************************\r\n\r\n    function setCandidateCredentials(string memory _username, string memory _hash) public {\r\n        CandidateCredentials[_username] = _hash;\r\n        CandidateUsername.push(_username);\r\n    }\r\n\r\n    function setCandidatePersonal(string memory _username, string memory _hash) public {\r\n        CandidatePersonal[_username] = _hash;\r\n    }\r\n\r\n    function getCandidateCredentials(string memory _username) public view returns(string memory){\r\n        return CandidateCredentials[_username];\r\n    }\r\n\r\n    function getCandidatePersonal(string memory _username) public view returns(string memory){\r\n        return CandidatePersonal[_username];\r\n    }\r\n\r\n    function getCandidatesCount() public view returns(uint){\r\n        return CandidateUsername.length;\r\n    }\r\n\r\n    function findCandidate(string memory _username) public view returns(bool){\r\n        for(uint i = 0; i <= CandidateUsername.length; i++){\r\n            if(keccak256(abi.encodePacked(CandidateUsername[i])) == keccak256(abi.encodePacked(_username))) return true;\r\n        }\r\n        return false;\r\n    }\r\n\r\n    //********************************************* function for Election Requests *************************\r\n\r\n    function setRequest(string memory _username, string memory _electionHash, string memory _time, string memory _place, string memory _status) public {\r\n        CandidateRequests[_username].push(RequestHash(_username, _electionHash, _time, _place, _status));\r\n        ElectionRequests.push(RequestHash(_username, _electionHash, _time, _place, _status));\r\n    }\r\n\r\n    function getRequest(string memory _username, uint _index) public view returns(string memory, string memory, string memory, string memory, string memory){\r\n        return (\r\n                    CandidateRequests[_username][_index].username, \r\n                    CandidateRequests[_username][_index].electionHash, \r\n                    CandidateRequests[_username][_index].time, \r\n                    CandidateRequests[_username][_index].place, \r\n                    CandidateRequests[_username][_index].status\r\n                );\r\n    }\r\n\r\n    function candidateRequestsCount(string memory _username) public view returns(uint){\r\n        return CandidateRequests[_username].length;\r\n    }\r\n\r\n    function getAllRequest(uint _index) public view returns(string memory, string memory, string memory, string memory, string memory){\r\n        return (\r\n                    ElectionRequests[_index].username, \r\n                    ElectionRequests[_index].electionHash, \r\n                    ElectionRequests[_index].time, \r\n                    ElectionRequests[_index].place, \r\n                    ElectionRequests[_index].status\r\n                );\r\n    }\r\n\r\n    function requestsCount() public view returns(uint){\r\n        return ElectionRequests.length;\r\n    } \r\n\r\n    function updateRequestStatus(uint _allRequestIndex, uint _candidateRequestIndex, string memory _username, string memory _status) public {\r\n        ElectionRequests[_allRequestIndex].status = _status;\r\n        CandidateRequests[_username][_candidateRequestIndex].status = _status;\r\n    }\r\n\r\n    //**************************** function for selected Candidate of Election ***********************\r\n\r\n    function addCandidate(string memory _electionHash, string memory _username, string memory _place) public {\r\n        SelectedCandidates[_electionHash].push(CandidateOfElection(_username, 0, _place));\r\n    }\r\n\r\n    function countElectionCandidates(string memory _electionHash) public view returns(uint){\r\n       return SelectedCandidates[_electionHash].length;\r\n    }\r\n\r\n    function getSelectedCandidates(string memory _electionHash, uint _index) public view returns(string memory, uint, string memory){\r\n       return (SelectedCandidates[_electionHash][_index].username, SelectedCandidates[_electionHash][_index].votes, SelectedCandidates[_electionHash][_index].place);\r\n    }\r\n\r\n    //*************************** function for voting for the candidate of election ************************\r\n    \r\n\r\n    function vote(string memory _electionHash, uint _index) internal {\r\n        SelectedCandidates[_electionHash][_index].votes += 1;\r\n    }\r\n\r\n    function voteSelectedCandidates(string memory _electionHash, string memory _username, uint _index) public {\r\n        \r\n        require(keccak256(abi.encodePacked(SelectedCandidates[_electionHash][_index].username)) == keccak256(abi.encodePacked(_username)));\r\n        vote(_electionHash, _index);\r\n    } \r\n\r\n    //*************************** functions for checking the Aadhaar Card voted or not **********************\r\n\r\n    //fucntion for finding the total number of voted aadhaar card\r\n    function aadhaarCount(string memory _electionHash) public view returns(uint){\r\n        return AadhaarCheck[_electionHash].length;\r\n    }\r\n\r\n    //function for find the aadhaar card for chechking that wheather it is voted or not\r\n    function checkAadhaar(string memory _electionHash, uint _index) public view returns(uint){\r\n        return AadhaarCheck[_electionHash][_index].aadhaar;\r\n    }\r\n\r\n    //function for adding the Aadhaar card to the Election Poll\r\n    function addAadhaar(string memory _electionHash, uint _aadhaar)public {\r\n        AadhaarCheck[_electionHash].push(AadhaarCard(_aadhaar));\r\n    }\r\n\r\n    //***************************** Functions for Voter ***********************************************\r\n\r\n    //function for adding the voter credentails with its Object Hash\r\n    function addVoterAccount(string memory _voterHash, address _add, string memory _password)public {\r\n        VotersAccount[_voterHash] = VoterCredentails(_add, _password);\r\n    }\r\n\r\n    //function for get the Account details of the voter\r\n    function getVoterAccount(string memory _voterHash)public view returns(address, string memory){\r\n        return (VotersAccount[_voterHash].accAddress, VotersAccount[_voterHash].password);\r\n    }\r\n\r\n    //function for inserting the Voter credentials into thier respective elections\r\n    function addVoterToElection(string memory _electionHash, string memory _voterHash)public {\r\n        ElectionVoterPool[_electionHash].push(Voter(_voterHash));\r\n    }\r\n\r\n    //function for get the voters associated with election\r\n    function getVoterToElection(string memory _electionHash, uint _index)public view returns(string memory){\r\n        return ElectionVoterPool[_electionHash][_index].voter;\r\n    }\r\n}",
  "sourcePath": "C:/Users/Prateek Patel/Desktop/Dogovote3/Digivote/contracts/Election.sol",
  "compiler": {
    "name": "solc",
    "version": "0.5.0+commit.1d4f565a.Emscripten.clang"
  },
  "schemaVersion": "3.0.2",
  "updatedAt": "2019-04-08T13:22:27.613Z",
  "devdoc": {
    "methods": {}
  },
  "userdoc": {
    "methods": {}
  }
}