{
  "contractName": "Election",
  "abi": [
    {
      "constant": true,
      "inputs": [
        {
          "name": "",
          "type": "uint256"
        }
      ],
      "name": "Elections",
      "outputs": [
        {
          "name": "",
          "type": "string"
        }
      ],
      "payable": false,
      "stateMutability": "view",
      "type": "function",
      "signature": "0x1e9598e2"
    },
    {
      "constant": false,
      "inputs": [
        {
          "name": "_username",
          "type": "string"
        },
        {
          "name": "_hash",
          "type": "string"
        }
      ],
      "name": "setOrganizerCredentials",
      "outputs": [],
      "payable": false,
      "stateMutability": "nonpayable",
      "type": "function",
      "signature": "0xc6954bb9"
    },
    {
      "constant": false,
      "inputs": [
        {
          "name": "_username",
          "type": "string"
        },
        {
          "name": "_hash",
          "type": "string"
        }
      ],
      "name": "setOrganizerPersonal",
      "outputs": [],
      "payable": false,
      "stateMutability": "nonpayable",
      "type": "function",
      "signature": "0x59b2dc85"
    },
    {
      "constant": true,
      "inputs": [
        {
          "name": "_username",
          "type": "string"
        }
      ],
      "name": "getOrganizerCredentials",
      "outputs": [
        {
          "name": "",
          "type": "string"
        }
      ],
      "payable": false,
      "stateMutability": "view",
      "type": "function",
      "signature": "0xa62a4b04"
    },
    {
      "constant": true,
      "inputs": [
        {
          "name": "_username",
          "type": "string"
        }
      ],
      "name": "getOrganizerPersonal",
      "outputs": [
        {
          "name": "",
          "type": "string"
        }
      ],
      "payable": false,
      "stateMutability": "view",
      "type": "function",
      "signature": "0xa97dd664"
    },
    {
      "constant": true,
      "inputs": [],
      "name": "getOrganizersCount",
      "outputs": [
        {
          "name": "",
          "type": "uint256"
        }
      ],
      "payable": false,
      "stateMutability": "view",
      "type": "function",
      "signature": "0x039f6ac2"
    },
    {
      "constant": true,
      "inputs": [
        {
          "name": "_username",
          "type": "string"
        }
      ],
      "name": "findOrganizer",
      "outputs": [
        {
          "name": "",
          "type": "bool"
        }
      ],
      "payable": false,
      "stateMutability": "view",
      "type": "function",
      "signature": "0x288cb036"
    },
    {
      "constant": false,
      "inputs": [
        {
          "name": "_add",
          "type": "address"
        },
        {
          "name": "_hash",
          "type": "string"
        }
      ],
      "name": "addElection",
      "outputs": [
        {
          "name": "",
          "type": "bool"
        }
      ],
      "payable": false,
      "stateMutability": "nonpayable",
      "type": "function",
      "signature": "0x584399ee"
    },
    {
      "constant": true,
      "inputs": [
        {
          "name": "_add",
          "type": "address"
        },
        {
          "name": "_index",
          "type": "uint256"
        }
      ],
      "name": "getElection",
      "outputs": [
        {
          "name": "",
          "type": "string"
        }
      ],
      "payable": false,
      "stateMutability": "view",
      "type": "function",
      "signature": "0xf0a1880a"
    },
    {
      "constant": true,
      "inputs": [
        {
          "name": "_add",
          "type": "address"
        }
      ],
      "name": "electionCount",
      "outputs": [
        {
          "name": "",
          "type": "uint256"
        }
      ],
      "payable": false,
      "stateMutability": "view",
      "type": "function",
      "signature": "0x3616a58b"
    },
    {
      "constant": false,
      "inputs": [
        {
          "name": "_username",
          "type": "string"
        },
        {
          "name": "_hash",
          "type": "string"
        }
      ],
      "name": "setCandidateCredentials",
      "outputs": [],
      "payable": false,
      "stateMutability": "nonpayable",
      "type": "function",
      "signature": "0x877cef19"
    },
    {
      "constant": false,
      "inputs": [
        {
          "name": "_username",
          "type": "string"
        },
        {
          "name": "_hash",
          "type": "string"
        }
      ],
      "name": "setCandidatePersonal",
      "outputs": [],
      "payable": false,
      "stateMutability": "nonpayable",
      "type": "function",
      "signature": "0xd25d65c4"
    },
    {
      "constant": true,
      "inputs": [
        {
          "name": "_username",
          "type": "string"
        }
      ],
      "name": "getCandidateCredentials",
      "outputs": [
        {
          "name": "",
          "type": "string"
        }
      ],
      "payable": false,
      "stateMutability": "view",
      "type": "function",
      "signature": "0x4ae62591"
    },
    {
      "constant": true,
      "inputs": [
        {
          "name": "_username",
          "type": "string"
        }
      ],
      "name": "getCandidatePersonal",
      "outputs": [
        {
          "name": "",
          "type": "string"
        }
      ],
      "payable": false,
      "stateMutability": "view",
      "type": "function",
      "signature": "0x1d81955d"
    },
    {
      "constant": true,
      "inputs": [],
      "name": "getCandidatesCount",
      "outputs": [
        {
          "name": "",
          "type": "uint256"
        }
      ],
      "payable": false,
      "stateMutability": "view",
      "type": "function",
      "signature": "0xbb9aa28f"
    },
    {
      "constant": true,
      "inputs": [
        {
          "name": "_username",
          "type": "string"
        }
      ],
      "name": "findCandidate",
      "outputs": [
        {
          "name": "",
          "type": "bool"
        }
      ],
      "payable": false,
      "stateMutability": "view",
      "type": "function",
      "signature": "0x76830a0d"
    },
    {
      "constant": true,
      "inputs": [
        {
          "name": "_index",
          "type": "uint256"
        }
      ],
      "name": "getElections",
      "outputs": [
        {
          "name": "",
          "type": "string"
        }
      ],
      "payable": false,
      "stateMutability": "view",
      "type": "function",
      "signature": "0xb1c0fbf6"
    }
  ],
  "bytecode": "0x608060405234801561001057600080fd5b5061212c806100206000396000f3fe6080604052600436106100f1576000357c0100000000000000000000000000000000000000000000000000000000900463ffffffff168063039f6ac2146100f65780631d81955d146101215780631e9598e214610262578063288cb036146103165780633616a58b146103f65780634ae625911461045b578063584399ee1461059c57806359b2dc851461069c57806376830a0d146107fb578063877cef19146108db578063a62a4b0414610a3a578063a97dd66414610b7b578063b1c0fbf614610cbc578063bb9aa28f14610d70578063c6954bb914610d9b578063d25d65c414610efa578063f0a1880a14611059575b600080fd5b34801561010257600080fd5b5061010b61112d565b6040518082815260200191505060405180910390f35b34801561012d57600080fd5b506101e76004803603602081101561014457600080fd5b810190808035906020019064010000000081111561016157600080fd5b82018360208201111561017357600080fd5b8035906020019184600183028401116401000000008311171561019557600080fd5b91908080601f016020809104026020016040519081016040528093929190818152602001838380828437600081840152601f19601f82011690508083019250505050505050919291929050505061113a565b6040518080602001828103825283818151815260200191508051906020019080838360005b8381101561022757808201518184015260208101905061020c565b50505050905090810190601f1680156102545780820380516001836020036101000a031916815260200191505b509250505060405180910390f35b34801561026e57600080fd5b5061029b6004803603602081101561028557600080fd5b8101908080359060200190929190505050611247565b6040518080602001828103825283818151815260200191508051906020019080838360005b838110156102db5780820151818401526020810190506102c0565b50505050905090810190601f1680156103085780820380516001836020036101000a031916815260200191505b509250505060405180910390f35b34801561032257600080fd5b506103dc6004803603602081101561033957600080fd5b810190808035906020019064010000000081111561035657600080fd5b82018360208201111561036857600080fd5b8035906020019184600183028401116401000000008311171561038a57600080fd5b91908080601f016020809104026020016040519081016040528093929190818152602001838380828437600081840152601f19601f820116905080830192505050505050509192919290505050611302565b604051808215151515815260200191505060405180910390f35b34801561040257600080fd5b506104456004803603602081101561041957600080fd5b81019080803573ffffffffffffffffffffffffffffffffffffffff169060200190929190505050611441565b6040518082815260200191505060405180910390f35b34801561046757600080fd5b506105216004803603602081101561047e57600080fd5b810190808035906020019064010000000081111561049b57600080fd5b8201836020820111156104ad57600080fd5b803590602001918460018302840111640100000000831117156104cf57600080fd5b91908080601f016020809104026020016040519081016040528093929190818152602001838380828437600081840152601f19601f82011690508083019250505050505050919291929050505061148d565b6040518080602001828103825283818151815260200191508051906020019080838360005b83811015610561578082015181840152602081019050610546565b50505050905090810190601f16801561058e5780820380516001836020036101000a031916815260200191505b509250505060405180910390f35b3480156105a857600080fd5b50610682600480360360408110156105bf57600080fd5b81019080803573ffffffffffffffffffffffffffffffffffffffff169060200190929190803590602001906401000000008111156105fc57600080fd5b82018360208201111561060e57600080fd5b8035906020019184600183028401116401000000008311171561063057600080fd5b91908080601f016020809104026020016040519081016040528093929190818152602001838380828437600081840152601f19601f82011690508083019250505050505050919291929050505061159a565b604051808215151515815260200191505060405180910390f35b3480156106a857600080fd5b506107f9600480360360408110156106bf57600080fd5b81019080803590602001906401000000008111156106dc57600080fd5b8201836020820111156106ee57600080fd5b8035906020019184600183028401116401000000008311171561071057600080fd5b91908080601f016020809104026020016040519081016040528093929190818152602001838380828437600081840152601f19601f8201169050808301925050505050505091929192908035906020019064010000000081111561077357600080fd5b82018360208201111561078557600080fd5b803590602001918460018302840111640100000000831117156107a757600080fd5b91908080601f016020809104026020016040519081016040528093929190818152602001838380828437600081840152601f19601f820116905080830192505050505050509192919290505050611830565b005b34801561080757600080fd5b506108c16004803603602081101561081e57600080fd5b810190808035906020019064010000000081111561083b57600080fd5b82018360208201111561084d57600080fd5b8035906020019184600183028401116401000000008311171561086f57600080fd5b91908080601f016020809104026020016040519081016040528093929190818152602001838380828437600081840152601f19601f8201169050808301925050505050505091929192905050506118b4565b604051808215151515815260200191505060405180910390f35b3480156108e757600080fd5b50610a38600480360360408110156108fe57600080fd5b810190808035906020019064010000000081111561091b57600080fd5b82018360208201111561092d57600080fd5b8035906020019184600183028401116401000000008311171561094f57600080fd5b91908080601f016020809104026020016040519081016040528093929190818152602001838380828437600081840152601f19601f820116905080830192505050505050509192919290803590602001906401000000008111156109b257600080fd5b8201836020820111156109c457600080fd5b803590602001918460018302840111640100000000831117156109e657600080fd5b91908080601f016020809104026020016040519081016040528093929190818152602001838380828437600081840152601f19601f8201169050808301925050505050505091929192905050506119f3565b005b348015610a4657600080fd5b50610b0060048036036020811015610a5d57600080fd5b8101908080359060200190640100000000811115610a7a57600080fd5b820183602082011115610a8c57600080fd5b80359060200191846001830284011164010000000083111715610aae57600080fd5b91908080601f016020809104026020016040519081016040528093929190818152602001838380828437600081840152601f19601f820116905080830192505050505050509192919290505050611ab6565b6040518080602001828103825283818151815260200191508051906020019080838360005b83811015610b40578082015181840152602081019050610b25565b50505050905090810190601f168015610b6d5780820380516001836020036101000a031916815260200191505b509250505060405180910390f35b348015610b8757600080fd5b50610c4160048036036020811015610b9e57600080fd5b8101908080359060200190640100000000811115610bbb57600080fd5b820183602082011115610bcd57600080fd5b80359060200191846001830284011164010000000083111715610bef57600080fd5b91908080601f016020809104026020016040519081016040528093929190818152602001838380828437600081840152601f19601f820116905080830192505050505050509192919290505050611bc3565b6040518080602001828103825283818151815260200191508051906020019080838360005b83811015610c81578082015181840152602081019050610c66565b50505050905090810190601f168015610cae5780820380516001836020036101000a031916815260200191505b509250505060405180910390f35b348015610cc857600080fd5b50610cf560048036036020811015610cdf57600080fd5b8101908080359060200190929190505050611cd0565b6040518080602001828103825283818151815260200191508051906020019080838360005b83811015610d35578082015181840152602081019050610d1a565b50505050905090810190601f168015610d625780820380516001836020036101000a031916815260200191505b509250505060405180910390f35b348015610d7c57600080fd5b50610d85611d8b565b6040518082815260200191505060405180910390f35b348015610da757600080fd5b50610ef860048036036040811015610dbe57600080fd5b8101908080359060200190640100000000811115610ddb57600080fd5b820183602082011115610ded57600080fd5b80359060200191846001830284011164010000000083111715610e0f57600080fd5b91908080601f016020809104026020016040519081016040528093929190818152602001838380828437600081840152601f19601f82011690508083019250505050505050919291929080359060200190640100000000811115610e7257600080fd5b820183602082011115610e8457600080fd5b80359060200191846001830284011164010000000083111715610ea657600080fd5b91908080601f016020809104026020016040519081016040528093929190818152602001838380828437600081840152601f19601f820116905080830192505050505050509192919290505050611d98565b005b348015610f0657600080fd5b5061105760048036036040811015610f1d57600080fd5b8101908080359060200190640100000000811115610f3a57600080fd5b820183602082011115610f4c57600080fd5b80359060200191846001830284011164010000000083111715610f6e57600080fd5b91908080601f016020809104026020016040519081016040528093929190818152602001838380828437600081840152601f19601f82011690508083019250505050505050919291929080359060200190640100000000811115610fd157600080fd5b820183602082011115610fe357600080fd5b8035906020019184600183028401116401000000008311171561100557600080fd5b91908080601f016020809104026020016040519081016040528093929190818152602001838380828437600081840152601f19601f820116905080830192505050505050509192919290505050611e5b565b005b34801561106557600080fd5b506110b26004803603604081101561107c57600080fd5b81019080803573ffffffffffffffffffffffffffffffffffffffff16906020019092919080359060200190929190505050611edf565b6040518080602001828103825283818151815260200191508051906020019080838360005b838110156110f25780820151818401526020810190506110d7565b50505050905090810190601f16801561111f5780820380516001836020036101000a031916815260200191505b509250505060405180910390f35b6000600280549050905090565b60606004826040518082805190602001908083835b602083101515611174578051825260208201915060208101905060208303925061114f565b6001836020036101000a03801982511681845116808217855250505050505090500191505090815260200160405180910390208054600181600116156101000203166002900480601f01602080910402602001604051908101604052809291908181526020018280546001816001161561010002031660029004801561123b5780601f106112105761010080835404028352916020019161123b565b820191906000526020600020905b81548152906001019060200180831161121e57829003601f168201915b50505050509050919050565b60078181548110151561125657fe5b906000526020600020016000915090508054600181600116156101000203166002900480601f0160208091040260200160405190810160405280929190818152602001828054600181600116156101000203166002900480156112fa5780601f106112cf576101008083540402835291602001916112fa565b820191906000526020600020905b8154815290600101906020018083116112dd57829003601f168201915b505050505081565b600080600090506001600280549050038111151561143a57826040516020018082805190602001908083835b602083101515611353578051825260208201915060208101905060208303925061132e565b6001836020036101000a0380198251168184511680821785525050505050509050019150506040516020818303038152906040528051906020012060028281548110151561139d57fe5b9060005260206000200160405160200180828054600181600116156101000203166002900480156114055780601f106113e3576101008083540402835291820191611405565b820191906000526020600020905b8154815290600101906020018083116113f1575b505091505060405160208183030381529060405280519060200120141561143057600191505061143c565b600091505061143c565b505b919050565b6000600660008373ffffffffffffffffffffffffffffffffffffffff1673ffffffffffffffffffffffffffffffffffffffff168152602001908152602001600020805490509050919050565b60606003826040518082805190602001908083835b6020831015156114c757805182526020820191506020810190506020830392506114a2565b6001836020036101000a03801982511681845116808217855250505050505090500191505090815260200160405180910390208054600181600116156101000203166002900480601f01602080910402602001604051908101604052809291908181526020018280546001816001161561010002031660029004801561158e5780601f106115635761010080835404028352916020019161158e565b820191906000526020600020905b81548152906001019060200180831161157157829003601f168201915b50505050509050919050565b600080600090505b600660008573ffffffffffffffffffffffffffffffffffffffff1673ffffffffffffffffffffffffffffffffffffffff1681526020019081526020016000208054905081101561174f57600660008573ffffffffffffffffffffffffffffffffffffffff1673ffffffffffffffffffffffffffffffffffffffff1681526020019081526020016000208181548110151561163857fe5b9060005260206000200160000160405160200180828054600181600116156101000203166002900480156116a35780601f106116815761010080835404028352918201916116a3565b820191906000526020600020905b81548152906001019060200180831161168f575b505091505060405160208183030381529060405280519060200120836040516020018082805190602001908083835b6020831015156116f757805182526020820191506020810190506020830392506116d2565b6001836020036101000a03801982511681845116808217855250505050505090500191505060405160208183030381529060405280519060200120141561174257600091505061182a565b80806001019150506115a2565b50600660008473ffffffffffffffffffffffffffffffffffffffff1673ffffffffffffffffffffffffffffffffffffffff1681526020019081526020016000206020604051908101604052808481525090806001815401808255809150509060018203906000526020600020016000909192909190915060008201518160000190805190602001906117e2929190611fdb565b50505050600782908060018154018082558091505090600182039060005260206000200160009091929091909150908051906020019061182392919061205b565b5050600190505b92915050565b806001836040518082805190602001908083835b6020831015156118695780518252602082019150602081019050602083039250611844565b6001836020036101000a038019825116818451168082178552505050505050905001915050908152602001604051809103902090805190602001906118af92919061205b565b505050565b60008060009050600160058054905003811115156119ec57826040516020018082805190602001908083835b60208310151561190557805182526020820191506020810190506020830392506118e0565b6001836020036101000a0380198251168184511680821785525050505050509050019150506040516020818303038152906040528051906020012060058281548110151561194f57fe5b9060005260206000200160405160200180828054600181600116156101000203166002900480156119b75780601f106119955761010080835404028352918201916119b7565b820191906000526020600020905b8154815290600101906020018083116119a3575b50509150506040516020818303038152906040528051906020012014156119e25760019150506119ee565b60009150506119ee565b505b919050565b806003836040518082805190602001908083835b602083101515611a2c5780518252602082019150602081019050602083039250611a07565b6001836020036101000a03801982511681845116808217855250505050505090500191505090815260200160405180910390209080519060200190611a7292919061205b565b506005829080600181540180825580915050906001820390600052602060002001600090919290919091509080519060200190611ab092919061205b565b50505050565b60606000826040518082805190602001908083835b602083101515611af05780518252602082019150602081019050602083039250611acb565b6001836020036101000a03801982511681845116808217855250505050505090500191505090815260200160405180910390208054600181600116156101000203166002900480601f016020809104026020016040519081016040528092919081815260200182805460018160011615610100020316600290048015611bb75780601f10611b8c57610100808354040283529160200191611bb7565b820191906000526020600020905b815481529060010190602001808311611b9a57829003601f168201915b50505050509050919050565b60606001826040518082805190602001908083835b602083101515611bfd5780518252602082019150602081019050602083039250611bd8565b6001836020036101000a03801982511681845116808217855250505050505090500191505090815260200160405180910390208054600181600116156101000203166002900480601f016020809104026020016040519081016040528092919081815260200182805460018160011615610100020316600290048015611cc45780601f10611c9957610100808354040283529160200191611cc4565b820191906000526020600020905b815481529060010190602001808311611ca757829003601f168201915b50505050509050919050565b6060600782815481101515611ce157fe5b906000526020600020018054600181600116156101000203166002900480601f016020809104026020016040519081016040528092919081815260200182805460018160011615610100020316600290048015611d7f5780601f10611d5457610100808354040283529160200191611d7f565b820191906000526020600020905b815481529060010190602001808311611d6257829003601f168201915b50505050509050919050565b6000600580549050905090565b806000836040518082805190602001908083835b602083101515611dd15780518252602082019150602081019050602083039250611dac565b6001836020036101000a03801982511681845116808217855250505050505090500191505090815260200160405180910390209080519060200190611e1792919061205b565b506002829080600181540180825580915050906001820390600052602060002001600090919290919091509080519060200190611e5592919061205b565b50505050565b806004836040518082805190602001908083835b602083101515611e945780518252602082019150602081019050602083039250611e6f565b6001836020036101000a03801982511681845116808217855250505050505090500191505090815260200160405180910390209080519060200190611eda92919061205b565b505050565b6060600660008473ffffffffffffffffffffffffffffffffffffffff1673ffffffffffffffffffffffffffffffffffffffff16815260200190815260200160002082815481101515611f2d57fe5b906000526020600020016000018054600181600116156101000203166002900480601f016020809104026020016040519081016040528092919081815260200182805460018160011615610100020316600290048015611fce5780601f10611fa357610100808354040283529160200191611fce565b820191906000526020600020905b815481529060010190602001808311611fb157829003601f168201915b5050505050905092915050565b828054600181600116156101000203166002900490600052602060002090601f016020900481019282601f1061201c57805160ff191683800117855561204a565b8280016001018555821561204a579182015b8281111561204957825182559160200191906001019061202e565b5b50905061205791906120db565b5090565b828054600181600116156101000203166002900490600052602060002090601f016020900481019282601f1061209c57805160ff19168380011785556120ca565b828001600101855582156120ca579182015b828111156120c95782518255916020019190600101906120ae565b5b5090506120d791906120db565b5090565b6120fd91905b808211156120f95760008160009055506001016120e1565b5090565b9056fea165627a7a72305820fe47f018f91a4fbbbfea9ec9684916b702ed465958663b090bed558114aa3a3c0029",
  "source": "pragma solidity ^0.5.0;\r\n\r\ncontract Election{\r\n\r\n    mapping (string => string) OrganizerCredentials;\r\n    mapping (string => string) OrganizerPersonal;\r\n    string[] OrganizerUsername;\r\n    mapping (string => string) CandidateCredentials;\r\n    mapping (string => string) CandidatePersonal;\r\n    string[] CandidateUsername;\r\n\r\n    struct ElectionHash{\r\n        string hash;\r\n    } \r\n    mapping (address => ElectionHash[]) OrganizerElection;\r\n    string[] public Elections;\r\n\r\n\r\n    function setOrganizerCredentials(string memory _username, string memory _hash) public {\r\n        OrganizerCredentials[_username] = _hash;\r\n        OrganizerUsername.push(_username);\r\n    }\r\n\r\n    function setOrganizerPersonal(string memory _username, string memory _hash) public {\r\n        OrganizerPersonal[_username] = _hash;\r\n    }\r\n\r\n    function getOrganizerCredentials(string memory _username) public view returns(string memory){\r\n        return OrganizerCredentials[_username];\r\n    }\r\n\r\n    function getOrganizerPersonal(string memory _username) public view returns(string memory){\r\n        return OrganizerPersonal[_username];\r\n    }\r\n\r\n    function getOrganizersCount() public view returns(uint){\r\n        return OrganizerUsername.length;\r\n    }\r\n\r\n    function findOrganizer(string memory _username) public view returns(bool){\r\n        for(uint i = 0; i <= OrganizerUsername.length - 1; i++){\r\n            if(keccak256(abi.encodePacked(OrganizerUsername[i])) == keccak256(abi.encodePacked(_username)))   return true;\r\n            else return false;\r\n        }\r\n    }\r\n\r\n    function addElection(address _add, string memory _hash) public returns(bool){\r\n        for(uint i = 0; i < OrganizerElection[_add].length ; i++){\r\n            if(keccak256(abi.encodePacked(_hash)) == keccak256(abi.encodePacked(OrganizerElection[_add][i].hash))) return false;\r\n        }\r\n        OrganizerElection[_add].push(ElectionHash(_hash));\r\n        Elections.push(_hash);\r\n        return true;\r\n    }\r\n    \r\n    function getElection(address _add, uint _index) public view returns(string memory){\r\n        return OrganizerElection[_add][_index].hash;\r\n    }\r\n\r\n    function electionCount(address _add) public view returns(uint){\r\n        return OrganizerElection[_add].length;\r\n    } \r\n\r\n    //functions for Candidates\r\n\r\n    function setCandidateCredentials(string memory _username, string memory _hash) public {\r\n        CandidateCredentials[_username] = _hash;\r\n        CandidateUsername.push(_username);\r\n    }\r\n\r\n    function setCandidatePersonal(string memory _username, string memory _hash) public {\r\n        CandidatePersonal[_username] = _hash;\r\n    }\r\n\r\n    function getCandidateCredentials(string memory _username) public view returns(string memory){\r\n        return CandidateCredentials[_username];\r\n    }\r\n\r\n    function getCandidatePersonal(string memory _username) public view returns(string memory){\r\n        return CandidatePersonal[_username];\r\n    }\r\n\r\n    function getCandidatesCount() public view returns(uint){\r\n        return CandidateUsername.length;\r\n    }\r\n\r\n    function findCandidate(string memory _username) public view returns(bool){\r\n        for(uint i = 0; i <= CandidateUsername.length - 1; i++){\r\n            if(keccak256(abi.encodePacked(CandidateUsername[i])) == keccak256(abi.encodePacked(_username)))   return true;\r\n            else return false;\r\n        }\r\n    }\r\n\r\n    function getElections(uint _index) public view returns(string memory){\r\n        return Elections[_index];\r\n    }\r\n}",
  "sourcePath": "C:/Users/Prateek Patel/Desktop/Dogovote3/DigiVote/contracts/Election.sol",
  "compiler": {
    "name": "solc",
    "version": "0.5.0+commit.1d4f565a.Emscripten.clang"
  },
  "schemaVersion": "3.0.2",
  "updatedAt": "2019-03-20T02:18:39.427Z",
  "devdoc": {
    "methods": {}
  },
  "userdoc": {
    "methods": {}
  }
}