{
  "contractName": "Election",
  "abi": [
    {
      "constant": true,
      "inputs": [
        {
          "name": "",
          "type": "uint256"
        }
      ],
      "name": "Elections",
      "outputs": [
        {
          "name": "",
          "type": "string"
        }
      ],
      "payable": false,
      "stateMutability": "view",
      "type": "function",
      "signature": "0x1e9598e2"
    },
    {
      "constant": true,
      "inputs": [
        {
          "name": "",
          "type": "uint256"
        }
      ],
      "name": "ElectionRequests",
      "outputs": [
        {
          "name": "",
          "type": "string"
        }
      ],
      "payable": false,
      "stateMutability": "view",
      "type": "function",
      "signature": "0x4f764622"
    },
    {
      "constant": false,
      "inputs": [
        {
          "name": "_username",
          "type": "string"
        },
        {
          "name": "_hash",
          "type": "string"
        }
      ],
      "name": "setOrganizerCredentials",
      "outputs": [],
      "payable": false,
      "stateMutability": "nonpayable",
      "type": "function",
      "signature": "0xc6954bb9"
    },
    {
      "constant": false,
      "inputs": [
        {
          "name": "_username",
          "type": "string"
        },
        {
          "name": "_hash",
          "type": "string"
        }
      ],
      "name": "setOrganizerPersonal",
      "outputs": [],
      "payable": false,
      "stateMutability": "nonpayable",
      "type": "function",
      "signature": "0x59b2dc85"
    },
    {
      "constant": true,
      "inputs": [
        {
          "name": "_username",
          "type": "string"
        }
      ],
      "name": "getOrganizerCredentials",
      "outputs": [
        {
          "name": "",
          "type": "string"
        }
      ],
      "payable": false,
      "stateMutability": "view",
      "type": "function",
      "signature": "0xa62a4b04"
    },
    {
      "constant": true,
      "inputs": [
        {
          "name": "_username",
          "type": "string"
        }
      ],
      "name": "getOrganizerPersonal",
      "outputs": [
        {
          "name": "",
          "type": "string"
        }
      ],
      "payable": false,
      "stateMutability": "view",
      "type": "function",
      "signature": "0xa97dd664"
    },
    {
      "constant": true,
      "inputs": [],
      "name": "getOrganizersCount",
      "outputs": [
        {
          "name": "",
          "type": "uint256"
        }
      ],
      "payable": false,
      "stateMutability": "view",
      "type": "function",
      "signature": "0x039f6ac2"
    },
    {
      "constant": true,
      "inputs": [
        {
          "name": "_username",
          "type": "string"
        }
      ],
      "name": "findOrganizer",
      "outputs": [
        {
          "name": "",
          "type": "bool"
        }
      ],
      "payable": false,
      "stateMutability": "view",
      "type": "function",
      "signature": "0x288cb036"
    },
    {
      "constant": false,
      "inputs": [
        {
          "name": "_add",
          "type": "address"
        },
        {
          "name": "_hash",
          "type": "string"
        }
      ],
      "name": "addElection",
      "outputs": [
        {
          "name": "",
          "type": "bool"
        }
      ],
      "payable": false,
      "stateMutability": "nonpayable",
      "type": "function",
      "signature": "0x584399ee"
    },
    {
      "constant": true,
      "inputs": [
        {
          "name": "_add",
          "type": "address"
        },
        {
          "name": "_index",
          "type": "uint256"
        }
      ],
      "name": "getElection",
      "outputs": [
        {
          "name": "",
          "type": "string"
        }
      ],
      "payable": false,
      "stateMutability": "view",
      "type": "function",
      "signature": "0xf0a1880a"
    },
    {
      "constant": true,
      "inputs": [
        {
          "name": "_add",
          "type": "address"
        }
      ],
      "name": "organizerElectionCount",
      "outputs": [
        {
          "name": "",
          "type": "uint256"
        }
      ],
      "payable": false,
      "stateMutability": "view",
      "type": "function",
      "signature": "0x3b76293d"
    },
    {
      "constant": true,
      "inputs": [
        {
          "name": "_index",
          "type": "uint256"
        }
      ],
      "name": "getElections",
      "outputs": [
        {
          "name": "",
          "type": "string"
        }
      ],
      "payable": false,
      "stateMutability": "view",
      "type": "function",
      "signature": "0xb1c0fbf6"
    },
    {
      "constant": true,
      "inputs": [],
      "name": "electionsCount",
      "outputs": [
        {
          "name": "",
          "type": "uint256"
        }
      ],
      "payable": false,
      "stateMutability": "view",
      "type": "function",
      "signature": "0x9a74c695"
    },
    {
      "constant": false,
      "inputs": [
        {
          "name": "_username",
          "type": "string"
        },
        {
          "name": "_hash",
          "type": "string"
        }
      ],
      "name": "setCandidateCredentials",
      "outputs": [],
      "payable": false,
      "stateMutability": "nonpayable",
      "type": "function",
      "signature": "0x877cef19"
    },
    {
      "constant": false,
      "inputs": [
        {
          "name": "_username",
          "type": "string"
        },
        {
          "name": "_hash",
          "type": "string"
        }
      ],
      "name": "setCandidatePersonal",
      "outputs": [],
      "payable": false,
      "stateMutability": "nonpayable",
      "type": "function",
      "signature": "0xd25d65c4"
    },
    {
      "constant": true,
      "inputs": [
        {
          "name": "_username",
          "type": "string"
        }
      ],
      "name": "getCandidateCredentials",
      "outputs": [
        {
          "name": "",
          "type": "string"
        }
      ],
      "payable": false,
      "stateMutability": "view",
      "type": "function",
      "signature": "0x4ae62591"
    },
    {
      "constant": true,
      "inputs": [
        {
          "name": "_username",
          "type": "string"
        }
      ],
      "name": "getCandidatePersonal",
      "outputs": [
        {
          "name": "",
          "type": "string"
        }
      ],
      "payable": false,
      "stateMutability": "view",
      "type": "function",
      "signature": "0x1d81955d"
    },
    {
      "constant": true,
      "inputs": [],
      "name": "getCandidatesCount",
      "outputs": [
        {
          "name": "",
          "type": "uint256"
        }
      ],
      "payable": false,
      "stateMutability": "view",
      "type": "function",
      "signature": "0xbb9aa28f"
    },
    {
      "constant": true,
      "inputs": [
        {
          "name": "_username",
          "type": "string"
        }
      ],
      "name": "findCandidate",
      "outputs": [
        {
          "name": "",
          "type": "bool"
        }
      ],
      "payable": false,
      "stateMutability": "view",
      "type": "function",
      "signature": "0x76830a0d"
    },
    {
      "constant": false,
      "inputs": [
        {
          "name": "_username",
          "type": "string"
        },
        {
          "name": "_hash",
          "type": "string"
        }
      ],
      "name": "setRequest",
      "outputs": [],
      "payable": false,
      "stateMutability": "nonpayable",
      "type": "function",
      "signature": "0x557bcbf6"
    },
    {
      "constant": true,
      "inputs": [
        {
          "name": "_username",
          "type": "string"
        },
        {
          "name": "_index",
          "type": "uint256"
        }
      ],
      "name": "getRequest",
      "outputs": [
        {
          "name": "",
          "type": "string"
        }
      ],
      "payable": false,
      "stateMutability": "view",
      "type": "function",
      "signature": "0xcf05ed42"
    }
  ],
  "bytecode": "0x608060405234801561001057600080fd5b506127d6806100206000396000f3fe60806040526004361061011d576000357c0100000000000000000000000000000000000000000000000000000000900463ffffffff168063039f6ac2146101225780631d81955d1461014d5780631e9598e21461028e578063288cb036146103425780633b76293d146104225780634ae62591146104875780634f764622146105c8578063557bcbf61461067c578063584399ee146107db57806359b2dc85146108db57806376830a0d14610a3a578063877cef1914610b1a5780639a74c69514610c79578063a62a4b0414610ca4578063a97dd66414610de5578063b1c0fbf614610f26578063bb9aa28f14610fda578063c6954bb914611005578063cf05ed4214611164578063d25d65c4146112af578063f0a1880a1461140e575b600080fd5b34801561012e57600080fd5b506101376114e2565b6040518082815260200191505060405180910390f35b34801561015957600080fd5b506102136004803603602081101561017057600080fd5b810190808035906020019064010000000081111561018d57600080fd5b82018360208201111561019f57600080fd5b803590602001918460018302840111640100000000831117156101c157600080fd5b91908080601f016020809104026020016040519081016040528093929190818152602001838380828437600081840152601f19601f8201169050808301925050505050505091929192905050506114ef565b6040518080602001828103825283818151815260200191508051906020019080838360005b83811015610253578082015181840152602081019050610238565b50505050905090810190601f1680156102805780820380516001836020036101000a031916815260200191505b509250505060405180910390f35b34801561029a57600080fd5b506102c7600480360360208110156102b157600080fd5b81019080803590602001909291905050506115fc565b6040518080602001828103825283818151815260200191508051906020019080838360005b838110156103075780820151818401526020810190506102ec565b50505050905090810190601f1680156103345780820380516001836020036101000a031916815260200191505b509250505060405180910390f35b34801561034e57600080fd5b506104086004803603602081101561036557600080fd5b810190808035906020019064010000000081111561038257600080fd5b82018360208201111561039457600080fd5b803590602001918460018302840111640100000000831117156103b657600080fd5b91908080601f016020809104026020016040519081016040528093929190818152602001838380828437600081840152601f19601f8201169050808301925050505050505091929192905050506116b7565b604051808215151515815260200191505060405180910390f35b34801561042e57600080fd5b506104716004803603602081101561044557600080fd5b81019080803573ffffffffffffffffffffffffffffffffffffffff1690602001909291905050506117f6565b6040518082815260200191505060405180910390f35b34801561049357600080fd5b5061054d600480360360208110156104aa57600080fd5b81019080803590602001906401000000008111156104c757600080fd5b8201836020820111156104d957600080fd5b803590602001918460018302840111640100000000831117156104fb57600080fd5b91908080601f016020809104026020016040519081016040528093929190818152602001838380828437600081840152601f19601f820116905080830192505050505050509192919290505050611842565b6040518080602001828103825283818151815260200191508051906020019080838360005b8381101561058d578082015181840152602081019050610572565b50505050905090810190601f1680156105ba5780820380516001836020036101000a031916815260200191505b509250505060405180910390f35b3480156105d457600080fd5b50610601600480360360208110156105eb57600080fd5b810190808035906020019092919050505061194f565b6040518080602001828103825283818151815260200191508051906020019080838360005b83811015610641578082015181840152602081019050610626565b50505050905090810190601f16801561066e5780820380516001836020036101000a031916815260200191505b509250505060405180910390f35b34801561068857600080fd5b506107d96004803603604081101561069f57600080fd5b81019080803590602001906401000000008111156106bc57600080fd5b8201836020820111156106ce57600080fd5b803590602001918460018302840111640100000000831117156106f057600080fd5b91908080601f016020809104026020016040519081016040528093929190818152602001838380828437600081840152601f19601f8201169050808301925050505050505091929192908035906020019064010000000081111561075357600080fd5b82018360208201111561076557600080fd5b8035906020019184600183028401116401000000008311171561078757600080fd5b91908080601f016020809104026020016040519081016040528093929190818152602001838380828437600081840152601f19601f820116905080830192505050505050509192919290505050611a0a565b005b3480156107e757600080fd5b506108c1600480360360408110156107fe57600080fd5b81019080803573ffffffffffffffffffffffffffffffffffffffff1690602001909291908035906020019064010000000081111561083b57600080fd5b82018360208201111561084d57600080fd5b8035906020019184600183028401116401000000008311171561086f57600080fd5b91908080601f016020809104026020016040519081016040528093929190818152602001838380828437600081840152601f19601f820116905080830192505050505050509192919290505050611b0f565b604051808215151515815260200191505060405180910390f35b3480156108e757600080fd5b50610a38600480360360408110156108fe57600080fd5b810190808035906020019064010000000081111561091b57600080fd5b82018360208201111561092d57600080fd5b8035906020019184600183028401116401000000008311171561094f57600080fd5b91908080601f016020809104026020016040519081016040528093929190818152602001838380828437600081840152601f19601f820116905080830192505050505050509192919290803590602001906401000000008111156109b257600080fd5b8201836020820111156109c457600080fd5b803590602001918460018302840111640100000000831117156109e657600080fd5b91908080601f016020809104026020016040519081016040528093929190818152602001838380828437600081840152601f19601f820116905080830192505050505050509192919290505050611da5565b005b348015610a4657600080fd5b50610b0060048036036020811015610a5d57600080fd5b8101908080359060200190640100000000811115610a7a57600080fd5b820183602082011115610a8c57600080fd5b80359060200191846001830284011164010000000083111715610aae57600080fd5b91908080601f016020809104026020016040519081016040528093929190818152602001838380828437600081840152601f19601f820116905080830192505050505050509192919290505050611e29565b604051808215151515815260200191505060405180910390f35b348015610b2657600080fd5b50610c7760048036036040811015610b3d57600080fd5b8101908080359060200190640100000000811115610b5a57600080fd5b820183602082011115610b6c57600080fd5b80359060200191846001830284011164010000000083111715610b8e57600080fd5b91908080601f016020809104026020016040519081016040528093929190818152602001838380828437600081840152601f19601f82011690508083019250505050505050919291929080359060200190640100000000811115610bf157600080fd5b820183602082011115610c0357600080fd5b80359060200191846001830284011164010000000083111715610c2557600080fd5b91908080601f016020809104026020016040519081016040528093929190818152602001838380828437600081840152601f19601f820116905080830192505050505050509192919290505050611f68565b005b348015610c8557600080fd5b50610c8e61202b565b6040518082815260200191505060405180910390f35b348015610cb057600080fd5b50610d6a60048036036020811015610cc757600080fd5b8101908080359060200190640100000000811115610ce457600080fd5b820183602082011115610cf657600080fd5b80359060200191846001830284011164010000000083111715610d1857600080fd5b91908080601f016020809104026020016040519081016040528093929190818152602001838380828437600081840152601f19601f820116905080830192505050505050509192919290505050612038565b6040518080602001828103825283818151815260200191508051906020019080838360005b83811015610daa578082015181840152602081019050610d8f565b50505050905090810190601f168015610dd75780820380516001836020036101000a031916815260200191505b509250505060405180910390f35b348015610df157600080fd5b50610eab60048036036020811015610e0857600080fd5b8101908080359060200190640100000000811115610e2557600080fd5b820183602082011115610e3757600080fd5b80359060200191846001830284011164010000000083111715610e5957600080fd5b91908080601f016020809104026020016040519081016040528093929190818152602001838380828437600081840152601f19601f820116905080830192505050505050509192919290505050612145565b6040518080602001828103825283818151815260200191508051906020019080838360005b83811015610eeb578082015181840152602081019050610ed0565b50505050905090810190601f168015610f185780820380516001836020036101000a031916815260200191505b509250505060405180910390f35b348015610f3257600080fd5b50610f5f60048036036020811015610f4957600080fd5b8101908080359060200190929190505050612252565b6040518080602001828103825283818151815260200191508051906020019080838360005b83811015610f9f578082015181840152602081019050610f84565b50505050905090810190601f168015610fcc5780820380516001836020036101000a031916815260200191505b509250505060405180910390f35b348015610fe657600080fd5b50610fef61230d565b6040518082815260200191505060405180910390f35b34801561101157600080fd5b506111626004803603604081101561102857600080fd5b810190808035906020019064010000000081111561104557600080fd5b82018360208201111561105757600080fd5b8035906020019184600183028401116401000000008311171561107957600080fd5b91908080601f016020809104026020016040519081016040528093929190818152602001838380828437600081840152601f19601f820116905080830192505050505050509192919290803590602001906401000000008111156110dc57600080fd5b8201836020820111156110ee57600080fd5b8035906020019184600183028401116401000000008311171561111057600080fd5b91908080601f016020809104026020016040519081016040528093929190818152602001838380828437600081840152601f19601f82011690508083019250505050505050919291929050505061231a565b005b34801561117057600080fd5b506112346004803603604081101561118757600080fd5b81019080803590602001906401000000008111156111a457600080fd5b8201836020820111156111b657600080fd5b803590602001918460018302840111640100000000831117156111d857600080fd5b91908080601f016020809104026020016040519081016040528093929190818152602001838380828437600081840152601f19601f820116905080830192505050505050509192919290803590602001909291905050506123dd565b6040518080602001828103825283818151815260200191508051906020019080838360005b83811015611274578082015181840152602081019050611259565b50505050905090810190601f1680156112a15780820380516001836020036101000a031916815260200191505b509250505060405180910390f35b3480156112bb57600080fd5b5061140c600480360360408110156112d257600080fd5b81019080803590602001906401000000008111156112ef57600080fd5b82018360208201111561130157600080fd5b8035906020019184600183028401116401000000008311171561132357600080fd5b91908080601f016020809104026020016040519081016040528093929190818152602001838380828437600081840152601f19601f8201169050808301925050505050505091929192908035906020019064010000000081111561138657600080fd5b82018360208201111561139857600080fd5b803590602001918460018302840111640100000000831117156113ba57600080fd5b91908080601f016020809104026020016040519081016040528093929190818152602001838380828437600081840152601f19601f820116905080830192505050505050509192919290505050612505565b005b34801561141a57600080fd5b506114676004803603604081101561143157600080fd5b81019080803573ffffffffffffffffffffffffffffffffffffffff16906020019092919080359060200190929190505050612589565b6040518080602001828103825283818151815260200191508051906020019080838360005b838110156114a757808201518184015260208101905061148c565b50505050905090810190601f1680156114d45780820380516001836020036101000a031916815260200191505b509250505060405180910390f35b6000600280549050905090565b60606004826040518082805190602001908083835b6020831015156115295780518252602082019150602081019050602083039250611504565b6001836020036101000a03801982511681845116808217855250505050505090500191505090815260200160405180910390208054600181600116156101000203166002900480601f0160208091040260200160405190810160405280929190818152602001828054600181600116156101000203166002900480156115f05780601f106115c5576101008083540402835291602001916115f0565b820191906000526020600020905b8154815290600101906020018083116115d357829003601f168201915b50505050509050919050565b60078181548110151561160b57fe5b906000526020600020016000915090508054600181600116156101000203166002900480601f0160208091040260200160405190810160405280929190818152602001828054600181600116156101000203166002900480156116af5780601f10611684576101008083540402835291602001916116af565b820191906000526020600020905b81548152906001019060200180831161169257829003601f168201915b505050505081565b60008060009050600160028054905003811115156117ef57826040516020018082805190602001908083835b60208310151561170857805182526020820191506020810190506020830392506116e3565b6001836020036101000a0380198251168184511680821785525050505050509050019150506040516020818303038152906040528051906020012060028281548110151561175257fe5b9060005260206000200160405160200180828054600181600116156101000203166002900480156117ba5780601f106117985761010080835404028352918201916117ba565b820191906000526020600020905b8154815290600101906020018083116117a6575b50509150506040516020818303038152906040528051906020012014156117e55760019150506117f1565b60009150506117f1565b505b919050565b6000600660008373ffffffffffffffffffffffffffffffffffffffff1673ffffffffffffffffffffffffffffffffffffffff168152602001908152602001600020805490509050919050565b60606003826040518082805190602001908083835b60208310151561187c5780518252602082019150602081019050602083039250611857565b6001836020036101000a03801982511681845116808217855250505050505090500191505090815260200160405180910390208054600181600116156101000203166002900480601f0160208091040260200160405190810160405280929190818152602001828054600181600116156101000203166002900480156119435780601f1061191857610100808354040283529160200191611943565b820191906000526020600020905b81548152906001019060200180831161192657829003601f168201915b50505050509050919050565b60098181548110151561195e57fe5b906000526020600020016000915090508054600181600116156101000203166002900480601f016020809104026020016040519081016040528092919081815260200182805460018160011615610100020316600290048015611a025780601f106119d757610100808354040283529160200191611a02565b820191906000526020600020905b8154815290600101906020018083116119e557829003601f168201915b505050505081565b6008826040518082805190602001908083835b602083101515611a425780518252602082019150602081019050602083039250611a1d565b6001836020036101000a0380198251168184511680821785525050505050509050019150509081526020016040518091039020602060405190810160405280838152509080600181540180825580915050906001820390600052602060002001600090919290919091506000820151816000019080519060200190611ac8929190612685565b505050506009819080600181540180825580915050906001820390600052602060002001600090919290919091509080519060200190611b09929190612705565b50505050565b600080600090505b600660008573ffffffffffffffffffffffffffffffffffffffff1673ffffffffffffffffffffffffffffffffffffffff16815260200190815260200160002080549050811015611cc457600660008573ffffffffffffffffffffffffffffffffffffffff1673ffffffffffffffffffffffffffffffffffffffff16815260200190815260200160002081815481101515611bad57fe5b906000526020600020016000016040516020018082805460018160011615610100020316600290048015611c185780601f10611bf6576101008083540402835291820191611c18565b820191906000526020600020905b815481529060010190602001808311611c04575b505091505060405160208183030381529060405280519060200120836040516020018082805190602001908083835b602083101515611c6c5780518252602082019150602081019050602083039250611c47565b6001836020036101000a038019825116818451168082178552505050505050905001915050604051602081830303815290604052805190602001201415611cb7576000915050611d9f565b8080600101915050611b17565b50600660008473ffffffffffffffffffffffffffffffffffffffff1673ffffffffffffffffffffffffffffffffffffffff168152602001908152602001600020602060405190810160405280848152509080600181540180825580915050906001820390600052602060002001600090919290919091506000820151816000019080519060200190611d57929190612685565b505050506007829080600181540180825580915050906001820390600052602060002001600090919290919091509080519060200190611d98929190612705565b5050600190505b92915050565b806001836040518082805190602001908083835b602083101515611dde5780518252602082019150602081019050602083039250611db9565b6001836020036101000a03801982511681845116808217855250505050505090500191505090815260200160405180910390209080519060200190611e24929190612705565b505050565b6000806000905060016005805490500381111515611f6157826040516020018082805190602001908083835b602083101515611e7a5780518252602082019150602081019050602083039250611e55565b6001836020036101000a03801982511681845116808217855250505050505090500191505060405160208183030381529060405280519060200120600582815481101515611ec457fe5b906000526020600020016040516020018082805460018160011615610100020316600290048015611f2c5780601f10611f0a576101008083540402835291820191611f2c565b820191906000526020600020905b815481529060010190602001808311611f18575b5050915050604051602081830303815290604052805190602001201415611f57576001915050611f63565b6000915050611f63565b505b919050565b806003836040518082805190602001908083835b602083101515611fa15780518252602082019150602081019050602083039250611f7c565b6001836020036101000a03801982511681845116808217855250505050505090500191505090815260200160405180910390209080519060200190611fe7929190612705565b506005829080600181540180825580915050906001820390600052602060002001600090919290919091509080519060200190612025929190612705565b50505050565b6000600780549050905090565b60606000826040518082805190602001908083835b602083101515612072578051825260208201915060208101905060208303925061204d565b6001836020036101000a03801982511681845116808217855250505050505090500191505090815260200160405180910390208054600181600116156101000203166002900480601f0160208091040260200160405190810160405280929190818152602001828054600181600116156101000203166002900480156121395780601f1061210e57610100808354040283529160200191612139565b820191906000526020600020905b81548152906001019060200180831161211c57829003601f168201915b50505050509050919050565b60606001826040518082805190602001908083835b60208310151561217f578051825260208201915060208101905060208303925061215a565b6001836020036101000a03801982511681845116808217855250505050505090500191505090815260200160405180910390208054600181600116156101000203166002900480601f0160208091040260200160405190810160405280929190818152602001828054600181600116156101000203166002900480156122465780601f1061221b57610100808354040283529160200191612246565b820191906000526020600020905b81548152906001019060200180831161222957829003601f168201915b50505050509050919050565b606060078281548110151561226357fe5b906000526020600020018054600181600116156101000203166002900480601f0160208091040260200160405190810160405280929190818152602001828054600181600116156101000203166002900480156123015780601f106122d657610100808354040283529160200191612301565b820191906000526020600020905b8154815290600101906020018083116122e457829003601f168201915b50505050509050919050565b6000600580549050905090565b806000836040518082805190602001908083835b602083101515612353578051825260208201915060208101905060208303925061232e565b6001836020036101000a03801982511681845116808217855250505050505090500191505090815260200160405180910390209080519060200190612399929190612705565b5060028290806001815401808255809150509060018203906000526020600020016000909192909190915090805190602001906123d7929190612705565b50505050565b60606008836040518082805190602001908083835b60208310151561241757805182526020820191506020810190506020830392506123f2565b6001836020036101000a03801982511681845116808217855250505050505090500191505090815260200160405180910390208281548110151561245757fe5b906000526020600020016000018054600181600116156101000203166002900480601f0160208091040260200160405190810160405280929190818152602001828054600181600116156101000203166002900480156124f85780601f106124cd576101008083540402835291602001916124f8565b820191906000526020600020905b8154815290600101906020018083116124db57829003601f168201915b5050505050905092915050565b806004836040518082805190602001908083835b60208310151561253e5780518252602082019150602081019050602083039250612519565b6001836020036101000a03801982511681845116808217855250505050505090500191505090815260200160405180910390209080519060200190612584929190612705565b505050565b6060600660008473ffffffffffffffffffffffffffffffffffffffff1673ffffffffffffffffffffffffffffffffffffffff168152602001908152602001600020828154811015156125d757fe5b906000526020600020016000018054600181600116156101000203166002900480601f0160208091040260200160405190810160405280929190818152602001828054600181600116156101000203166002900480156126785780601f1061264d57610100808354040283529160200191612678565b820191906000526020600020905b81548152906001019060200180831161265b57829003601f168201915b5050505050905092915050565b828054600181600116156101000203166002900490600052602060002090601f016020900481019282601f106126c657805160ff19168380011785556126f4565b828001600101855582156126f4579182015b828111156126f35782518255916020019190600101906126d8565b5b5090506127019190612785565b5090565b828054600181600116156101000203166002900490600052602060002090601f016020900481019282601f1061274657805160ff1916838001178555612774565b82800160010185558215612774579182015b82811115612773578251825591602001919060010190612758565b5b5090506127819190612785565b5090565b6127a791905b808211156127a357600081600090555060010161278b565b5090565b9056fea165627a7a72305820cb4b6c5cefd71e6ef90ba376bbcd57c50180ee41dea482945a93a36fe2e98dd00029",
  "source": "pragma solidity ^0.5.0;\r\n\r\ncontract Election{\r\n\r\n    //Organizer mapping of Credentials and Personal Information\r\n    mapping (string => string) OrganizerCredentials;\r\n    mapping (string => string) OrganizerPersonal;\r\n    string[] OrganizerUsername;\r\n\r\n    //Candidate mapping of Credentials and Personal Information\r\n    mapping (string => string) CandidateCredentials;\r\n    mapping (string => string) CandidatePersonal;\r\n    string[] CandidateUsername;\r\n\r\n    //struct for contain number of Elections in place\r\n    struct ElectionHash{\r\n        string hash;\r\n    } \r\n\r\n    //mapping for map the Oragnizer's mutliple Election to thier address\r\n    mapping (address => ElectionHash[]) OrganizerElections;\r\n    string[] public Elections;\r\n\r\n    //mapping for candidate request for particular election\r\n    struct RequestHash{\r\n        string hash;\r\n    }\r\n    mapping (string => RequestHash[]) CandidateRequests;\r\n    string[] public ElectionRequests;\r\n\r\n    //function for Organizers\r\n\r\n    function setOrganizerCredentials(string memory _username, string memory _hash) public {\r\n        OrganizerCredentials[_username] = _hash;\r\n        OrganizerUsername.push(_username);\r\n    }\r\n\r\n    function setOrganizerPersonal(string memory _username, string memory _hash) public {\r\n        OrganizerPersonal[_username] = _hash;\r\n    }\r\n\r\n    function getOrganizerCredentials(string memory _username) public view returns(string memory){\r\n        return OrganizerCredentials[_username];\r\n    }\r\n\r\n    function getOrganizerPersonal(string memory _username) public view returns(string memory){\r\n        return OrganizerPersonal[_username];\r\n    }\r\n\r\n    function getOrganizersCount() public view returns(uint){\r\n        return OrganizerUsername.length;\r\n    }\r\n\r\n    function findOrganizer(string memory _username) public view returns(bool){\r\n        for(uint i = 0; i <= OrganizerUsername.length - 1; i++){\r\n            if(keccak256(abi.encodePacked(OrganizerUsername[i])) == keccak256(abi.encodePacked(_username)))   return true;\r\n            else return false;\r\n        }\r\n    }\r\n\r\n    //fucntion for Elections\r\n    function addElection(address _add, string memory _hash) public returns(bool){\r\n        for(uint i = 0; i < OrganizerElections[_add].length ; i++){\r\n            if(keccak256(abi.encodePacked(_hash)) == keccak256(abi.encodePacked(OrganizerElections[_add][i].hash))) return false;\r\n        }\r\n        OrganizerElections[_add].push(ElectionHash(_hash));\r\n        Elections.push(_hash);\r\n        return true;\r\n    }\r\n    \r\n    function getElection(address _add, uint _index) public view returns(string memory){\r\n        return OrganizerElections[_add][_index].hash;\r\n    }\r\n\r\n    function organizerElectionCount(address _add) public view returns(uint){\r\n        return OrganizerElections[_add].length;\r\n    } \r\n\r\n    function getElections(uint _index) public view returns(string memory){\r\n        return Elections[_index];\r\n    }\r\n\r\n    function electionsCount() public view returns(uint){\r\n        return Elections.length;\r\n    } \r\n\r\n    //functions for Candidates  \r\n    function setCandidateCredentials(string memory _username, string memory _hash) public {\r\n        CandidateCredentials[_username] = _hash;\r\n        CandidateUsername.push(_username);\r\n    }\r\n\r\n    function setCandidatePersonal(string memory _username, string memory _hash) public {\r\n        CandidatePersonal[_username] = _hash;\r\n    }\r\n\r\n    function getCandidateCredentials(string memory _username) public view returns(string memory){\r\n        return CandidateCredentials[_username];\r\n    }\r\n\r\n    function getCandidatePersonal(string memory _username) public view returns(string memory){\r\n        return CandidatePersonal[_username];\r\n    }\r\n\r\n    function getCandidatesCount() public view returns(uint){\r\n        return CandidateUsername.length;\r\n    }\r\n\r\n    function findCandidate(string memory _username) public view returns(bool){\r\n        for(uint i = 0; i <= CandidateUsername.length - 1; i++){\r\n            if(keccak256(abi.encodePacked(CandidateUsername[i])) == keccak256(abi.encodePacked(_username)))   return true;\r\n            else return false;\r\n        }\r\n    }\r\n\r\n    //function for Election Requests\r\n    function setRequest(string memory _username, string memory _hash) public {\r\n        CandidateRequests[_username].push(RequestHash(_hash));\r\n        ElectionRequests.push(_hash);\r\n    }\r\n\r\n    function getRequest(string memory _username, uint _index) public view returns(string memory){\r\n        return CandidateRequests[_username][_index].hash;\r\n    }\r\n}",
  "sourcePath": "C:/Users/Prateek Patel/Desktop/Dogovote3/DigiVote/contracts/Election.sol",
  "compiler": {
    "name": "solc",
    "version": "0.5.0+commit.1d4f565a.Emscripten.clang"
  },
  "schemaVersion": "3.0.2",
  "updatedAt": "2019-03-21T11:51:08.745Z",
  "devdoc": {
    "methods": {}
  },
  "userdoc": {
    "methods": {}
  }
}