{
  "contractName": "Election",
  "abi": [
    {
      "constant": true,
      "inputs": [
        {
          "name": "",
          "type": "uint256"
        }
      ],
      "name": "Elections",
      "outputs": [
        {
          "name": "",
          "type": "string"
        }
      ],
      "payable": false,
      "stateMutability": "view",
      "type": "function",
      "signature": "0x1e9598e2"
    },
    {
      "constant": true,
      "inputs": [
        {
          "name": "",
          "type": "uint256"
        }
      ],
      "name": "ElectionRequests",
      "outputs": [
        {
          "name": "username",
          "type": "string"
        },
        {
          "name": "electionHash",
          "type": "string"
        },
        {
          "name": "time",
          "type": "string"
        },
        {
          "name": "place",
          "type": "string"
        },
        {
          "name": "status",
          "type": "string"
        }
      ],
      "payable": false,
      "stateMutability": "view",
      "type": "function",
      "signature": "0x4f764622"
    },
    {
      "constant": false,
      "inputs": [
        {
          "name": "_username",
          "type": "string"
        },
        {
          "name": "_hash",
          "type": "string"
        }
      ],
      "name": "setOrganizerCredentials",
      "outputs": [],
      "payable": false,
      "stateMutability": "nonpayable",
      "type": "function",
      "signature": "0xc6954bb9"
    },
    {
      "constant": false,
      "inputs": [
        {
          "name": "_username",
          "type": "string"
        },
        {
          "name": "_hash",
          "type": "string"
        }
      ],
      "name": "setOrganizerPersonal",
      "outputs": [],
      "payable": false,
      "stateMutability": "nonpayable",
      "type": "function",
      "signature": "0x59b2dc85"
    },
    {
      "constant": true,
      "inputs": [
        {
          "name": "_username",
          "type": "string"
        }
      ],
      "name": "getOrganizerCredentials",
      "outputs": [
        {
          "name": "",
          "type": "string"
        }
      ],
      "payable": false,
      "stateMutability": "view",
      "type": "function",
      "signature": "0xa62a4b04"
    },
    {
      "constant": true,
      "inputs": [
        {
          "name": "_username",
          "type": "string"
        }
      ],
      "name": "getOrganizerPersonal",
      "outputs": [
        {
          "name": "",
          "type": "string"
        }
      ],
      "payable": false,
      "stateMutability": "view",
      "type": "function",
      "signature": "0xa97dd664"
    },
    {
      "constant": true,
      "inputs": [],
      "name": "getOrganizersCount",
      "outputs": [
        {
          "name": "",
          "type": "uint256"
        }
      ],
      "payable": false,
      "stateMutability": "view",
      "type": "function",
      "signature": "0x039f6ac2"
    },
    {
      "constant": true,
      "inputs": [
        {
          "name": "_username",
          "type": "string"
        }
      ],
      "name": "findOrganizer",
      "outputs": [
        {
          "name": "",
          "type": "bool"
        }
      ],
      "payable": false,
      "stateMutability": "view",
      "type": "function",
      "signature": "0x288cb036"
    },
    {
      "constant": false,
      "inputs": [
        {
          "name": "_add",
          "type": "address"
        },
        {
          "name": "_hash",
          "type": "string"
        }
      ],
      "name": "addElection",
      "outputs": [
        {
          "name": "",
          "type": "bool"
        }
      ],
      "payable": false,
      "stateMutability": "nonpayable",
      "type": "function",
      "signature": "0x584399ee"
    },
    {
      "constant": true,
      "inputs": [
        {
          "name": "_add",
          "type": "address"
        },
        {
          "name": "_index",
          "type": "uint256"
        }
      ],
      "name": "getElection",
      "outputs": [
        {
          "name": "",
          "type": "string"
        }
      ],
      "payable": false,
      "stateMutability": "view",
      "type": "function",
      "signature": "0xf0a1880a"
    },
    {
      "constant": true,
      "inputs": [
        {
          "name": "_add",
          "type": "address"
        }
      ],
      "name": "organizerElectionCount",
      "outputs": [
        {
          "name": "",
          "type": "uint256"
        }
      ],
      "payable": false,
      "stateMutability": "view",
      "type": "function",
      "signature": "0x3b76293d"
    },
    {
      "constant": true,
      "inputs": [
        {
          "name": "_index",
          "type": "uint256"
        }
      ],
      "name": "getElections",
      "outputs": [
        {
          "name": "",
          "type": "string"
        }
      ],
      "payable": false,
      "stateMutability": "view",
      "type": "function",
      "signature": "0xb1c0fbf6"
    },
    {
      "constant": true,
      "inputs": [],
      "name": "electionsCount",
      "outputs": [
        {
          "name": "",
          "type": "uint256"
        }
      ],
      "payable": false,
      "stateMutability": "view",
      "type": "function",
      "signature": "0x9a74c695"
    },
    {
      "constant": false,
      "inputs": [
        {
          "name": "_username",
          "type": "string"
        },
        {
          "name": "_hash",
          "type": "string"
        }
      ],
      "name": "setCandidateCredentials",
      "outputs": [],
      "payable": false,
      "stateMutability": "nonpayable",
      "type": "function",
      "signature": "0x877cef19"
    },
    {
      "constant": false,
      "inputs": [
        {
          "name": "_username",
          "type": "string"
        },
        {
          "name": "_hash",
          "type": "string"
        }
      ],
      "name": "setCandidatePersonal",
      "outputs": [],
      "payable": false,
      "stateMutability": "nonpayable",
      "type": "function",
      "signature": "0xd25d65c4"
    },
    {
      "constant": true,
      "inputs": [
        {
          "name": "_username",
          "type": "string"
        }
      ],
      "name": "getCandidateCredentials",
      "outputs": [
        {
          "name": "",
          "type": "string"
        }
      ],
      "payable": false,
      "stateMutability": "view",
      "type": "function",
      "signature": "0x4ae62591"
    },
    {
      "constant": true,
      "inputs": [
        {
          "name": "_username",
          "type": "string"
        }
      ],
      "name": "getCandidatePersonal",
      "outputs": [
        {
          "name": "",
          "type": "string"
        }
      ],
      "payable": false,
      "stateMutability": "view",
      "type": "function",
      "signature": "0x1d81955d"
    },
    {
      "constant": true,
      "inputs": [],
      "name": "getCandidatesCount",
      "outputs": [
        {
          "name": "",
          "type": "uint256"
        }
      ],
      "payable": false,
      "stateMutability": "view",
      "type": "function",
      "signature": "0xbb9aa28f"
    },
    {
      "constant": true,
      "inputs": [
        {
          "name": "_username",
          "type": "string"
        }
      ],
      "name": "findCandidate",
      "outputs": [
        {
          "name": "",
          "type": "bool"
        }
      ],
      "payable": false,
      "stateMutability": "view",
      "type": "function",
      "signature": "0x76830a0d"
    },
    {
      "constant": false,
      "inputs": [
        {
          "name": "_username",
          "type": "string"
        },
        {
          "name": "_electionHash",
          "type": "string"
        },
        {
          "name": "_time",
          "type": "string"
        },
        {
          "name": "_place",
          "type": "string"
        },
        {
          "name": "_status",
          "type": "string"
        }
      ],
      "name": "setRequest",
      "outputs": [],
      "payable": false,
      "stateMutability": "nonpayable",
      "type": "function",
      "signature": "0x27f8583c"
    },
    {
      "constant": true,
      "inputs": [
        {
          "name": "_username",
          "type": "string"
        },
        {
          "name": "_index",
          "type": "uint256"
        }
      ],
      "name": "getRequest",
      "outputs": [
        {
          "name": "",
          "type": "string"
        },
        {
          "name": "",
          "type": "string"
        },
        {
          "name": "",
          "type": "string"
        },
        {
          "name": "",
          "type": "string"
        },
        {
          "name": "",
          "type": "string"
        }
      ],
      "payable": false,
      "stateMutability": "view",
      "type": "function",
      "signature": "0xcf05ed42"
    },
    {
      "constant": true,
      "inputs": [
        {
          "name": "_username",
          "type": "string"
        }
      ],
      "name": "candidateRequestsCount",
      "outputs": [
        {
          "name": "",
          "type": "uint256"
        }
      ],
      "payable": false,
      "stateMutability": "view",
      "type": "function",
      "signature": "0xc85a2662"
    },
    {
      "constant": true,
      "inputs": [
        {
          "name": "_index",
          "type": "uint256"
        }
      ],
      "name": "getAllRequest",
      "outputs": [
        {
          "name": "",
          "type": "string"
        },
        {
          "name": "",
          "type": "string"
        },
        {
          "name": "",
          "type": "string"
        },
        {
          "name": "",
          "type": "string"
        },
        {
          "name": "",
          "type": "string"
        }
      ],
      "payable": false,
      "stateMutability": "view",
      "type": "function",
      "signature": "0x71190688"
    },
    {
      "constant": true,
      "inputs": [],
      "name": "requestsCount",
      "outputs": [
        {
          "name": "",
          "type": "uint256"
        }
      ],
      "payable": false,
      "stateMutability": "view",
      "type": "function",
      "signature": "0xfbfa4b7f"
    },
    {
      "constant": false,
      "inputs": [
        {
          "name": "_allRequestIndex",
          "type": "uint256"
        },
        {
          "name": "_candidateRequestIndex",
          "type": "uint256"
        },
        {
          "name": "_username",
          "type": "string"
        },
        {
          "name": "_status",
          "type": "string"
        }
      ],
      "name": "updateRequestStatus",
      "outputs": [],
      "payable": false,
      "stateMutability": "nonpayable",
      "type": "function",
      "signature": "0xd2532993"
    },
    {
      "constant": false,
      "inputs": [
        {
          "name": "_electionHash",
          "type": "string"
        },
        {
          "name": "_username",
          "type": "string"
        }
      ],
      "name": "addCandidate",
      "outputs": [],
      "payable": false,
      "stateMutability": "nonpayable",
      "type": "function",
      "signature": "0x26541b56"
    },
    {
      "constant": true,
      "inputs": [
        {
          "name": "_electionHash",
          "type": "string"
        }
      ],
      "name": "countElectionCandidates",
      "outputs": [
        {
          "name": "",
          "type": "uint256"
        }
      ],
      "payable": false,
      "stateMutability": "view",
      "type": "function",
      "signature": "0xf856c027"
    },
    {
      "constant": true,
      "inputs": [
        {
          "name": "_electionHash",
          "type": "string"
        },
        {
          "name": "_index",
          "type": "uint256"
        }
      ],
      "name": "getSelectedCandidates",
      "outputs": [
        {
          "name": "",
          "type": "string"
        },
        {
          "name": "",
          "type": "uint256"
        }
      ],
      "payable": false,
      "stateMutability": "view",
      "type": "function",
      "signature": "0x751d09eb"
    },
    {
      "constant": false,
      "inputs": [
        {
          "name": "_electionHash",
          "type": "string"
        },
        {
          "name": "_username",
          "type": "string"
        },
        {
          "name": "_index",
          "type": "uint256"
        }
      ],
      "name": "voteSelectedCandidates",
      "outputs": [],
      "payable": false,
      "stateMutability": "nonpayable",
      "type": "function",
      "signature": "0xae842953"
    },
    {
      "constant": true,
      "inputs": [
        {
          "name": "_electionHash",
          "type": "string"
        }
      ],
      "name": "aadhaarCount",
      "outputs": [
        {
          "name": "",
          "type": "uint256"
        }
      ],
      "payable": false,
      "stateMutability": "view",
      "type": "function",
      "signature": "0x5752b7a3"
    },
    {
      "constant": true,
      "inputs": [
        {
          "name": "_electionHash",
          "type": "string"
        },
        {
          "name": "_index",
          "type": "uint256"
        }
      ],
      "name": "checkAadhaar",
      "outputs": [
        {
          "name": "",
          "type": "uint256"
        }
      ],
      "payable": false,
      "stateMutability": "view",
      "type": "function",
      "signature": "0x71fef2c7"
    },
    {
      "constant": false,
      "inputs": [
        {
          "name": "_electionHash",
          "type": "string"
        },
        {
          "name": "_aadhaar",
          "type": "uint256"
        }
      ],
      "name": "addAadhaar",
      "outputs": [],
      "payable": false,
      "stateMutability": "nonpayable",
      "type": "function",
      "signature": "0x40916f17"
    },
    {
      "constant": false,
      "inputs": [
        {
          "name": "_voterHash",
          "type": "string"
        },
        {
          "name": "_add",
          "type": "address"
        },
        {
          "name": "_password",
          "type": "string"
        }
      ],
      "name": "addVoterAccount",
      "outputs": [],
      "payable": false,
      "stateMutability": "nonpayable",
      "type": "function",
      "signature": "0xca9d5e74"
    },
    {
      "constant": true,
      "inputs": [
        {
          "name": "_voterHash",
          "type": "string"
        }
      ],
      "name": "getVoterAccount",
      "outputs": [
        {
          "name": "",
          "type": "address"
        },
        {
          "name": "",
          "type": "string"
        }
      ],
      "payable": false,
      "stateMutability": "view",
      "type": "function",
      "signature": "0x4d539b7d"
    },
    {
      "constant": false,
      "inputs": [
        {
          "name": "_electionHash",
          "type": "string"
        },
        {
          "name": "_voterHash",
          "type": "string"
        }
      ],
      "name": "addVoterToElection",
      "outputs": [],
      "payable": false,
      "stateMutability": "nonpayable",
      "type": "function",
      "signature": "0x5e737393"
    },
    {
      "constant": true,
      "inputs": [
        {
          "name": "_electionHash",
          "type": "string"
        },
        {
          "name": "_index",
          "type": "uint256"
        }
      ],
      "name": "getVoterToElection",
      "outputs": [
        {
          "name": "",
          "type": "string"
        }
      ],
      "payable": false,
      "stateMutability": "view",
      "type": "function",
      "signature": "0xa732f1f1"
    }
  ],
  "bytecode": "0x608060405234801561001057600080fd5b506158c980620000216000396000f3fe6080604052600436106101c2576000357c0100000000000000000000000000000000000000000000000000000000900463ffffffff168063039f6ac2146101c75780631d81955d146101f25780631e9598e21461033357806326541b56146103e757806327f8583c14610546578063288cb0361461086a5780633b76293d1461094a57806340916f17146109af5780634ae6259114610a815780634d539b7d14610bc25780634f76462214610d365780635752b7a314610f9a578063584399ee1461107657806359b2dc85146111765780635e737393146112d5578063711906881461143457806371fef2c714611698578063751d09eb1461177e57806376830a0d146118d0578063877cef19146119b05780639a74c69514611b0f578063a62a4b0414611b3a578063a732f1f114611c7b578063a97dd66414611dc6578063ae84295314611f07578063b1c0fbf614612070578063bb9aa28f14612124578063c6954bb91461214f578063c85a2662146122ae578063ca9d5e741461238a578063cf05ed4214612509578063d253299314612804578063d25d65c414612977578063f0a1880a14612ad6578063f856c02714612baa578063fbfa4b7f14612c86575b600080fd5b3480156101d357600080fd5b506101dc612cb1565b6040518082815260200191505060405180910390f35b3480156101fe57600080fd5b506102b86004803603602081101561021557600080fd5b810190808035906020019064010000000081111561023257600080fd5b82018360208201111561024457600080fd5b8035906020019184600183028401116401000000008311171561026657600080fd5b91908080601f016020809104026020016040519081016040528093929190818152602001838380828437600081840152601f19601f820116905080830192505050505050509192919290505050612cbe565b6040518080602001828103825283818151815260200191508051906020019080838360005b838110156102f85780820151818401526020810190506102dd565b50505050905090810190601f1680156103255780820380516001836020036101000a031916815260200191505b509250505060405180910390f35b34801561033f57600080fd5b5061036c6004803603602081101561035657600080fd5b8101908080359060200190929190505050612dcb565b6040518080602001828103825283818151815260200191508051906020019080838360005b838110156103ac578082015181840152602081019050610391565b50505050905090810190601f1680156103d95780820380516001836020036101000a031916815260200191505b509250505060405180910390f35b3480156103f357600080fd5b506105446004803603604081101561040a57600080fd5b810190808035906020019064010000000081111561042757600080fd5b82018360208201111561043957600080fd5b8035906020019184600183028401116401000000008311171561045b57600080fd5b91908080601f016020809104026020016040519081016040528093929190818152602001838380828437600081840152601f19601f820116905080830192505050505050509192919290803590602001906401000000008111156104be57600080fd5b8201836020820111156104d057600080fd5b803590602001918460018302840111640100000000831117156104f257600080fd5b91908080601f016020809104026020016040519081016040528093929190818152602001838380828437600081840152601f19601f820116905080830192505050505050509192919290505050612e86565b005b34801561055257600080fd5b50610868600480360360a081101561056957600080fd5b810190808035906020019064010000000081111561058657600080fd5b82018360208201111561059857600080fd5b803590602001918460018302840111640100000000831117156105ba57600080fd5b91908080601f016020809104026020016040519081016040528093929190818152602001838380828437600081840152601f19601f8201169050808301925050505050505091929192908035906020019064010000000081111561061d57600080fd5b82018360208201111561062f57600080fd5b8035906020019184600183028401116401000000008311171561065157600080fd5b91908080601f016020809104026020016040519081016040528093929190818152602001838380828437600081840152601f19601f820116905080830192505050505050509192919290803590602001906401000000008111156106b457600080fd5b8201836020820111156106c657600080fd5b803590602001918460018302840111640100000000831117156106e857600080fd5b91908080601f016020809104026020016040519081016040528093929190818152602001838380828437600081840152601f19601f8201169050808301925050505050505091929192908035906020019064010000000081111561074b57600080fd5b82018360208201111561075d57600080fd5b8035906020019184600183028401116401000000008311171561077f57600080fd5b91908080601f016020809104026020016040519081016040528093929190818152602001838380828437600081840152601f19601f820116905080830192505050505050509192919290803590602001906401000000008111156107e257600080fd5b8201836020820111156107f457600080fd5b8035906020019184600183028401116401000000008311171561081657600080fd5b91908080601f016020809104026020016040519081016040528093929190818152602001838380828437600081840152601f19601f820116905080830192505050505050509192919290505050612f60565b005b34801561087657600080fd5b506109306004803603602081101561088d57600080fd5b81019080803590602001906401000000008111156108aa57600080fd5b8201836020820111156108bc57600080fd5b803590602001918460018302840111640100000000831117156108de57600080fd5b91908080601f016020809104026020016040519081016040528093929190818152602001838380828437600081840152601f19601f8201169050808301925050505050505091929192905050506131a2565b604051808215151515815260200191505060405180910390f35b34801561095657600080fd5b506109996004803603602081101561096d57600080fd5b81019080803573ffffffffffffffffffffffffffffffffffffffff1690602001909291905050506132e1565b6040518082815260200191505060405180910390f35b3480156109bb57600080fd5b50610a7f600480360360408110156109d257600080fd5b81019080803590602001906401000000008111156109ef57600080fd5b820183602082011115610a0157600080fd5b80359060200191846001830284011164010000000083111715610a2357600080fd5b91908080601f016020809104026020016040519081016040528093929190818152602001838380828437600081840152601f19601f8201169050808301925050505050505091929192908035906020019092919050505061332d565b005b348015610a8d57600080fd5b50610b4760048036036020811015610aa457600080fd5b8101908080359060200190640100000000811115610ac157600080fd5b820183602082011115610ad357600080fd5b80359060200191846001830284011164010000000083111715610af557600080fd5b91908080601f016020809104026020016040519081016040528093929190818152602001838380828437600081840152601f19601f8201169050808301925050505050505091929192905050506133e0565b6040518080602001828103825283818151815260200191508051906020019080838360005b83811015610b87578082015181840152602081019050610b6c565b50505050905090810190601f168015610bb45780820380516001836020036101000a031916815260200191505b509250505060405180910390f35b348015610bce57600080fd5b50610c8860048036036020811015610be557600080fd5b8101908080359060200190640100000000811115610c0257600080fd5b820183602082011115610c1457600080fd5b80359060200191846001830284011164010000000083111715610c3657600080fd5b91908080601f016020809104026020016040519081016040528093929190818152602001838380828437600081840152601f19601f8201169050808301925050505050505091929192905050506134ed565b604051808373ffffffffffffffffffffffffffffffffffffffff1673ffffffffffffffffffffffffffffffffffffffff16815260200180602001828103825283818151815260200191508051906020019080838360005b83811015610cfa578082015181840152602081019050610cdf565b50505050905090810190601f168015610d275780820380516001836020036101000a031916815260200191505b50935050505060405180910390f35b348015610d4257600080fd5b50610d6f60048036036020811015610d5957600080fd5b8101908080359060200190929190505050613693565b60405180806020018060200180602001806020018060200186810386528b818151815260200191508051906020019080838360005b83811015610dbf578082015181840152602081019050610da4565b50505050905090810190601f168015610dec5780820380516001836020036101000a031916815260200191505b5086810385528a818151815260200191508051906020019080838360005b83811015610e25578082015181840152602081019050610e0a565b50505050905090810190601f168015610e525780820380516001836020036101000a031916815260200191505b50868103845289818151815260200191508051906020019080838360005b83811015610e8b578082015181840152602081019050610e70565b50505050905090810190601f168015610eb85780820380516001836020036101000a031916815260200191505b50868103835288818151815260200191508051906020019080838360005b83811015610ef1578082015181840152602081019050610ed6565b50505050905090810190601f168015610f1e5780820380516001836020036101000a031916815260200191505b50868103825287818151815260200191508051906020019080838360005b83811015610f57578082015181840152602081019050610f3c565b50505050905090810190601f168015610f845780820380516001836020036101000a031916815260200191505b509a505050505050505050505060405180910390f35b348015610fa657600080fd5b5061106060048036036020811015610fbd57600080fd5b8101908080359060200190640100000000811115610fda57600080fd5b820183602082011115610fec57600080fd5b8035906020019184600183028401116401000000008311171561100e57600080fd5b91908080601f016020809104026020016040519081016040528093929190818152602001838380828437600081840152601f19601f8201169050808301925050505050505091929192905050506139d0565b6040518082815260200191505060405180910390f35b34801561108257600080fd5b5061115c6004803603604081101561109957600080fd5b81019080803573ffffffffffffffffffffffffffffffffffffffff169060200190929190803590602001906401000000008111156110d657600080fd5b8201836020820111156110e857600080fd5b8035906020019184600183028401116401000000008311171561110a57600080fd5b91908080601f016020809104026020016040519081016040528093929190818152602001838380828437600081840152601f19601f820116905080830192505050505050509192919290505050613a48565b604051808215151515815260200191505060405180910390f35b34801561118257600080fd5b506112d36004803603604081101561119957600080fd5b81019080803590602001906401000000008111156111b657600080fd5b8201836020820111156111c857600080fd5b803590602001918460018302840111640100000000831117156111ea57600080fd5b91908080601f016020809104026020016040519081016040528093929190818152602001838380828437600081840152601f19601f8201169050808301925050505050505091929192908035906020019064010000000081111561124d57600080fd5b82018360208201111561125f57600080fd5b8035906020019184600183028401116401000000008311171561128157600080fd5b91908080601f016020809104026020016040519081016040528093929190818152602001838380828437600081840152601f19601f820116905080830192505050505050509192919290505050613cde565b005b3480156112e157600080fd5b50611432600480360360408110156112f857600080fd5b810190808035906020019064010000000081111561131557600080fd5b82018360208201111561132757600080fd5b8035906020019184600183028401116401000000008311171561134957600080fd5b91908080601f016020809104026020016040519081016040528093929190818152602001838380828437600081840152601f19601f820116905080830192505050505050509192919290803590602001906401000000008111156113ac57600080fd5b8201836020820111156113be57600080fd5b803590602001918460018302840111640100000000831117156113e057600080fd5b91908080601f016020809104026020016040519081016040528093929190818152602001838380828437600081840152601f19601f820116905080830192505050505050509192919290505050613d62565b005b34801561144057600080fd5b5061146d6004803603602081101561145757600080fd5b8101908080359060200190929190505050613e28565b60405180806020018060200180602001806020018060200186810386528b818151815260200191508051906020019080838360005b838110156114bd5780820151818401526020810190506114a2565b50505050905090810190601f1680156114ea5780820380516001836020036101000a031916815260200191505b5086810385528a818151815260200191508051906020019080838360005b83811015611523578082015181840152602081019050611508565b50505050905090810190601f1680156115505780820380516001836020036101000a031916815260200191505b50868103845289818151815260200191508051906020019080838360005b8381101561158957808201518184015260208101905061156e565b50505050905090810190601f1680156115b65780820380516001836020036101000a031916815260200191505b50868103835288818151815260200191508051906020019080838360005b838110156115ef5780820151818401526020810190506115d4565b50505050905090810190601f16801561161c5780820380516001836020036101000a031916815260200191505b50868103825287818151815260200191508051906020019080838360005b8381101561165557808201518184015260208101905061163a565b50505050905090810190601f1680156116825780820380516001836020036101000a031916815260200191505b509a505050505050505050505060405180910390f35b3480156116a457600080fd5b50611768600480360360408110156116bb57600080fd5b81019080803590602001906401000000008111156116d857600080fd5b8201836020820111156116ea57600080fd5b8035906020019184600183028401116401000000008311171561170c57600080fd5b91908080601f016020809104026020016040519081016040528093929190818152602001838380828437600081840152601f19601f820116905080830192505050505050509192919290803590602001909291905050506141ef565b6040518082815260200191505060405180910390f35b34801561178a57600080fd5b5061184e600480360360408110156117a157600080fd5b81019080803590602001906401000000008111156117be57600080fd5b8201836020820111156117d057600080fd5b803590602001918460018302840111640100000000831117156117f257600080fd5b91908080601f016020809104026020016040519081016040528093929190818152602001838380828437600081840152601f19601f8201169050808301925050505050505091929192908035906020019092919050505061427f565b6040518080602001838152602001828103825284818151815260200191508051906020019080838360005b83811015611894578082015181840152602081019050611879565b50505050905090810190601f1680156118c15780820380516001836020036101000a031916815260200191505b50935050505060405180910390f35b3480156118dc57600080fd5b50611996600480360360208110156118f357600080fd5b810190808035906020019064010000000081111561191057600080fd5b82018360208201111561192257600080fd5b8035906020019184600183028401116401000000008311171561194457600080fd5b91908080601f016020809104026020016040519081016040528093929190818152602001838380828437600081840152601f19601f82011690508083019250505050505050919291929050505061443d565b604051808215151515815260200191505060405180910390f35b3480156119bc57600080fd5b50611b0d600480360360408110156119d357600080fd5b81019080803590602001906401000000008111156119f057600080fd5b820183602082011115611a0257600080fd5b80359060200191846001830284011164010000000083111715611a2457600080fd5b91908080601f016020809104026020016040519081016040528093929190818152602001838380828437600081840152601f19601f82011690508083019250505050505050919291929080359060200190640100000000811115611a8757600080fd5b820183602082011115611a9957600080fd5b80359060200191846001830284011164010000000083111715611abb57600080fd5b91908080601f016020809104026020016040519081016040528093929190818152602001838380828437600081840152601f19601f820116905080830192505050505050509192919290505050614581565b005b348015611b1b57600080fd5b50611b24614644565b6040518082815260200191505060405180910390f35b348015611b4657600080fd5b50611c0060048036036020811015611b5d57600080fd5b8101908080359060200190640100000000811115611b7a57600080fd5b820183602082011115611b8c57600080fd5b80359060200191846001830284011164010000000083111715611bae57600080fd5b91908080601f016020809104026020016040519081016040528093929190818152602001838380828437600081840152601f19601f820116905080830192505050505050509192919290505050614651565b6040518080602001828103825283818151815260200191508051906020019080838360005b83811015611c40578082015181840152602081019050611c25565b50505050905090810190601f168015611c6d5780820380516001836020036101000a031916815260200191505b509250505060405180910390f35b348015611c8757600080fd5b50611d4b60048036036040811015611c9e57600080fd5b8101908080359060200190640100000000811115611cbb57600080fd5b820183602082011115611ccd57600080fd5b80359060200191846001830284011164010000000083111715611cef57600080fd5b91908080601f016020809104026020016040519081016040528093929190818152602001838380828437600081840152601f19601f8201169050808301925050505050505091929192908035906020019092919050505061475e565b6040518080602001828103825283818151815260200191508051906020019080838360005b83811015611d8b578082015181840152602081019050611d70565b50505050905090810190601f168015611db85780820380516001836020036101000a031916815260200191505b509250505060405180910390f35b348015611dd257600080fd5b50611e8c60048036036020811015611de957600080fd5b8101908080359060200190640100000000811115611e0657600080fd5b820183602082011115611e1857600080fd5b80359060200191846001830284011164010000000083111715611e3a57600080fd5b91908080601f016020809104026020016040519081016040528093929190818152602001838380828437600081840152601f19601f820116905080830192505050505050509192919290505050614886565b6040518080602001828103825283818151815260200191508051906020019080838360005b83811015611ecc578082015181840152602081019050611eb1565b50505050905090810190601f168015611ef95780820380516001836020036101000a031916815260200191505b509250505060405180910390f35b348015611f1357600080fd5b5061206e60048036036060811015611f2a57600080fd5b8101908080359060200190640100000000811115611f4757600080fd5b820183602082011115611f5957600080fd5b80359060200191846001830284011164010000000083111715611f7b57600080fd5b91908080601f016020809104026020016040519081016040528093929190818152602001838380828437600081840152601f19601f82011690508083019250505050505050919291929080359060200190640100000000811115611fde57600080fd5b820183602082011115611ff057600080fd5b8035906020019184600183028401116401000000008311171561201257600080fd5b91908080601f016020809104026020016040519081016040528093929190818152602001838380828437600081840152601f19601f82011690508083019250505050505050919291929080359060200190929190505050614993565b005b34801561207c57600080fd5b506120a96004803603602081101561209357600080fd5b8101908080359060200190929190505050614b24565b6040518080602001828103825283818151815260200191508051906020019080838360005b838110156120e95780820151818401526020810190506120ce565b50505050905090810190601f1680156121165780820380516001836020036101000a031916815260200191505b509250505060405180910390f35b34801561213057600080fd5b50612139614bdf565b6040518082815260200191505060405180910390f35b34801561215b57600080fd5b506122ac6004803603604081101561217257600080fd5b810190808035906020019064010000000081111561218f57600080fd5b8201836020820111156121a157600080fd5b803590602001918460018302840111640100000000831117156121c357600080fd5b91908080601f016020809104026020016040519081016040528093929190818152602001838380828437600081840152601f19601f8201169050808301925050505050505091929192908035906020019064010000000081111561222657600080fd5b82018360208201111561223857600080fd5b8035906020019184600183028401116401000000008311171561225a57600080fd5b91908080601f016020809104026020016040519081016040528093929190818152602001838380828437600081840152601f19601f820116905080830192505050505050509192919290505050614bec565b005b3480156122ba57600080fd5b50612374600480360360208110156122d157600080fd5b81019080803590602001906401000000008111156122ee57600080fd5b82018360208201111561230057600080fd5b8035906020019184600183028401116401000000008311171561232257600080fd5b91908080601f016020809104026020016040519081016040528093929190818152602001838380828437600081840152601f19601f820116905080830192505050505050509192919290505050614caf565b6040518082815260200191505060405180910390f35b34801561239657600080fd5b50612507600480360360608110156123ad57600080fd5b81019080803590602001906401000000008111156123ca57600080fd5b8201836020820111156123dc57600080fd5b803590602001918460018302840111640100000000831117156123fe57600080fd5b91908080601f016020809104026020016040519081016040528093929190818152602001838380828437600081840152601f19601f820116905080830192505050505050509192919290803573ffffffffffffffffffffffffffffffffffffffff1690602001909291908035906020019064010000000081111561248157600080fd5b82018360208201111561249357600080fd5b803590602001918460018302840111640100000000831117156124b557600080fd5b91908080601f016020809104026020016040519081016040528093929190818152602001838380828437600081840152601f19601f820116905080830192505050505050509192919290505050614d27565b005b34801561251557600080fd5b506125d96004803603604081101561252c57600080fd5b810190808035906020019064010000000081111561254957600080fd5b82018360208201111561255b57600080fd5b8035906020019184600183028401116401000000008311171561257d57600080fd5b91908080601f016020809104026020016040519081016040528093929190818152602001838380828437600081840152601f19601f82011690508083019250505050505050919291929080359060200190929190505050614e29565b60405180806020018060200180602001806020018060200186810386528b818151815260200191508051906020019080838360005b8381101561262957808201518184015260208101905061260e565b50505050905090810190601f1680156126565780820380516001836020036101000a031916815260200191505b5086810385528a818151815260200191508051906020019080838360005b8381101561268f578082015181840152602081019050612674565b50505050905090810190601f1680156126bc5780820380516001836020036101000a031916815260200191505b50868103845289818151815260200191508051906020019080838360005b838110156126f55780820151818401526020810190506126da565b50505050905090810190601f1680156127225780820380516001836020036101000a031916815260200191505b50868103835288818151815260200191508051906020019080838360005b8381101561275b578082015181840152602081019050612740565b50505050905090810190601f1680156127885780820380516001836020036101000a031916815260200191505b50868103825287818151815260200191508051906020019080838360005b838110156127c15780820151818401526020810190506127a6565b50505050905090810190601f1680156127ee5780820380516001836020036101000a031916815260200191505b509a505050505050505050505060405180910390f35b34801561281057600080fd5b506129756004803603608081101561282757600080fd5b8101908080359060200190929190803590602001909291908035906020019064010000000081111561285857600080fd5b82018360208201111561286a57600080fd5b8035906020019184600183028401116401000000008311171561288c57600080fd5b91908080601f016020809104026020016040519081016040528093929190818152602001838380828437600081840152601f19601f820116905080830192505050505050509192919290803590602001906401000000008111156128ef57600080fd5b82018360208201111561290157600080fd5b8035906020019184600183028401116401000000008311171561292357600080fd5b91908080601f016020809104026020016040519081016040528093929190818152602001838380828437600081840152601f19601f8201169050808301925050505050505091929192905050506153fe565b005b34801561298357600080fd5b50612ad46004803603604081101561299a57600080fd5b81019080803590602001906401000000008111156129b757600080fd5b8201836020820111156129c957600080fd5b803590602001918460018302840111640100000000831117156129eb57600080fd5b91908080601f016020809104026020016040519081016040528093929190818152602001838380828437600081840152601f19601f82011690508083019250505050505050919291929080359060200190640100000000811115612a4e57600080fd5b820183602082011115612a6057600080fd5b80359060200191846001830284011164010000000083111715612a8257600080fd5b91908080601f016020809104026020016040519081016040528093929190818152602001838380828437600081840152601f19601f8201169050808301925050505050505091929192905050506154d7565b005b348015612ae257600080fd5b50612b2f60048036036040811015612af957600080fd5b81019080803573ffffffffffffffffffffffffffffffffffffffff1690602001909291908035906020019092919050505061555b565b6040518080602001828103825283818151815260200191508051906020019080838360005b83811015612b6f578082015181840152602081019050612b54565b50505050905090810190601f168015612b9c5780820380516001836020036101000a031916815260200191505b509250505060405180910390f35b348015612bb657600080fd5b50612c7060048036036020811015612bcd57600080fd5b8101908080359060200190640100000000811115612bea57600080fd5b820183602082011115612bfc57600080fd5b80359060200191846001830284011164010000000083111715612c1e57600080fd5b91908080601f016020809104026020016040519081016040528093929190818152602001838380828437600081840152601f19601f820116905080830192505050505050509192919290505050615657565b6040518082815260200191505060405180910390f35b348015612c9257600080fd5b50612c9b6156cf565b6040518082815260200191505060405180910390f35b6000600280549050905090565b60606004826040518082805190602001908083835b602083101515612cf85780518252602082019150602081019050602083039250612cd3565b6001836020036101000a03801982511681845116808217855250505050505090500191505090815260200160405180910390208054600181600116156101000203166002900480601f016020809104026020016040519081016040528092919081815260200182805460018160011615610100020316600290048015612dbf5780601f10612d9457610100808354040283529160200191612dbf565b820191906000526020600020905b815481529060010190602001808311612da257829003601f168201915b50505050509050919050565b600781815481101515612dda57fe5b906000526020600020016000915090508054600181600116156101000203166002900480601f016020809104026020016040519081016040528092919081815260200182805460018160011615610100020316600290048015612e7e5780601f10612e5357610100808354040283529160200191612e7e565b820191906000526020600020905b815481529060010190602001808311612e6157829003601f168201915b505050505081565b600a826040518082805190602001908083835b602083101515612ebe5780518252602082019150602081019050602083039250612e99565b6001836020036101000a038019825116818451168082178552505050505050905001915050908152602001604051809103902060408051908101604052808381526020016000815250908060018154018082558091505090600182039060005260206000209060020201600090919290919091506000820151816000019080519060200190612f4e929190615778565b50602082015181600101555050505050565b6008856040518082805190602001908083835b602083101515612f985780518252602082019150602081019050602083039250612f73565b6001836020036101000a038019825116818451168082178552505050505050905001915050908152602001604051809103902060a0604051908101604052808781526020018681526020018581526020018481526020018381525090806001815401808255809150509060018203906000526020600020906005020160009091929091909150600082015181600001908051906020019061303a929190615778565b506020820151816001019080519060200190613057929190615778565b506040820151816002019080519060200190613074929190615778565b506060820151816003019080519060200190613091929190615778565b5060808201518160040190805190602001906130ae929190615778565b50505050600960a06040519081016040528087815260200186815260200185815260200184815260200183815250908060018154018082558091505090600182039060005260206000209060050201600090919290919091506000820151816000019080519060200190613123929190615778565b506020820151816001019080519060200190613140929190615778565b50604082015181600201908051906020019061315d929190615778565b50606082015181600301908051906020019061317a929190615778565b506080820151816004019080519060200190613197929190615778565b505050505050505050565b60008060009050600160028054905003811115156132da57826040516020018082805190602001908083835b6020831015156131f357805182526020820191506020810190506020830392506131ce565b6001836020036101000a0380198251168184511680821785525050505050509050019150506040516020818303038152906040528051906020012060028281548110151561323d57fe5b9060005260206000200160405160200180828054600181600116156101000203166002900480156132a55780601f106132835761010080835404028352918201916132a5565b820191906000526020600020905b815481529060010190602001808311613291575b50509150506040516020818303038152906040528051906020012014156132d05760019150506132dc565b60009150506132dc565b505b919050565b6000600660008373ffffffffffffffffffffffffffffffffffffffff1673ffffffffffffffffffffffffffffffffffffffff168152602001908152602001600020805490509050919050565b600d826040518082805190602001908083835b6020831015156133655780518252602082019150602081019050602083039250613340565b6001836020036101000a038019825116818451168082178552505050505050905001915050908152602001604051809103902060206040519081016040528083815250908060018154018082558091505090600182039060005260206000200160009091929091909150600082015181600001555050505050565b60606003826040518082805190602001908083835b60208310151561341a57805182526020820191506020810190506020830392506133f5565b6001836020036101000a03801982511681845116808217855250505050505090500191505090815260200160405180910390208054600181600116156101000203166002900480601f0160208091040260200160405190810160405280929190818152602001828054600181600116156101000203166002900480156134e15780601f106134b6576101008083540402835291602001916134e1565b820191906000526020600020905b8154815290600101906020018083116134c457829003601f168201915b50505050509050919050565b60006060600c836040518082805190602001908083835b6020831015156135295780518252602082019150602081019050602083039250613504565b6001836020036101000a038019825116818451168082178552505050505050905001915050908152602001604051809103902060000160009054906101000a900473ffffffffffffffffffffffffffffffffffffffff16600c846040518082805190602001908083835b6020831015156135b85780518252602082019150602081019050602083039250613593565b6001836020036101000a0380198251168184511680821785525050505050509050019150509081526020016040518091039020600101808054600181600116156101000203166002900480601f0160208091040260200160405190810160405280929190818152602001828054600181600116156101000203166002900480156136835780601f1061365857610100808354040283529160200191613683565b820191906000526020600020905b81548152906001019060200180831161366657829003601f168201915b5050505050905091509150915091565b6009818154811015156136a257fe5b9060005260206000209060050201600091509050806000018054600181600116156101000203166002900480601f01602080910402602001604051908101604052809291908181526020018280546001816001161561010002031660029004801561374e5780601f106137235761010080835404028352916020019161374e565b820191906000526020600020905b81548152906001019060200180831161373157829003601f168201915b505050505090806001018054600181600116156101000203166002900480601f0160208091040260200160405190810160405280929190818152602001828054600181600116156101000203166002900480156137ec5780601f106137c1576101008083540402835291602001916137ec565b820191906000526020600020905b8154815290600101906020018083116137cf57829003601f168201915b505050505090806002018054600181600116156101000203166002900480601f01602080910402602001604051908101604052809291908181526020018280546001816001161561010002031660029004801561388a5780601f1061385f5761010080835404028352916020019161388a565b820191906000526020600020905b81548152906001019060200180831161386d57829003601f168201915b505050505090806003018054600181600116156101000203166002900480601f0160208091040260200160405190810160405280929190818152602001828054600181600116156101000203166002900480156139285780601f106138fd57610100808354040283529160200191613928565b820191906000526020600020905b81548152906001019060200180831161390b57829003601f168201915b505050505090806004018054600181600116156101000203166002900480601f0160208091040260200160405190810160405280929190818152602001828054600181600116156101000203166002900480156139c65780601f1061399b576101008083540402835291602001916139c6565b820191906000526020600020905b8154815290600101906020018083116139a957829003601f168201915b5050505050905085565b6000600d826040518082805190602001908083835b602083101515613a0a57805182526020820191506020810190506020830392506139e5565b6001836020036101000a0380198251168184511680821785525050505050509050019150509081526020016040518091039020805490509050919050565b600080600090505b600660008573ffffffffffffffffffffffffffffffffffffffff1673ffffffffffffffffffffffffffffffffffffffff16815260200190815260200160002080549050811015613bfd57600660008573ffffffffffffffffffffffffffffffffffffffff1673ffffffffffffffffffffffffffffffffffffffff16815260200190815260200160002081815481101515613ae657fe5b906000526020600020016000016040516020018082805460018160011615610100020316600290048015613b515780601f10613b2f576101008083540402835291820191613b51565b820191906000526020600020905b815481529060010190602001808311613b3d575b505091505060405160208183030381529060405280519060200120836040516020018082805190602001908083835b602083101515613ba55780518252602082019150602081019050602083039250613b80565b6001836020036101000a038019825116818451168082178552505050505050905001915050604051602081830303815290604052805190602001201415613bf0576000915050613cd8565b8080600101915050613a50565b50600660008473ffffffffffffffffffffffffffffffffffffffff1673ffffffffffffffffffffffffffffffffffffffff168152602001908152602001600020602060405190810160405280848152509080600181540180825580915050906001820390600052602060002001600090919290919091506000820151816000019080519060200190613c90929190615778565b505050506007829080600181540180825580915050906001820390600052602060002001600090919290919091509080519060200190613cd19291906157f8565b5050600190505b92915050565b806001836040518082805190602001908083835b602083101515613d175780518252602082019150602081019050602083039250613cf2565b6001836020036101000a03801982511681845116808217855250505050505090500191505090815260200160405180910390209080519060200190613d5d9291906157f8565b505050565b600b826040518082805190602001908083835b602083101515613d9a5780518252602082019150602081019050602083039250613d75565b6001836020036101000a0380198251168184511680821785525050505050509050019150509081526020016040518091039020602060405190810160405280838152509080600181540180825580915050906001820390600052602060002001600090919290919091506000820151816000019080519060200190613e20929190615778565b505050505050565b6060806060806060600986815481101515613e3f57fe5b9060005260206000209060050201600001600987815481101515613e5f57fe5b9060005260206000209060050201600101600988815481101515613e7f57fe5b9060005260206000209060050201600201600989815481101515613e9f57fe5b906000526020600020906005020160030160098a815481101515613ebf57fe5b9060005260206000209060050201600401848054600181600116156101000203166002900480601f016020809104026020016040519081016040528092919081815260200182805460018160011615610100020316600290048015613f655780601f10613f3a57610100808354040283529160200191613f65565b820191906000526020600020905b815481529060010190602001808311613f4857829003601f168201915b50505050509450838054600181600116156101000203166002900480601f0160208091040260200160405190810160405280929190818152602001828054600181600116156101000203166002900480156140015780601f10613fd657610100808354040283529160200191614001565b820191906000526020600020905b815481529060010190602001808311613fe457829003601f168201915b50505050509350828054600181600116156101000203166002900480601f01602080910402602001604051908101604052809291908181526020018280546001816001161561010002031660029004801561409d5780601f106140725761010080835404028352916020019161409d565b820191906000526020600020905b81548152906001019060200180831161408057829003601f168201915b50505050509250818054600181600116156101000203166002900480601f0160208091040260200160405190810160405280929190818152602001828054600181600116156101000203166002900480156141395780601f1061410e57610100808354040283529160200191614139565b820191906000526020600020905b81548152906001019060200180831161411c57829003601f168201915b50505050509150808054600181600116156101000203166002900480601f0160208091040260200160405190810160405280929190818152602001828054600181600116156101000203166002900480156141d55780601f106141aa576101008083540402835291602001916141d5565b820191906000526020600020905b8154815290600101906020018083116141b857829003601f168201915b505050505090509450945094509450945091939590929450565b6000600d836040518082805190602001908083835b6020831015156142295780518252602082019150602081019050602083039250614204565b6001836020036101000a03801982511681845116808217855250505050505090500191505090815260200160405180910390208281548110151561426957fe5b9060005260206000200160000154905092915050565b60606000600a846040518082805190602001908083835b6020831015156142bb5780518252602082019150602081019050602083039250614296565b6001836020036101000a0380198251168184511680821785525050505050509050019150509081526020016040518091039020838154811015156142fb57fe5b9060005260206000209060020201600001600a856040518082805190602001908083835b602083101515614344578051825260208201915060208101905060208303925061431f565b6001836020036101000a03801982511681845116808217855250505050505090500191505090815260200160405180910390208481548110151561438457fe5b906000526020600020906002020160010154818054600181600116156101000203166002900480601f01602080910402602001604051908101604052809291908181526020018280546001816001161561010002031660029004801561442b5780601f106144005761010080835404028352916020019161442b565b820191906000526020600020905b81548152906001019060200180831161440e57829003601f168201915b50505050509150915091509250929050565b600080600090505b6005805490508111151561457657826040516020018082805190602001908083835b60208310151561448c5780518252602082019150602081019050602083039250614467565b6001836020036101000a038019825116818451168082178552505050505050905001915050604051602081830303815290604052805190602001206005828154811015156144d657fe5b90600052602060002001604051602001808280546001816001161561010002031660029004801561453e5780601f1061451c57610100808354040283529182019161453e565b820191906000526020600020905b81548152906001019060200180831161452a575b505091505060405160208183030381529060405280519060200120141561456957600191505061457c565b8080600101915050614445565b50600090505b919050565b806003836040518082805190602001908083835b6020831015156145ba5780518252602082019150602081019050602083039250614595565b6001836020036101000a038019825116818451168082178552505050505050905001915050908152602001604051809103902090805190602001906146009291906157f8565b50600582908060018154018082558091505090600182039060005260206000200160009091929091909150908051906020019061463e9291906157f8565b50505050565b6000600780549050905090565b60606000826040518082805190602001908083835b60208310151561468b5780518252602082019150602081019050602083039250614666565b6001836020036101000a03801982511681845116808217855250505050505090500191505090815260200160405180910390208054600181600116156101000203166002900480601f0160208091040260200160405190810160405280929190818152602001828054600181600116156101000203166002900480156147525780601f1061472757610100808354040283529160200191614752565b820191906000526020600020905b81548152906001019060200180831161473557829003601f168201915b50505050509050919050565b6060600b836040518082805190602001908083835b6020831015156147985780518252602082019150602081019050602083039250614773565b6001836020036101000a0380198251168184511680821785525050505050509050019150509081526020016040518091039020828154811015156147d857fe5b906000526020600020016000018054600181600116156101000203166002900480601f0160208091040260200160405190810160405280929190818152602001828054600181600116156101000203166002900480156148795780601f1061484e57610100808354040283529160200191614879565b820191906000526020600020905b81548152906001019060200180831161485c57829003601f168201915b5050505050905092915050565b60606001826040518082805190602001908083835b6020831015156148c0578051825260208201915060208101905060208303925061489b565b6001836020036101000a03801982511681845116808217855250505050505090500191505090815260200160405180910390208054600181600116156101000203166002900480601f0160208091040260200160405190810160405280929190818152602001828054600181600116156101000203166002900480156149875780601f1061495c57610100808354040283529160200191614987565b820191906000526020600020905b81548152906001019060200180831161496a57829003601f168201915b50505050509050919050565b816040516020018082805190602001908083835b6020831015156149cc57805182526020820191506020810190506020830392506149a7565b6001836020036101000a03801982511681845116808217855250505050505090500191505060405160208183030381529060405280519060200120600a846040518082805190602001908083835b602083101515614a3f5780518252602082019150602081019050602083039250614a1a565b6001836020036101000a038019825116818451168082178552505050505050905001915050908152602001604051809103902082815481101515614a7f57fe5b90600052602060002090600202016000016040516020018082805460018160011615610100020316600290048015614aee5780601f10614acc576101008083540402835291820191614aee565b820191906000526020600020905b815481529060010190602001808311614ada575b505091505060405160208183030381529060405280519060200120141515614b1557600080fd5b614b1f83826156dc565b505050565b6060600782815481101515614b3557fe5b906000526020600020018054600181600116156101000203166002900480601f016020809104026020016040519081016040528092919081815260200182805460018160011615610100020316600290048015614bd35780601f10614ba857610100808354040283529160200191614bd3565b820191906000526020600020905b815481529060010190602001808311614bb657829003601f168201915b50505050509050919050565b6000600580549050905090565b806000836040518082805190602001908083835b602083101515614c255780518252602082019150602081019050602083039250614c00565b6001836020036101000a03801982511681845116808217855250505050505090500191505090815260200160405180910390209080519060200190614c6b9291906157f8565b506002829080600181540180825580915050906001820390600052602060002001600090919290919091509080519060200190614ca99291906157f8565b50505050565b60006008826040518082805190602001908083835b602083101515614ce95780518252602082019150602081019050602083039250614cc4565b6001836020036101000a0380198251168184511680821785525050505050509050019150509081526020016040518091039020805490509050919050565b60408051908101604052808373ffffffffffffffffffffffffffffffffffffffff16815260200182815250600c846040518082805190602001908083835b602083101515614d8a5780518252602082019150602081019050602083039250614d65565b6001836020036101000a038019825116818451168082178552505050505050905001915050908152602001604051809103902060008201518160000160006101000a81548173ffffffffffffffffffffffffffffffffffffffff021916908373ffffffffffffffffffffffffffffffffffffffff1602179055506020820151816001019080519060200190614e20929190615778565b50905050505050565b60608060608060606008876040518082805190602001908083835b602083101515614e695780518252602082019150602081019050602083039250614e44565b6001836020036101000a038019825116818451168082178552505050505050905001915050908152602001604051809103902086815481101515614ea957fe5b90600052602060002090600502016000016008886040518082805190602001908083835b602083101515614ef25780518252602082019150602081019050602083039250614ecd565b6001836020036101000a038019825116818451168082178552505050505050905001915050908152602001604051809103902087815481101515614f3257fe5b90600052602060002090600502016001016008896040518082805190602001908083835b602083101515614f7b5780518252602082019150602081019050602083039250614f56565b6001836020036101000a038019825116818451168082178552505050505050905001915050908152602001604051809103902088815481101515614fbb57fe5b906000526020600020906005020160020160088a6040518082805190602001908083835b6020831015156150045780518252602082019150602081019050602083039250614fdf565b6001836020036101000a03801982511681845116808217855250505050505090500191505090815260200160405180910390208981548110151561504457fe5b906000526020600020906005020160030160088b6040518082805190602001908083835b60208310151561508d5780518252602082019150602081019050602083039250615068565b6001836020036101000a03801982511681845116808217855250505050505090500191505090815260200160405180910390208a8154811015156150cd57fe5b9060005260206000209060050201600401848054600181600116156101000203166002900480601f0160208091040260200160405190810160405280929190818152602001828054600181600116156101000203166002900480156151735780601f1061514857610100808354040283529160200191615173565b820191906000526020600020905b81548152906001019060200180831161515657829003601f168201915b50505050509450838054600181600116156101000203166002900480601f01602080910402602001604051908101604052809291908181526020018280546001816001161561010002031660029004801561520f5780601f106151e45761010080835404028352916020019161520f565b820191906000526020600020905b8154815290600101906020018083116151f257829003601f168201915b50505050509350828054600181600116156101000203166002900480601f0160208091040260200160405190810160405280929190818152602001828054600181600116156101000203166002900480156152ab5780601f10615280576101008083540402835291602001916152ab565b820191906000526020600020905b81548152906001019060200180831161528e57829003601f168201915b50505050509250818054600181600116156101000203166002900480601f0160208091040260200160405190810160405280929190818152602001828054600181600116156101000203166002900480156153475780601f1061531c57610100808354040283529160200191615347565b820191906000526020600020905b81548152906001019060200180831161532a57829003601f168201915b50505050509150808054600181600116156101000203166002900480601f0160208091040260200160405190810160405280929190818152602001828054600181600116156101000203166002900480156153e35780601f106153b8576101008083540402835291602001916153e3565b820191906000526020600020905b8154815290600101906020018083116153c657829003601f168201915b50505050509050945094509450945094509295509295909350565b8060098581548110151561540e57fe5b906000526020600020906005020160040190805190602001906154329291906157f8565b50806008836040518082805190602001908083835b60208310151561546c5780518252602082019150602081019050602083039250615447565b6001836020036101000a0380198251168184511680821785525050505050509050019150509081526020016040518091039020848154811015156154ac57fe5b906000526020600020906005020160040190805190602001906154d09291906157f8565b5050505050565b806004836040518082805190602001908083835b60208310151561551057805182526020820191506020810190506020830392506154eb565b6001836020036101000a038019825116818451168082178552505050505050905001915050908152602001604051809103902090805190602001906155569291906157f8565b505050565b6060600660008473ffffffffffffffffffffffffffffffffffffffff1673ffffffffffffffffffffffffffffffffffffffff168152602001908152602001600020828154811015156155a957fe5b906000526020600020016000018054600181600116156101000203166002900480601f01602080910402602001604051908101604052809291908181526020018280546001816001161561010002031660029004801561564a5780601f1061561f5761010080835404028352916020019161564a565b820191906000526020600020905b81548152906001019060200180831161562d57829003601f168201915b5050505050905092915050565b6000600a826040518082805190602001908083835b602083101515615691578051825260208201915060208101905060208303925061566c565b6001836020036101000a0380198251168184511680821785525050505050509050019150509081526020016040518091039020805490509050919050565b6000600980549050905090565b6001600a836040518082805190602001908083835b60208310151561571657805182526020820191506020810190506020830392506156f1565b6001836020036101000a03801982511681845116808217855250505050505090500191505090815260200160405180910390208281548110151561575657fe5b9060005260206000209060020201600101600082825401925050819055505050565b828054600181600116156101000203166002900490600052602060002090601f016020900481019282601f106157b957805160ff19168380011785556157e7565b828001600101855582156157e7579182015b828111156157e65782518255916020019190600101906157cb565b5b5090506157f49190615878565b5090565b828054600181600116156101000203166002900490600052602060002090601f016020900481019282601f1061583957805160ff1916838001178555615867565b82800160010185558215615867579182015b8281111561586657825182559160200191906001019061584b565b5b5090506158749190615878565b5090565b61589a91905b8082111561589657600081600090555060010161587e565b5090565b9056fea165627a7a7230582041fc6e7c4bc0cd14e03132fc4bb66a72b6ef3af3119e2a5852d264f3c5a4cf140029",
  "source": "pragma solidity ^0.5.0;\r\n\r\ncontract Election{\r\n\r\n    //-------------------------Credentails Area--------------------------------------\r\n\r\n    //Organizer mapping of Credentials and Personal Information, mapping of (Username => hash)\r\n    mapping (string => string) OrganizerCredentials;\r\n    mapping (string => string) OrganizerPersonal;\r\n    string[] OrganizerUsername;\r\n\r\n    //Candidate mapping of Credentials and Personal Information, mapping of (Username => hash)\r\n    mapping (string => string) CandidateCredentials;\r\n    mapping (string => string) CandidatePersonal;\r\n    string[] CandidateUsername;\r\n\r\n    //------------------------Organizer's  Elections Area------------------------------\r\n\r\n    //struct for contain number of Elections in place\r\n    struct ElectionHash{\r\n        string hash;\r\n    } \r\n\r\n    //mapping (OrganizerAddress => allElectionsOfOrganizer)\r\n    mapping (address => ElectionHash[]) OrganizerElections;\r\n    string[] public Elections;\r\n\r\n    //------------------------ Candidate's Nomination Requests -----------------------------\r\n\r\n    //mapping for candidate request for particular election\r\n    struct RequestHash{\r\n        string username;\r\n        string electionHash;\r\n        string time;\r\n        string place;\r\n        string status;\r\n    }\r\n\r\n    //mapping (Candidateusername => RequestHash)\r\n    mapping (string => RequestHash[]) CandidateRequests;\r\n    \r\n    //Array of Request struct\r\n    RequestHash[] public ElectionRequests;\r\n\r\n    //------------------------ Election's Candidate Area -------------------------------\r\n\r\n    struct CandidateOfElection{\r\n        string username;\r\n        uint votes;\r\n    }\r\n\r\n    //mapping of (electionHash => allCandidatesOfElection)\r\n    mapping (string => CandidateOfElection[]) SelectedCandidates;\r\n\r\n    //--------------------------- Voter's Area --------------------------------------\r\n\r\n    struct Voter{\r\n        string voter;\r\n    }\r\n\r\n    struct VoterCredentails{\r\n        address accAddress;\r\n        string password;\r\n    }\r\n\r\n    //mapping of (electionHash => VoterHash)\r\n    mapping (string => Voter[]) ElectionVoterPool;\r\n\r\n    //mapping for (VoterHash => VoterCredentials)\r\n    mapping (string => VoterCredentails) VotersAccount;\r\n\r\n    //--------------------------- Aadhaar Area -------------------------------------\r\n\r\n    struct AadhaarCard{\r\n        uint aadhaar;\r\n    }\r\n\r\n    //mapping for (electionHash => aadhaarCard[]) for verifying the adhaar is voted only once for \r\n    mapping (string => AadhaarCard[]) AadhaarCheck;\r\n\r\n    //-------------------- Functions Area ------------------------------------------\r\n\r\n\r\n\r\n\r\n\r\n    //********************************** function for Organizers *******************\r\n\r\n    function setOrganizerCredentials(string memory _username, string memory _hash) public {\r\n        OrganizerCredentials[_username] = _hash;\r\n        OrganizerUsername.push(_username);\r\n    }\r\n\r\n    function setOrganizerPersonal(string memory _username, string memory _hash) public {\r\n        OrganizerPersonal[_username] = _hash;\r\n    }\r\n\r\n    function getOrganizerCredentials(string memory _username) public view returns(string memory){\r\n        return OrganizerCredentials[_username];\r\n    }\r\n\r\n    function getOrganizerPersonal(string memory _username) public view returns(string memory){\r\n        return OrganizerPersonal[_username];\r\n    }\r\n\r\n    function getOrganizersCount() public view returns(uint){\r\n        return OrganizerUsername.length;\r\n    }\r\n\r\n    function findOrganizer(string memory _username) public view returns(bool){\r\n        for(uint i = 0; i <= OrganizerUsername.length - 1; i++){\r\n            if(keccak256(abi.encodePacked(OrganizerUsername[i])) == keccak256(abi.encodePacked(_username)))   return true;\r\n            else return false;\r\n        }\r\n    }\r\n\r\n    //*********************************** function for Elections ***************************************\r\n    \r\n    function addElection(address _add, string memory _hash) public returns(bool){\r\n        for(uint i = 0; i < OrganizerElections[_add].length ; i++){\r\n            if(keccak256(abi.encodePacked(_hash)) == keccak256(abi.encodePacked(OrganizerElections[_add][i].hash))) return false;\r\n        }\r\n        OrganizerElections[_add].push(ElectionHash(_hash));\r\n        Elections.push(_hash);\r\n        return true;\r\n    }\r\n    \r\n    function getElection(address _add, uint _index) public view returns(string memory){\r\n        return OrganizerElections[_add][_index].hash;\r\n    }\r\n\r\n    function organizerElectionCount(address _add) public view returns(uint){\r\n        return OrganizerElections[_add].length;\r\n    } \r\n\r\n    function getElections(uint _index) public view returns(string memory){\r\n        return Elections[_index];\r\n    }\r\n\r\n    function electionsCount() public view returns(uint){\r\n        return Elections.length;\r\n    } \r\n\r\n    //******************************* functions for Candidates **************************\r\n\r\n    function setCandidateCredentials(string memory _username, string memory _hash) public {\r\n        CandidateCredentials[_username] = _hash;\r\n        CandidateUsername.push(_username);\r\n    }\r\n\r\n    function setCandidatePersonal(string memory _username, string memory _hash) public {\r\n        CandidatePersonal[_username] = _hash;\r\n    }\r\n\r\n    function getCandidateCredentials(string memory _username) public view returns(string memory){\r\n        return CandidateCredentials[_username];\r\n    }\r\n\r\n    function getCandidatePersonal(string memory _username) public view returns(string memory){\r\n        return CandidatePersonal[_username];\r\n    }\r\n\r\n    function getCandidatesCount() public view returns(uint){\r\n        return CandidateUsername.length;\r\n    }\r\n\r\n    function findCandidate(string memory _username) public view returns(bool){\r\n        for(uint i = 0; i <= CandidateUsername.length; i++){\r\n            if(keccak256(abi.encodePacked(CandidateUsername[i])) == keccak256(abi.encodePacked(_username))) return true;\r\n        }\r\n        return false;\r\n    }\r\n\r\n    //********************************************* function for Election Requests *************************\r\n\r\n    function setRequest(string memory _username, string memory _electionHash, string memory _time, string memory _place, string memory _status) public {\r\n        CandidateRequests[_username].push(RequestHash(_username, _electionHash, _time, _place, _status));\r\n        ElectionRequests.push(RequestHash(_username, _electionHash, _time, _place, _status));\r\n    }\r\n\r\n    function getRequest(string memory _username, uint _index) public view returns(string memory, string memory, string memory, string memory, string memory){\r\n        return (\r\n                    CandidateRequests[_username][_index].username, \r\n                    CandidateRequests[_username][_index].electionHash, \r\n                    CandidateRequests[_username][_index].time, \r\n                    CandidateRequests[_username][_index].place, \r\n                    CandidateRequests[_username][_index].status\r\n                );\r\n    }\r\n\r\n    function candidateRequestsCount(string memory _username) public view returns(uint){\r\n        return CandidateRequests[_username].length;\r\n    }\r\n\r\n    function getAllRequest(uint _index) public view returns(string memory, string memory, string memory, string memory, string memory){\r\n        return (\r\n                    ElectionRequests[_index].username, \r\n                    ElectionRequests[_index].electionHash, \r\n                    ElectionRequests[_index].time, \r\n                    ElectionRequests[_index].place, \r\n                    ElectionRequests[_index].status\r\n                );\r\n    }\r\n\r\n    function requestsCount() public view returns(uint){\r\n        return ElectionRequests.length;\r\n    } \r\n\r\n    function updateRequestStatus(uint _allRequestIndex, uint _candidateRequestIndex, string memory _username, string memory _status) public {\r\n        ElectionRequests[_allRequestIndex].status = _status;\r\n        CandidateRequests[_username][_candidateRequestIndex].status = _status;\r\n    }\r\n\r\n    //**************************** function for selected Candidate of Election ***********************\r\n\r\n    function addCandidate(string memory _electionHash, string memory _username) public {\r\n        SelectedCandidates[_electionHash].push(CandidateOfElection(_username, 0));\r\n    }\r\n\r\n    function countElectionCandidates(string memory _electionHash) public view returns(uint){\r\n       return SelectedCandidates[_electionHash].length;\r\n    }\r\n\r\n    function getSelectedCandidates(string memory _electionHash, uint _index) public view returns(string memory, uint){\r\n       return (SelectedCandidates[_electionHash][_index].username, SelectedCandidates[_electionHash][_index].votes);\r\n    }\r\n\r\n    //*************************** function for voting for the candidate of election ************************\r\n    \r\n\r\n    function vote(string memory _electionHash, uint _index) internal {\r\n        SelectedCandidates[_electionHash][_index].votes += 1;\r\n    }\r\n\r\n    function voteSelectedCandidates(string memory _electionHash, string memory _username, uint _index) public {\r\n        \r\n        require(keccak256(abi.encodePacked(SelectedCandidates[_electionHash][_index].username)) == keccak256(abi.encodePacked(_username)));\r\n        vote(_electionHash, _index);\r\n    } \r\n\r\n    //*************************** functions for checking the Aadhaar Card voted or not **********************\r\n\r\n    //fucntion for finding the total number of voted aadhaar card\r\n    function aadhaarCount(string memory _electionHash) public view returns(uint){\r\n        return AadhaarCheck[_electionHash].length;\r\n    }\r\n\r\n    //function for find the aadhaar card for chechking that wheather it is voted or not\r\n    function checkAadhaar(string memory _electionHash, uint _index) public view returns(uint){\r\n        return AadhaarCheck[_electionHash][_index].aadhaar;\r\n    }\r\n\r\n    //function for adding the Aadhaar card to the Election Poll\r\n    function addAadhaar(string memory _electionHash, uint _aadhaar)public {\r\n        AadhaarCheck[_electionHash].push(AadhaarCard(_aadhaar));\r\n    }\r\n\r\n    //***************************** Functions for Voter ***********************************************\r\n\r\n    //function for adding the voter credentails with its Object Hash\r\n    function addVoterAccount(string memory _voterHash, address _add, string memory _password)public {\r\n        VotersAccount[_voterHash] = VoterCredentails(_add, _password);\r\n    }\r\n\r\n    //function for get the Account details of the voter\r\n    function getVoterAccount(string memory _voterHash)public view returns(address, string memory){\r\n        return (VotersAccount[_voterHash].accAddress, VotersAccount[_voterHash].password);\r\n    }\r\n\r\n    //function for inserting the Voter credentials into thier respective elections\r\n    function addVoterToElection(string memory _electionHash, string memory _voterHash)public {\r\n        ElectionVoterPool[_electionHash].push(Voter(_voterHash));\r\n    }\r\n\r\n    //function for get the voters associated with election\r\n    function getVoterToElection(string memory _electionHash, uint _index)public view returns(string memory){\r\n        return ElectionVoterPool[_electionHash][_index].voter;\r\n    }\r\n}",
  "sourcePath": "C:/Users/Prateek Patel/Desktop/Dogovote3/Digivote/contracts/Election.sol",
  "compiler": {
    "name": "solc",
    "version": "0.5.0+commit.1d4f565a.Emscripten.clang"
  },
  "schemaVersion": "3.0.2",
  "updatedAt": "2019-04-07T13:25:54.107Z",
  "devdoc": {
    "methods": {}
  },
  "userdoc": {
    "methods": {}
  }
}