{
  "contractName": "Election",
  "abi": [
    {
      "constant": false,
      "inputs": [
        {
          "name": "_username",
          "type": "string"
        },
        {
          "name": "_hash",
          "type": "string"
        }
      ],
      "name": "setOrganizerCredentials",
      "outputs": [],
      "payable": false,
      "stateMutability": "nonpayable",
      "type": "function",
      "signature": "0xc6954bb9"
    },
    {
      "constant": false,
      "inputs": [
        {
          "name": "_username",
          "type": "string"
        },
        {
          "name": "_hash",
          "type": "string"
        }
      ],
      "name": "setOrganizerPersonal",
      "outputs": [],
      "payable": false,
      "stateMutability": "nonpayable",
      "type": "function",
      "signature": "0x59b2dc85"
    },
    {
      "constant": true,
      "inputs": [
        {
          "name": "_username",
          "type": "string"
        }
      ],
      "name": "getOrganizerCredentials",
      "outputs": [
        {
          "name": "",
          "type": "string"
        }
      ],
      "payable": false,
      "stateMutability": "view",
      "type": "function",
      "signature": "0xa62a4b04"
    },
    {
      "constant": true,
      "inputs": [
        {
          "name": "_username",
          "type": "string"
        }
      ],
      "name": "getOrganizerPersonal",
      "outputs": [
        {
          "name": "",
          "type": "string"
        }
      ],
      "payable": false,
      "stateMutability": "view",
      "type": "function",
      "signature": "0xa97dd664"
    },
    {
      "constant": true,
      "inputs": [],
      "name": "getOrganizersCount",
      "outputs": [
        {
          "name": "",
          "type": "uint256"
        }
      ],
      "payable": false,
      "stateMutability": "view",
      "type": "function",
      "signature": "0x039f6ac2"
    },
    {
      "constant": true,
      "inputs": [
        {
          "name": "_username",
          "type": "string"
        }
      ],
      "name": "findOrganizer",
      "outputs": [
        {
          "name": "",
          "type": "bool"
        }
      ],
      "payable": false,
      "stateMutability": "view",
      "type": "function",
      "signature": "0x288cb036"
    },
    {
      "constant": false,
      "inputs": [
        {
          "name": "_add",
          "type": "address"
        },
        {
          "name": "_hash",
          "type": "string"
        }
      ],
      "name": "addElection",
      "outputs": [
        {
          "name": "",
          "type": "bool"
        }
      ],
      "payable": false,
      "stateMutability": "nonpayable",
      "type": "function",
      "signature": "0x584399ee"
    },
    {
      "constant": true,
      "inputs": [
        {
          "name": "_add",
          "type": "address"
        },
        {
          "name": "_index",
          "type": "uint256"
        }
      ],
      "name": "getElection",
      "outputs": [
        {
          "name": "",
          "type": "string"
        }
      ],
      "payable": false,
      "stateMutability": "view",
      "type": "function",
      "signature": "0xf0a1880a"
    },
    {
      "constant": true,
      "inputs": [
        {
          "name": "_add",
          "type": "address"
        }
      ],
      "name": "electionCount",
      "outputs": [
        {
          "name": "",
          "type": "uint256"
        }
      ],
      "payable": false,
      "stateMutability": "view",
      "type": "function",
      "signature": "0x3616a58b"
    },
    {
      "constant": false,
      "inputs": [
        {
          "name": "_username",
          "type": "string"
        },
        {
          "name": "_hash",
          "type": "string"
        }
      ],
      "name": "setCandidateCredentials",
      "outputs": [],
      "payable": false,
      "stateMutability": "nonpayable",
      "type": "function",
      "signature": "0x877cef19"
    },
    {
      "constant": false,
      "inputs": [
        {
          "name": "_username",
          "type": "string"
        },
        {
          "name": "_hash",
          "type": "string"
        }
      ],
      "name": "setCandidatePersonal",
      "outputs": [],
      "payable": false,
      "stateMutability": "nonpayable",
      "type": "function",
      "signature": "0xd25d65c4"
    },
    {
      "constant": true,
      "inputs": [
        {
          "name": "_username",
          "type": "string"
        }
      ],
      "name": "getCandidateCredentials",
      "outputs": [
        {
          "name": "",
          "type": "string"
        }
      ],
      "payable": false,
      "stateMutability": "view",
      "type": "function",
      "signature": "0x4ae62591"
    },
    {
      "constant": true,
      "inputs": [
        {
          "name": "_username",
          "type": "string"
        }
      ],
      "name": "getCandidatePersonal",
      "outputs": [
        {
          "name": "",
          "type": "string"
        }
      ],
      "payable": false,
      "stateMutability": "view",
      "type": "function",
      "signature": "0x1d81955d"
    },
    {
      "constant": true,
      "inputs": [],
      "name": "getCandidatesCount",
      "outputs": [
        {
          "name": "",
          "type": "uint256"
        }
      ],
      "payable": false,
      "stateMutability": "view",
      "type": "function",
      "signature": "0xbb9aa28f"
    },
    {
      "constant": true,
      "inputs": [
        {
          "name": "_username",
          "type": "string"
        }
      ],
      "name": "findCandidate",
      "outputs": [
        {
          "name": "",
          "type": "bool"
        }
      ],
      "payable": false,
      "stateMutability": "view",
      "type": "function",
      "signature": "0x76830a0d"
    }
  ],
  "bytecode": "0x608060405234801561001057600080fd5b50611df9806100206000396000f3fe6080604052600436106100db576000357c0100000000000000000000000000000000000000000000000000000000900463ffffffff168063039f6ac2146100e05780631d81955d1461010b578063288cb0361461024c5780633616a58b1461032c5780634ae6259114610391578063584399ee146104d257806359b2dc85146105d257806376830a0d14610731578063877cef1914610811578063a62a4b0414610970578063a97dd66414610ab1578063bb9aa28f14610bf2578063c6954bb914610c1d578063d25d65c414610d7c578063f0a1880a14610edb575b600080fd5b3480156100ec57600080fd5b506100f5610faf565b6040518082815260200191505060405180910390f35b34801561011757600080fd5b506101d16004803603602081101561012e57600080fd5b810190808035906020019064010000000081111561014b57600080fd5b82018360208201111561015d57600080fd5b8035906020019184600183028401116401000000008311171561017f57600080fd5b91908080601f016020809104026020016040519081016040528093929190818152602001838380828437600081840152601f19601f820116905080830192505050505050509192919290505050610fbc565b6040518080602001828103825283818151815260200191508051906020019080838360005b838110156102115780820151818401526020810190506101f6565b50505050905090810190601f16801561023e5780820380516001836020036101000a031916815260200191505b509250505060405180910390f35b34801561025857600080fd5b506103126004803603602081101561026f57600080fd5b810190808035906020019064010000000081111561028c57600080fd5b82018360208201111561029e57600080fd5b803590602001918460018302840111640100000000831117156102c057600080fd5b91908080601f016020809104026020016040519081016040528093929190818152602001838380828437600081840152601f19601f8201169050808301925050505050505091929192905050506110c9565b604051808215151515815260200191505060405180910390f35b34801561033857600080fd5b5061037b6004803603602081101561034f57600080fd5b81019080803573ffffffffffffffffffffffffffffffffffffffff169060200190929190505050611208565b6040518082815260200191505060405180910390f35b34801561039d57600080fd5b50610457600480360360208110156103b457600080fd5b81019080803590602001906401000000008111156103d157600080fd5b8201836020820111156103e357600080fd5b8035906020019184600183028401116401000000008311171561040557600080fd5b91908080601f016020809104026020016040519081016040528093929190818152602001838380828437600081840152601f19601f820116905080830192505050505050509192919290505050611254565b6040518080602001828103825283818151815260200191508051906020019080838360005b8381101561049757808201518184015260208101905061047c565b50505050905090810190601f1680156104c45780820380516001836020036101000a031916815260200191505b509250505060405180910390f35b3480156104de57600080fd5b506105b8600480360360408110156104f557600080fd5b81019080803573ffffffffffffffffffffffffffffffffffffffff1690602001909291908035906020019064010000000081111561053257600080fd5b82018360208201111561054457600080fd5b8035906020019184600183028401116401000000008311171561056657600080fd5b91908080601f016020809104026020016040519081016040528093929190818152602001838380828437600081840152601f19601f820116905080830192505050505050509192919290505050611361565b604051808215151515815260200191505060405180910390f35b3480156105de57600080fd5b5061072f600480360360408110156105f557600080fd5b810190808035906020019064010000000081111561061257600080fd5b82018360208201111561062457600080fd5b8035906020019184600183028401116401000000008311171561064657600080fd5b91908080601f016020809104026020016040519081016040528093929190818152602001838380828437600081840152601f19601f820116905080830192505050505050509192919290803590602001906401000000008111156106a957600080fd5b8201836020820111156106bb57600080fd5b803590602001918460018302840111640100000000831117156106dd57600080fd5b91908080601f016020809104026020016040519081016040528093929190818152602001838380828437600081840152601f19601f8201169050808301925050505050505091929192905050506115b8565b005b34801561073d57600080fd5b506107f76004803603602081101561075457600080fd5b810190808035906020019064010000000081111561077157600080fd5b82018360208201111561078357600080fd5b803590602001918460018302840111640100000000831117156107a557600080fd5b91908080601f016020809104026020016040519081016040528093929190818152602001838380828437600081840152601f19601f82011690508083019250505050505050919291929050505061163c565b604051808215151515815260200191505060405180910390f35b34801561081d57600080fd5b5061096e6004803603604081101561083457600080fd5b810190808035906020019064010000000081111561085157600080fd5b82018360208201111561086357600080fd5b8035906020019184600183028401116401000000008311171561088557600080fd5b91908080601f016020809104026020016040519081016040528093929190818152602001838380828437600081840152601f19601f820116905080830192505050505050509192919290803590602001906401000000008111156108e857600080fd5b8201836020820111156108fa57600080fd5b8035906020019184600183028401116401000000008311171561091c57600080fd5b91908080601f016020809104026020016040519081016040528093929190818152602001838380828437600081840152601f19601f82011690508083019250505050505050919291929050505061177b565b005b34801561097c57600080fd5b50610a366004803603602081101561099357600080fd5b81019080803590602001906401000000008111156109b057600080fd5b8201836020820111156109c257600080fd5b803590602001918460018302840111640100000000831117156109e457600080fd5b91908080601f016020809104026020016040519081016040528093929190818152602001838380828437600081840152601f19601f82011690508083019250505050505050919291929050505061183e565b6040518080602001828103825283818151815260200191508051906020019080838360005b83811015610a76578082015181840152602081019050610a5b565b50505050905090810190601f168015610aa35780820380516001836020036101000a031916815260200191505b509250505060405180910390f35b348015610abd57600080fd5b50610b7760048036036020811015610ad457600080fd5b8101908080359060200190640100000000811115610af157600080fd5b820183602082011115610b0357600080fd5b80359060200191846001830284011164010000000083111715610b2557600080fd5b91908080601f016020809104026020016040519081016040528093929190818152602001838380828437600081840152601f19601f82011690508083019250505050505050919291929050505061194b565b6040518080602001828103825283818151815260200191508051906020019080838360005b83811015610bb7578082015181840152602081019050610b9c565b50505050905090810190601f168015610be45780820380516001836020036101000a031916815260200191505b509250505060405180910390f35b348015610bfe57600080fd5b50610c07611a58565b6040518082815260200191505060405180910390f35b348015610c2957600080fd5b50610d7a60048036036040811015610c4057600080fd5b8101908080359060200190640100000000811115610c5d57600080fd5b820183602082011115610c6f57600080fd5b80359060200191846001830284011164010000000083111715610c9157600080fd5b91908080601f016020809104026020016040519081016040528093929190818152602001838380828437600081840152601f19601f82011690508083019250505050505050919291929080359060200190640100000000811115610cf457600080fd5b820183602082011115610d0657600080fd5b80359060200191846001830284011164010000000083111715610d2857600080fd5b91908080601f016020809104026020016040519081016040528093929190818152602001838380828437600081840152601f19601f820116905080830192505050505050509192919290505050611a65565b005b348015610d8857600080fd5b50610ed960048036036040811015610d9f57600080fd5b8101908080359060200190640100000000811115610dbc57600080fd5b820183602082011115610dce57600080fd5b80359060200191846001830284011164010000000083111715610df057600080fd5b91908080601f016020809104026020016040519081016040528093929190818152602001838380828437600081840152601f19601f82011690508083019250505050505050919291929080359060200190640100000000811115610e5357600080fd5b820183602082011115610e6557600080fd5b80359060200191846001830284011164010000000083111715610e8757600080fd5b91908080601f016020809104026020016040519081016040528093929190818152602001838380828437600081840152601f19601f820116905080830192505050505050509192919290505050611b28565b005b348015610ee757600080fd5b50610f3460048036036040811015610efe57600080fd5b81019080803573ffffffffffffffffffffffffffffffffffffffff16906020019092919080359060200190929190505050611bac565b6040518080602001828103825283818151815260200191508051906020019080838360005b83811015610f74578082015181840152602081019050610f59565b50505050905090810190601f168015610fa15780820380516001836020036101000a031916815260200191505b509250505060405180910390f35b6000600280549050905090565b60606004826040518082805190602001908083835b602083101515610ff65780518252602082019150602081019050602083039250610fd1565b6001836020036101000a03801982511681845116808217855250505050505090500191505090815260200160405180910390208054600181600116156101000203166002900480601f0160208091040260200160405190810160405280929190818152602001828054600181600116156101000203166002900480156110bd5780601f10611092576101008083540402835291602001916110bd565b820191906000526020600020905b8154815290600101906020018083116110a057829003601f168201915b50505050509050919050565b600080600090506001600280549050038111151561120157826040516020018082805190602001908083835b60208310151561111a57805182526020820191506020810190506020830392506110f5565b6001836020036101000a0380198251168184511680821785525050505050509050019150506040516020818303038152906040528051906020012060028281548110151561116457fe5b9060005260206000200160405160200180828054600181600116156101000203166002900480156111cc5780601f106111aa5761010080835404028352918201916111cc565b820191906000526020600020905b8154815290600101906020018083116111b8575b50509150506040516020818303038152906040528051906020012014156111f7576001915050611203565b6000915050611203565b505b919050565b6000600660008373ffffffffffffffffffffffffffffffffffffffff1673ffffffffffffffffffffffffffffffffffffffff168152602001908152602001600020805490509050919050565b60606003826040518082805190602001908083835b60208310151561128e5780518252602082019150602081019050602083039250611269565b6001836020036101000a03801982511681845116808217855250505050505090500191505090815260200160405180910390208054600181600116156101000203166002900480601f0160208091040260200160405190810160405280929190818152602001828054600181600116156101000203166002900480156113555780601f1061132a57610100808354040283529160200191611355565b820191906000526020600020905b81548152906001019060200180831161133857829003601f168201915b50505050509050919050565b600080600090505b600660008573ffffffffffffffffffffffffffffffffffffffff1673ffffffffffffffffffffffffffffffffffffffff1681526020019081526020016000208054905081101561151657600660008573ffffffffffffffffffffffffffffffffffffffff1673ffffffffffffffffffffffffffffffffffffffff168152602001908152602001600020818154811015156113ff57fe5b90600052602060002001600001604051602001808280546001816001161561010002031660029004801561146a5780601f1061144857610100808354040283529182019161146a565b820191906000526020600020905b815481529060010190602001808311611456575b505091505060405160208183030381529060405280519060200120836040516020018082805190602001908083835b6020831015156114be5780518252602082019150602081019050602083039250611499565b6001836020036101000a0380198251168184511680821785525050505050509050019150506040516020818303038152906040528051906020012014156115095760009150506115b2565b8080600101915050611369565b50600660008473ffffffffffffffffffffffffffffffffffffffff1673ffffffffffffffffffffffffffffffffffffffff1681526020019081526020016000206020604051908101604052808481525090806001815401808255809150509060018203906000526020600020016000909192909190915060008201518160000190805190602001906115a9929190611ca8565b50505050600190505b92915050565b806001836040518082805190602001908083835b6020831015156115f157805182526020820191506020810190506020830392506115cc565b6001836020036101000a03801982511681845116808217855250505050505090500191505090815260200160405180910390209080519060200190611637929190611d28565b505050565b600080600090506001600580549050038111151561177457826040516020018082805190602001908083835b60208310151561168d5780518252602082019150602081019050602083039250611668565b6001836020036101000a038019825116818451168082178552505050505050905001915050604051602081830303815290604052805190602001206005828154811015156116d757fe5b90600052602060002001604051602001808280546001816001161561010002031660029004801561173f5780601f1061171d57610100808354040283529182019161173f565b820191906000526020600020905b81548152906001019060200180831161172b575b505091505060405160208183030381529060405280519060200120141561176a576001915050611776565b6000915050611776565b505b919050565b806003836040518082805190602001908083835b6020831015156117b4578051825260208201915060208101905060208303925061178f565b6001836020036101000a038019825116818451168082178552505050505050905001915050908152602001604051809103902090805190602001906117fa929190611d28565b506005829080600181540180825580915050906001820390600052602060002001600090919290919091509080519060200190611838929190611d28565b50505050565b60606000826040518082805190602001908083835b6020831015156118785780518252602082019150602081019050602083039250611853565b6001836020036101000a03801982511681845116808217855250505050505090500191505090815260200160405180910390208054600181600116156101000203166002900480601f01602080910402602001604051908101604052809291908181526020018280546001816001161561010002031660029004801561193f5780601f106119145761010080835404028352916020019161193f565b820191906000526020600020905b81548152906001019060200180831161192257829003601f168201915b50505050509050919050565b60606001826040518082805190602001908083835b6020831015156119855780518252602082019150602081019050602083039250611960565b6001836020036101000a03801982511681845116808217855250505050505090500191505090815260200160405180910390208054600181600116156101000203166002900480601f016020809104026020016040519081016040528092919081815260200182805460018160011615610100020316600290048015611a4c5780601f10611a2157610100808354040283529160200191611a4c565b820191906000526020600020905b815481529060010190602001808311611a2f57829003601f168201915b50505050509050919050565b6000600580549050905090565b806000836040518082805190602001908083835b602083101515611a9e5780518252602082019150602081019050602083039250611a79565b6001836020036101000a03801982511681845116808217855250505050505090500191505090815260200160405180910390209080519060200190611ae4929190611d28565b506002829080600181540180825580915050906001820390600052602060002001600090919290919091509080519060200190611b22929190611d28565b50505050565b806004836040518082805190602001908083835b602083101515611b615780518252602082019150602081019050602083039250611b3c565b6001836020036101000a03801982511681845116808217855250505050505090500191505090815260200160405180910390209080519060200190611ba7929190611d28565b505050565b6060600660008473ffffffffffffffffffffffffffffffffffffffff1673ffffffffffffffffffffffffffffffffffffffff16815260200190815260200160002082815481101515611bfa57fe5b906000526020600020016000018054600181600116156101000203166002900480601f016020809104026020016040519081016040528092919081815260200182805460018160011615610100020316600290048015611c9b5780601f10611c7057610100808354040283529160200191611c9b565b820191906000526020600020905b815481529060010190602001808311611c7e57829003601f168201915b5050505050905092915050565b828054600181600116156101000203166002900490600052602060002090601f016020900481019282601f10611ce957805160ff1916838001178555611d17565b82800160010185558215611d17579182015b82811115611d16578251825591602001919060010190611cfb565b5b509050611d249190611da8565b5090565b828054600181600116156101000203166002900490600052602060002090601f016020900481019282601f10611d6957805160ff1916838001178555611d97565b82800160010185558215611d97579182015b82811115611d96578251825591602001919060010190611d7b565b5b509050611da49190611da8565b5090565b611dca91905b80821115611dc6576000816000905550600101611dae565b5090565b9056fea165627a7a72305820b9f6aba97c687aa3199a7e84e2ddbc259eb0d388a32bba099c87e981379fa6740029",
  "source": "pragma solidity ^0.5.0;\r\n\r\ncontract Election{\r\n\r\n    mapping (string => string) OrganizerCredentials;\r\n    mapping (string => string) OrganizerPersonal;\r\n    string[] OrganizerUsername;\r\n    mapping (string => string) CandidateCredentials;\r\n    mapping (string => string) CandidatePersonal;\r\n    string[] CandidateUsername;\r\n\r\n    struct ElectionHash{\r\n        string hash;\r\n    } \r\n    mapping (address => ElectionHash[]) OrganizerElection;\r\n\r\n    function setOrganizerCredentials(string memory _username, string memory _hash) public {\r\n        OrganizerCredentials[_username] = _hash;\r\n        OrganizerUsername.push(_username);\r\n    }\r\n\r\n    function setOrganizerPersonal(string memory _username, string memory _hash) public {\r\n        OrganizerPersonal[_username] = _hash;\r\n    }\r\n\r\n    function getOrganizerCredentials(string memory _username) public view returns(string memory){\r\n        return OrganizerCredentials[_username];\r\n    }\r\n\r\n    function getOrganizerPersonal(string memory _username) public view returns(string memory){\r\n        return OrganizerPersonal[_username];\r\n    }\r\n\r\n    function getOrganizersCount() public view returns(uint){\r\n        return OrganizerUsername.length;\r\n    }\r\n\r\n    function findOrganizer(string memory _username) public view returns(bool){\r\n        for(uint i = 0; i <= OrganizerUsername.length - 1; i++){\r\n            if(keccak256(abi.encodePacked(OrganizerUsername[i])) == keccak256(abi.encodePacked(_username)))   return true;\r\n            else return false;\r\n        }\r\n    }\r\n\r\n    function addElection(address _add, string memory _hash) public returns(bool){\r\n        for(uint i = 0; i < OrganizerElection[_add].length ; i++){\r\n            if(keccak256(abi.encodePacked(_hash)) == keccak256(abi.encodePacked(OrganizerElection[_add][i].hash))) return false;\r\n        }\r\n        OrganizerElection[_add].push(ElectionHash(_hash));\r\n        return true;\r\n    }\r\n    \r\n    function getElection(address _add, uint _index) public view returns(string memory){\r\n        return OrganizerElection[_add][_index].hash;\r\n    }\r\n\r\n    function electionCount(address _add) public view returns(uint){\r\n        return OrganizerElection[_add].length;\r\n    } \r\n\r\n    //functions for Candidates\r\n\r\n    function setCandidateCredentials(string memory _username, string memory _hash) public {\r\n        CandidateCredentials[_username] = _hash;\r\n        CandidateUsername.push(_username);\r\n    }\r\n\r\n    function setCandidatePersonal(string memory _username, string memory _hash) public {\r\n        CandidatePersonal[_username] = _hash;\r\n    }\r\n\r\n    function getCandidateCredentials(string memory _username) public view returns(string memory){\r\n        return CandidateCredentials[_username];\r\n    }\r\n\r\n    function getCandidatePersonal(string memory _username) public view returns(string memory){\r\n        return CandidatePersonal[_username];\r\n    }\r\n\r\n    function getCandidatesCount() public view returns(uint){\r\n        return CandidateUsername.length;\r\n    }\r\n\r\n    function findCandidate(string memory _username) public view returns(bool){\r\n        for(uint i = 0; i <= CandidateUsername.length - 1; i++){\r\n            if(keccak256(abi.encodePacked(CandidateUsername[i])) == keccak256(abi.encodePacked(_username)))   return true;\r\n            else return false;\r\n        }\r\n    }\r\n}",
  "sourcePath": "C:/Users/Prateek Patel/Desktop/Dogovote3/DigiVote/contracts/Election.sol",
  "compiler": {
    "name": "solc",
    "version": "0.5.0+commit.1d4f565a.Emscripten.clang"
  },
  "schemaVersion": "3.0.2",
  "updatedAt": "2019-03-17T12:47:41.627Z",
  "devdoc": {
    "methods": {}
  },
  "userdoc": {
    "methods": {}
  }
}